{
  "contractName": "Auction",
  "abi": [
    {
      "constant": true,
      "inputs": [
        {
          "name": "",
          "type": "uint256"
        }
      ],
      "name": "indexs",
      "outputs": [
        {
          "name": "",
          "type": "address"
        }
      ],
      "payable": false,
      "stateMutability": "view",
      "type": "function"
    },
    {
      "constant": true,
      "inputs": [],
      "name": "V",
      "outputs": [
        {
          "name": "",
          "type": "uint256"
        }
      ],
      "payable": false,
      "stateMutability": "view",
      "type": "function"
    },
    {
      "constant": true,
      "inputs": [],
      "name": "maxBiddersCount",
      "outputs": [
        {
          "name": "",
          "type": "uint256"
        }
      ],
      "payable": false,
      "stateMutability": "view",
      "type": "function"
    },
    {
      "constant": true,
      "inputs": [],
      "name": "auctioneerRSAPublicKey",
      "outputs": [
        {
          "name": "",
          "type": "string"
        }
      ],
      "payable": false,
      "stateMutability": "view",
      "type": "function"
    },
    {
      "constant": true,
      "inputs": [],
      "name": "bidEndTime",
      "outputs": [
        {
          "name": "",
          "type": "uint256"
        }
      ],
      "payable": false,
      "stateMutability": "view",
      "type": "function"
    },
    {
      "constant": true,
      "inputs": [],
      "name": "fairnessFees",
      "outputs": [
        {
          "name": "",
          "type": "uint256"
        }
      ],
      "payable": false,
      "stateMutability": "view",
      "type": "function"
    },
    {
      "constant": true,
      "inputs": [],
      "name": "states",
      "outputs": [
        {
          "name": "",
          "type": "uint8"
        }
      ],
      "payable": false,
      "stateMutability": "view",
      "type": "function"
    },
    {
      "constant": true,
      "inputs": [],
      "name": "revealTime",
      "outputs": [
        {
          "name": "",
          "type": "uint256"
        }
      ],
      "payable": false,
      "stateMutability": "view",
      "type": "function"
    },
    {
      "constant": true,
      "inputs": [],
      "name": "auctioneerAddress",
      "outputs": [
        {
          "name": "",
          "type": "address"
        }
      ],
      "payable": false,
      "stateMutability": "view",
      "type": "function"
    },
    {
      "constant": true,
      "inputs": [],
      "name": "highestBid",
      "outputs": [
        {
          "name": "",
          "type": "uint256"
        }
      ],
      "payable": false,
      "stateMutability": "view",
      "type": "function"
    },
    {
      "constant": true,
      "inputs": [],
      "name": "winner",
      "outputs": [
        {
          "name": "",
          "type": "address"
        }
      ],
      "payable": false,
      "stateMutability": "view",
      "type": "function"
    },
    {
      "constant": true,
      "inputs": [],
      "name": "Q",
      "outputs": [
        {
          "name": "",
          "type": "uint256"
        }
      ],
      "payable": false,
      "stateMutability": "view",
      "type": "function"
    },
    {
      "constant": true,
      "inputs": [],
      "name": "winnerPaymentTime",
      "outputs": [
        {
          "name": "",
          "type": "uint256"
        }
      ],
      "payable": false,
      "stateMutability": "view",
      "type": "function"
    },
    {
      "constant": true,
      "inputs": [
        {
          "name": "",
          "type": "address"
        }
      ],
      "name": "bidders",
      "outputs": [
        {
          "name": "commitX",
          "type": "uint256"
        },
        {
          "name": "commitY",
          "type": "uint256"
        },
        {
          "name": "cipher",
          "type": "string"
        },
        {
          "name": "validProofs",
          "type": "bool"
        },
        {
          "name": "paidBack",
          "type": "bool"
        },
        {
          "name": "existing",
          "type": "bool"
        }
      ],
      "payable": false,
      "stateMutability": "view",
      "type": "function"
    },
    {
      "inputs": [
        {
          "name": "_bidEndTime",
          "type": "uint256"
        },
        {
          "name": "_revealTime",
          "type": "uint256"
        },
        {
          "name": "_winnerPaymentTime",
          "type": "uint256"
        },
        {
          "name": "_maxBiddersCount",
          "type": "uint256"
        },
        {
          "name": "_fairnessFees",
          "type": "uint256"
        },
        {
          "name": "_auctioneerRSAPublicKey",
          "type": "string"
        },
        {
          "name": "pedersenAddress",
          "type": "address"
        },
        {
          "name": "k",
          "type": "uint8"
        },
        {
          "name": "_testing",
          "type": "bool"
        },
        {
          "name": "_auctioneerAddress",
          "type": "address"
        },
        {
          "name": "_auctioneerDeposit",
          "type": "uint256"
        }
      ],
      "payable": false,
      "stateMutability": "nonpayable",
      "type": "constructor"
    },
    {
      "constant": true,
      "inputs": [
        {
          "name": "account",
          "type": "address"
        }
      ],
      "name": "BidderData",
      "outputs": [
        {
          "name": "",
          "type": "bool"
        },
        {
          "name": "",
          "type": "bool"
        },
        {
          "name": "",
          "type": "bool"
        },
        {
          "name": "",
          "type": "bool"
        }
      ],
      "payable": false,
      "stateMutability": "view",
      "type": "function"
    },
    {
      "constant": true,
      "inputs": [],
      "name": "AuctionData",
      "outputs": [
        {
          "name": "",
          "type": "uint256"
        },
        {
          "name": "",
          "type": "uint256"
        },
        {
          "name": "",
          "type": "uint256"
        },
        {
          "name": "",
          "type": "uint256"
        }
      ],
      "payable": false,
      "stateMutability": "view",
      "type": "function"
    },
    {
      "constant": true,
      "inputs": [],
      "name": "BiddersAddresses",
      "outputs": [
        {
          "name": "",
          "type": "address[]"
        }
      ],
      "payable": false,
      "stateMutability": "view",
      "type": "function"
    },
    {
      "constant": false,
      "inputs": [
        {
          "name": "cX",
          "type": "uint256"
        },
        {
          "name": "cY",
          "type": "uint256"
        }
      ],
      "name": "Bid",
      "outputs": [],
      "payable": true,
      "stateMutability": "payable",
      "type": "function"
    },
    {
      "constant": false,
      "inputs": [
        {
          "name": "cipher",
          "type": "string"
        }
      ],
      "name": "Reveal",
      "outputs": [],
      "payable": false,
      "stateMutability": "nonpayable",
      "type": "function"
    },
    {
      "constant": false,
      "inputs": [
        {
          "name": "_winner",
          "type": "address"
        },
        {
          "name": "_bid",
          "type": "uint256"
        },
        {
          "name": "_r",
          "type": "uint256"
        }
      ],
      "name": "ClaimWinner",
      "outputs": [],
      "payable": false,
      "stateMutability": "nonpayable",
      "type": "function"
    },
    {
      "constant": false,
      "inputs": [
        {
          "name": "y",
          "type": "address"
        },
        {
          "name": "_commits",
          "type": "uint256[]"
        },
        {
          "name": "_deltaCommits",
          "type": "uint256[]"
        }
      ],
      "name": "ZKPCommit",
      "outputs": [],
      "payable": false,
      "stateMutability": "nonpayable",
      "type": "function"
    },
    {
      "constant": false,
      "inputs": [
        {
          "name": "response",
          "type": "uint256[]"
        },
        {
          "name": "deltaResponses",
          "type": "uint256[]"
        }
      ],
      "name": "ZKPVerify",
      "outputs": [],
      "payable": false,
      "stateMutability": "nonpayable",
      "type": "function"
    },
    {
      "constant": false,
      "inputs": [],
      "name": "VerifyAll",
      "outputs": [],
      "payable": false,
      "stateMutability": "nonpayable",
      "type": "function"
    },
    {
      "constant": false,
      "inputs": [],
      "name": "Withdraw",
      "outputs": [],
      "payable": false,
      "stateMutability": "nonpayable",
      "type": "function"
    },
    {
      "constant": false,
      "inputs": [],
      "name": "WinnerPay",
      "outputs": [],
      "payable": true,
      "stateMutability": "payable",
      "type": "function"
    },
    {
      "constant": false,
      "inputs": [],
      "name": "Destroy",
      "outputs": [],
      "payable": false,
      "stateMutability": "nonpayable",
      "type": "function"
    }
  ],
  "bytecode": "0x6080604052600a600360016101000a81548160ff021916908360ff1602179055507f30644e72e131a029b85045b68181585d97816a916871ca8d3c208c16d87cfd476004557f0c19139cb84c680a6e14116da060561765e05aa45a1c72a34f082305b61f3f516005556001600a553480156200007a57600080fd5b506040516200367d3803806200367d8339810180604052610160811015620000a157600080fd5b8101908080519060200190929190805190602001909291908051906020019092919080519060200190929190805190602001909291908051640100000000811115620000ec57600080fd5b828101905060208101848111156200010357600080fd5b81518560018202830111640100000000821117156200012157600080fd5b5050929190602001805190602001909291908051906020019092919080519060200190929190805190602001909291908051906020019092919050505086811015620001d5576040517f08c379a000000000000000000000000000000000000000000000000000000000815260040180806020018281038252600f8152602001807f4465706f73697420746f6f206c6f77000000000000000000000000000000000081525060200191505060405180910390fd5b81600b60006101000a81548173ffffffffffffffffffffffffffffffffffffffff021916908373ffffffffffffffffffffffffffffffffffffffff1602179055508a600c8190555089600d8190555088600e8190555087600f8190555086601081905550856011908051906020019062000251929190620002d8565b50846000806101000a81548173ffffffffffffffffffffffffffffffffffffffff021916908373ffffffffffffffffffffffffffffffffffffffff16021790555083600360016101000a81548160ff021916908360ff16021790555082600360006101000a81548160ff021916908315150217905550505050505050505050505062000387565b828054600181600116156101000203166002900490600052602060002090601f016020900481019282601f106200031b57805160ff19168380011785556200034c565b828001600101855582156200034c579182015b828111156200034b5782518255916020019190600101906200032e565b5b5090506200035b91906200035f565b5090565b6200038491905b808211156200038057600081600090555060010162000366565b5090565b90565b6132e680620003976000396000f3fe6080604052600436106101815760003560e01c8063ba829d71116100d1578063dfbf53ae1161008a578063f040279f11610064578063f040279f14610941578063f4fbfd6914610a09578063f58fef8e14610a75578063fcc8f79314610a8c57610181565b8063dfbf53ae14610894578063e493ef8c146108eb578063eff081191461091657610181565b8063ba829d71146105da578063c6e1ec4e14610605578063c84e11371461068f578063c90a7e8d14610699578063d13a15f314610812578063d57bde791461086957610181565b806357ea89b61161013e5780636bc6ecc9116101185780636bc6ecc91461051f57806381806bb51461055f57806382482f7c1461058a57806384ac26d4146105c357610181565b806357ea89b61461034a57806364876f6e1461036157806369bd5609146103c657610181565b8063101d457914610186578063205db2c1146102015780632200b63e1461022c57806325aff27a1461025757806347a0375b146102e75780634ba9a9271461031f575b600080fd5b34801561019257600080fd5b506101bf600480360360208110156101a957600080fd5b8101908080359060200190929190505050610b85565b604051808273ffffffffffffffffffffffffffffffffffffffff1673ffffffffffffffffffffffffffffffffffffffff16815260200191505060405180910390f35b34801561020d57600080fd5b50610216610bc1565b6040518082815260200191505060405180910390f35b34801561023857600080fd5b50610241610bc7565b6040518082815260200191505060405180910390f35b34801561026357600080fd5b5061026c610bcd565b6040518080602001828103825283818151815260200191508051906020019080838360005b838110156102ac578082015181840152602081019050610291565b50505050905090810190601f1680156102d95780820380516001836020036101000a031916815260200191505b509250505060405180910390f35b61031d600480360360408110156102fd57600080fd5b810190808035906020019092919080359060200190929190505050610c6b565b005b34801561032b57600080fd5b50610334610eff565b6040518082815260200191505060405180910390f35b34801561035657600080fd5b5061035f610f05565b005b34801561036d57600080fd5b506103c46004803603606081101561038457600080fd5b81019080803573ffffffffffffffffffffffffffffffffffffffff1690602001909291908035906020019092919080359060200190929190505050611157565b005b3480156103d257600080fd5b5061051d600480360360408110156103e957600080fd5b810190808035906020019064010000000081111561040657600080fd5b82018360208201111561041857600080fd5b8035906020019184602083028401116401000000008311171561043a57600080fd5b919080806020026020016040519081016040528093929190818152602001838360200280828437600081840152601f19601f8201169050808301925050505050505091929192908035906020019064010000000081111561049a57600080fd5b8201836020820111156104ac57600080fd5b803590602001918460208302840111640100000000831117156104ce57600080fd5b919080806020026020016040519081016040528093929190818152602001838360200280828437600081840152601f19601f820116905080830192505050505050509192919290505050611448565b005b34801561052b57600080fd5b50610534612614565b6040518085815260200184815260200183815260200182815260200194505050505060405180910390f35b34801561056b57600080fd5b50610574612634565b6040518082815260200191505060405180910390f35b34801561059657600080fd5b5061059f61263a565b604051808260058111156105af57fe5b60ff16815260200191505060405180910390f35b3480156105cf57600080fd5b506105d861264d565b005b3480156105e657600080fd5b506105ef61287f565b6040518082815260200191505060405180910390f35b34801561061157600080fd5b506106546004803603602081101561062857600080fd5b81019080803573ffffffffffffffffffffffffffffffffffffffff169060200190929190505050612885565b604051808515151515815260200184151515158152602001831515151581526020018215151515815260200194505050505060405180910390f35b6106976129ae565b005b3480156106a557600080fd5b50610810600480360360608110156106bc57600080fd5b81019080803573ffffffffffffffffffffffffffffffffffffffff169060200190929190803590602001906401000000008111156106f957600080fd5b82018360208201111561070b57600080fd5b8035906020019184602083028401116401000000008311171561072d57600080fd5b919080806020026020016040519081016040528093929190818152602001838360200280828437600081840152601f19601f8201169050808301925050505050505091929192908035906020019064010000000081111561078d57600080fd5b82018360208201111561079f57600080fd5b803590602001918460208302840111640100000000831117156107c157600080fd5b919080806020026020016040519081016040528093929190818152602001838360200280828437600081840152601f19601f820116905080830192505050505050509192919290505050612a4e565b005b34801561081e57600080fd5b50610827612d30565b604051808273ffffffffffffffffffffffffffffffffffffffff1673ffffffffffffffffffffffffffffffffffffffff16815260200191505060405180910390f35b34801561087557600080fd5b5061087e612d56565b6040518082815260200191505060405180910390f35b3480156108a057600080fd5b506108a9612d5c565b604051808273ffffffffffffffffffffffffffffffffffffffff1673ffffffffffffffffffffffffffffffffffffffff16815260200191505060405180910390f35b3480156108f757600080fd5b50610900612d82565b6040518082815260200191505060405180910390f35b34801561092257600080fd5b5061092b612d88565b6040518082815260200191505060405180910390f35b34801561094d57600080fd5b50610a076004803603602081101561096457600080fd5b810190808035906020019064010000000081111561098157600080fd5b82018360208201111561099357600080fd5b803590602001918460018302840111640100000000831117156109b557600080fd5b91908080601f016020809104026020016040519081016040528093929190818152602001838380828437600081840152601f19601f820116905080830192505050505050509192919290505050612d8e565b005b348015610a1557600080fd5b50610a1e612fd1565b6040518080602001828103825283818151815260200191508051906020019060200280838360005b83811015610a61578082015181840152602081019050610a46565b505050509050019250505060405180910390f35b348015610a8157600080fd5b50610a8a61305f565b005b348015610a9857600080fd5b50610adb60048036036020811015610aaf57600080fd5b81019080803573ffffffffffffffffffffffffffffffffffffffff16906020019092919050505061309a565b6040518087815260200186815260200180602001851515151581526020018415151515815260200183151515158152602001828103825286818151815260200191508051906020019080838360005b83811015610b45578082015181840152602081019050610b2a565b50505050905090810190601f168015610b725780820380516001836020036101000a031916815260200191505b5097505050505050505060405180910390f35b60098181548110610b9257fe5b906000526020600020016000915054906101000a900473ffffffffffffffffffffffffffffffffffffffff1681565b60055481565b600f5481565b60118054600181600116156101000203166002900480601f016020809104026020016040519081016040528092919081815260200182805460018160011615610100020316600290048015610c635780601f10610c3857610100808354040283529160200191610c63565b820191906000526020600020905b815481529060010190602001808311610c4657829003601f168201915b505050505081565b600c5480421080610c885750600360009054906101000a900460ff165b610cfa576040517f08c379a000000000000000000000000000000000000000000000000000000000815260040180806020018281038252600c8152602001807f4e6f742074696d6520796574000000000000000000000000000000000000000081525060200191505060405180910390fd5b600f5460098054905010610d0d57600080fd5b601054341015610d1c57600080fd5b60001515600860003373ffffffffffffffffffffffffffffffffffffffff1673ffffffffffffffffffffffffffffffffffffffff16815260200190815260200160002060030160029054906101000a900460ff16151514610d7c57600080fd5b6040518060c0016040528084815260200183815260200160405180602001604052806000815250815260200160001515815260200160001515815260200160011515815250600860003373ffffffffffffffffffffffffffffffffffffffff1673ffffffffffffffffffffffffffffffffffffffff16815260200190815260200160002060008201518160000155602082015181600101556040820151816002019080519060200190610e30929190613195565b5060608201518160030160006101000a81548160ff02191690831515021790555060808201518160030160016101000a81548160ff02191690831515021790555060a08201518160030160026101000a81548160ff02191690831515021790555090505060093390806001815401808255809150509060018203906000526020600020016000909192909190916101000a81548173ffffffffffffffffffffffffffffffffffffffff021916908373ffffffffffffffffffffffffffffffffffffffff16021790555050505050565b600c5481565b600580811115610f1157fe5b600060159054906101000a900460ff166005811115610f2c57fe5b1480610f395750600e5442115b610f4257600080fd5b601260009054906101000a900473ffffffffffffffffffffffffffffffffffffffff1673ffffffffffffffffffffffffffffffffffffffff163373ffffffffffffffffffffffffffffffffffffffff161415610f9d57600080fd5b60001515600860003373ffffffffffffffffffffffffffffffffffffffff1673ffffffffffffffffffffffffffffffffffffffff16815260200190815260200160002060030160019054906101000a900460ff161515148015611053575060011515600860003373ffffffffffffffffffffffffffffffffffffffff1673ffffffffffffffffffffffffffffffffffffffff16815260200190815260200160002060030160029054906101000a900460ff161515145b61105c57600080fd5b60001515600060149054906101000a900460ff1615151461107c57600080fd5b6001600060146101000a81548160ff0219169083151502179055503373ffffffffffffffffffffffffffffffffffffffff166108fc6010549081150290604051600060405180830381858888f193505050501580156110df573d6000803e3d6000fd5b506001600860003373ffffffffffffffffffffffffffffffffffffffff1673ffffffffffffffffffffffffffffffffffffffff16815260200190815260200160002060030160016101000a81548160ff02191690831515021790555060008060146101000a81548160ff021916908315150217905550565b600b60009054906101000a900473ffffffffffffffffffffffffffffffffffffffff1673ffffffffffffffffffffffffffffffffffffffff163373ffffffffffffffffffffffffffffffffffffffff16146111b157600080fd5b600d54421180156111c35750600e5442105b806111da5750600360009054906101000a900460ff165b6111e357600080fd5b600060058111156111f057fe5b600060159054906101000a900460ff16600581111561120b57fe5b1461121557600080fd5b60011515600860008573ffffffffffffffffffffffffffffffffffffffff1673ffffffffffffffffffffffffffffffffffffffff16815260200190815260200160002060030160029054906101000a900460ff1615151461127557600080fd5b600554821061128357600080fd5b6000809054906101000a900473ffffffffffffffffffffffffffffffffffffffff1673ffffffffffffffffffffffffffffffffffffffff1663c30918d18383600860008873ffffffffffffffffffffffffffffffffffffffff1673ffffffffffffffffffffffffffffffffffffffff16815260200190815260200160002060000154600860008973ffffffffffffffffffffffffffffffffffffffff1673ffffffffffffffffffffffffffffffffffffffff168152602001908152602001600020600101546040518563ffffffff1660e01b815260040180858152602001848152602001838152602001828152602001945050505050602060405180830381600087803b15801561139357600080fd5b505af11580156113a7573d6000803e3d6000fd5b505050506040513d60208110156113bd57600080fd5b81019080805190602001909291905050506113d757600080fd5b82601260006101000a81548173ffffffffffffffffffffffffffffffffffffffff021916908373ffffffffffffffffffffffffffffffffffffffff160217905550816013819055506001600060156101000a81548160ff0219169083600581111561143e57fe5b0217905550505050565b6003600581111561145557fe5b600060159054906101000a900460ff16600581111561147057fe5b14806114a157506004600581111561148457fe5b600060159054906101000a900460ff16600581111561149f57fe5b145b6114aa57600080fd5b600080905060006002544060001c90506001600a81905550600080905060008090506000805b8751841080156114e4575060068054905083105b15611c89576000600a548616141561179f5760055460045489600287018151811061150b57fe5b60200260200101518a878151811061151f57fe5b6020026020010151018161152f57fe5b061461153a57600080fd5b6000809054906101000a900473ffffffffffffffffffffffffffffffffffffffff1673ffffffffffffffffffffffffffffffffffffffff1663c30918d189868151811061158357fe5b60200260200101518a600188018151811061159a57fe5b6020026020010151600687815481106115af57fe5b9060005260206000200154600660018901815481106115ca57fe5b90600052602060002001546040518563ffffffff1660e01b815260040180858152602001848152602001838152602001828152602001945050505050602060405180830381600087803b15801561162057600080fd5b505af1158015611634573d6000803e3d6000fd5b505050506040513d602081101561164a57600080fd5b810190808051906020019092919050505061166457600080fd5b6000809054906101000a900473ffffffffffffffffffffffffffffffffffffffff1673ffffffffffffffffffffffffffffffffffffffff1663c30918d18960028701815181106116b057fe5b60200260200101518a60038801815181106116c757fe5b6020026020010151600660028801815481106116df57fe5b9060005260206000200154600660038901815481106116fa57fe5b90600052602060002001546040518563ffffffff1660e01b815260040180858152602001848152602001838152602001828152602001945050505050602060405180830381600087803b15801561175057600080fd5b505af1158015611764573d6000803e3d6000fd5b505050506040513d602081101561177a57600080fd5b810190808051906020019092919050505061179457600080fd5b600484019350611c69565b60018860028601815181106117b057fe5b60200260200101511415611994576000809054906101000a900473ffffffffffffffffffffffffffffffffffffffff1673ffffffffffffffffffffffffffffffffffffffff1663cde6248360086000600160009054906101000a900473ffffffffffffffffffffffffffffffffffffffff1673ffffffffffffffffffffffffffffffffffffffff1673ffffffffffffffffffffffffffffffffffffffff1681526020019081526020016000206000015460086000600160009054906101000a900473ffffffffffffffffffffffffffffffffffffffff1673ffffffffffffffffffffffffffffffffffffffff1673ffffffffffffffffffffffffffffffffffffffff16815260200190815260200160002060010154600687815481106118d257fe5b9060005260206000200154600660018901815481106118ed57fe5b90600052602060002001546040518563ffffffff1660e01b8152600401808581526020018481526020018381526020018281526020019450505050506040805180830381600087803b15801561194257600080fd5b505af1158015611956573d6000803e3d6000fd5b505050506040513d604081101561196c57600080fd5b8101908080519060200190929190805190602001909291905050508092508193505050611b69565b6000809054906101000a900473ffffffffffffffffffffffffffffffffffffffff1673ffffffffffffffffffffffffffffffffffffffff1663cde6248360086000600160009054906101000a900473ffffffffffffffffffffffffffffffffffffffff1673ffffffffffffffffffffffffffffffffffffffff1673ffffffffffffffffffffffffffffffffffffffff1681526020019081526020016000206000015460086000600160009054906101000a900473ffffffffffffffffffffffffffffffffffffffff1673ffffffffffffffffffffffffffffffffffffffff1673ffffffffffffffffffffffffffffffffffffffff1681526020019081526020016000206001015460066002880181548110611aab57fe5b906000526020600020015460066003890181548110611ac657fe5b90600052602060002001546040518563ffffffff1660e01b8152600401808581526020018481526020018381526020018281526020019450505050506040805180830381600087803b158015611b1b57600080fd5b505af1158015611b2f573d6000803e3d6000fd5b505050506040513d6040811015611b4557600080fd5b81019080805190602001909291908051906020019092919050505080925081935050505b6000809054906101000a900473ffffffffffffffffffffffffffffffffffffffff1673ffffffffffffffffffffffffffffffffffffffff1663c30918d1898681518110611bb257fe5b60200260200101518a6001880181518110611bc957fe5b602002602001015185856040518563ffffffff1660e01b815260040180858152602001848152602001838152602001828152602001945050505050602060405180830381600087803b158015611c1e57600080fd5b505af1158015611c32573d6000803e3d6000fd5b505050506040513d6020811015611c4857600080fd5b8101908080519060200190929190505050611c6257600080fd5b6003840193505b6004830192506001600a54901b600a8190555085806001019650506114d0565b600360019054906101000a900460ff1660ff168660ff1614611caa57600080fd5b6000955060009350600092505b865184108015611ccb575060078054905083105b15612548576000600a5486161415611f8657600554600454886002870181518110611cf257fe5b6020026020010151898781518110611d0657fe5b60200260200101510181611d1657fe5b0614611d2157600080fd5b6000809054906101000a900473ffffffffffffffffffffffffffffffffffffffff1673ffffffffffffffffffffffffffffffffffffffff1663c30918d1888681518110611d6a57fe5b6020026020010151896001880181518110611d8157fe5b602002602001015160078781548110611d9657fe5b906000526020600020015460076001890181548110611db157fe5b90600052602060002001546040518563ffffffff1660e01b815260040180858152602001848152602001838152602001828152602001945050505050602060405180830381600087803b158015611e0757600080fd5b505af1158015611e1b573d6000803e3d6000fd5b505050506040513d6020811015611e3157600080fd5b8101908080519060200190929190505050611e4b57600080fd5b6000809054906101000a900473ffffffffffffffffffffffffffffffffffffffff1673ffffffffffffffffffffffffffffffffffffffff1663c30918d1886002870181518110611e9757fe5b6020026020010151896003880181518110611eae57fe5b602002602001015160076002880181548110611ec657fe5b906000526020600020015460076003890181548110611ee157fe5b90600052602060002001546040518563ffffffff1660e01b815260040180858152602001848152602001838152602001828152602001945050505050602060405180830381600087803b158015611f3757600080fd5b505af1158015611f4b573d6000803e3d6000fd5b505050506040513d6020811015611f6157600080fd5b8101908080519060200190929190505050611f7b57600080fd5b600484019350612528565b6000809054906101000a900473ffffffffffffffffffffffffffffffffffffffff1673ffffffffffffffffffffffffffffffffffffffff1663882033d160086000601260009054906101000a900473ffffffffffffffffffffffffffffffffffffffff1673ffffffffffffffffffffffffffffffffffffffff1673ffffffffffffffffffffffffffffffffffffffff1681526020019081526020016000206000015460086000601260009054906101000a900473ffffffffffffffffffffffffffffffffffffffff1673ffffffffffffffffffffffffffffffffffffffff1673ffffffffffffffffffffffffffffffffffffffff1681526020019081526020016000206001015460086000600160009054906101000a900473ffffffffffffffffffffffffffffffffffffffff1673ffffffffffffffffffffffffffffffffffffffff1673ffffffffffffffffffffffffffffffffffffffff1681526020019081526020016000206000015460086000600160009054906101000a900473ffffffffffffffffffffffffffffffffffffffff1673ffffffffffffffffffffffffffffffffffffffff1673ffffffffffffffffffffffffffffffffffffffff168152602001908152602001600020600101546040518563ffffffff1660e01b8152600401808581526020018481526020018381526020018281526020019450505050506040805180830381600087803b1580156121a157600080fd5b505af11580156121b5573d6000803e3d6000fd5b505050506040513d60408110156121cb57600080fd5b810190808051906020019092919080519060200190929190505050809250819350505060018760028601815181106121ff57fe5b6020026020010151141561231b576000809054906101000a900473ffffffffffffffffffffffffffffffffffffffff1673ffffffffffffffffffffffffffffffffffffffff1663cde6248383836007878154811061225957fe5b90600052602060002001546007600189018154811061227457fe5b90600052602060002001546040518563ffffffff1660e01b8152600401808581526020018481526020018381526020018281526020019450505050506040805180830381600087803b1580156122c957600080fd5b505af11580156122dd573d6000803e3d6000fd5b505050506040513d60408110156122f357600080fd5b8101908080519060200190929190805190602001909291905050508092508193505050612428565b6000809054906101000a900473ffffffffffffffffffffffffffffffffffffffff1673ffffffffffffffffffffffffffffffffffffffff1663cde6248383836007600288018154811061236a57fe5b90600052602060002001546007600389018154811061238557fe5b90600052602060002001546040518563ffffffff1660e01b8152600401808581526020018481526020018381526020018281526020019450505050506040805180830381600087803b1580156123da57600080fd5b505af11580156123ee573d6000803e3d6000fd5b505050506040513d604081101561240457600080fd5b81019080805190602001909291908051906020019092919050505080925081935050505b6000809054906101000a900473ffffffffffffffffffffffffffffffffffffffff1673ffffffffffffffffffffffffffffffffffffffff1663c30918d188868151811061247157fe5b602002602001015189600188018151811061248857fe5b602002602001015185856040518563ffffffff1660e01b815260040180858152602001848152602001838152602001828152602001945050505050602060405180830381600087803b1580156124dd57600080fd5b505af11580156124f1573d6000803e3d6000fd5b505050506040513d602081101561250757600080fd5b810190808051906020019092919050505061252157600080fd5b6003840193505b6004830192506001600a54901b600a819055508580600101965050611cb7565b600360019054906101000a900460ff1660ff168660ff161461256957600080fd5b600160086000600160009054906101000a900473ffffffffffffffffffffffffffffffffffffffff1673ffffffffffffffffffffffffffffffffffffffff1673ffffffffffffffffffffffffffffffffffffffff16815260200190815260200160002060030160006101000a81548160ff0219169083151502179055506001600060156101000a81548160ff0219169083600581111561260557fe5b02179055505050505050505050565b600080600080600c54600d54600e54601054935093509350935090919293565b60105481565b600060159054906101000a900460ff1681565b600b60009054906101000a900473ffffffffffffffffffffffffffffffffffffffff1673ffffffffffffffffffffffffffffffffffffffff163373ffffffffffffffffffffffffffffffffffffffff16146126a757600080fd5b600d54421180156126b95750600e5442105b806126d05750600360009054906101000a900460ff165b6126d957600080fd5b60008090505b60098054905081101561285857601260009054906101000a900473ffffffffffffffffffffffffffffffffffffffff1673ffffffffffffffffffffffffffffffffffffffff166009828154811061273257fe5b9060005260206000200160009054906101000a900473ffffffffffffffffffffffffffffffffffffffff1673ffffffffffffffffffffffffffffffffffffffff161461284b57600860006009838154811061278957fe5b9060005260206000200160009054906101000a900473ffffffffffffffffffffffffffffffffffffffff1673ffffffffffffffffffffffffffffffffffffffff1673ffffffffffffffffffffffffffffffffffffffff16815260200190815260200160002060030160009054906101000a900460ff1661284a576000601260006101000a81548173ffffffffffffffffffffffffffffffffffffffff021916908373ffffffffffffffffffffffffffffffffffffffff160217905550600080fd5b5b80806001019150506126df565b506005600060156101000a81548160ff0219169083600581111561287857fe5b0217905550565b600d5481565b6000806000806000600860008773ffffffffffffffffffffffffffffffffffffffff1673ffffffffffffffffffffffffffffffffffffffff16815260200190815260200160002060030160029054906101000a900460ff1690506000600860008873ffffffffffffffffffffffffffffffffffffffff1673ffffffffffffffffffffffffffffffffffffffff16815260200190815260200160002060030160019054906101000a900460ff1690506000600f54600980549050101590506000601260009054906101000a900473ffffffffffffffffffffffffffffffffffffffff1673ffffffffffffffffffffffffffffffffffffffff168973ffffffffffffffffffffffffffffffffffffffff16149050838284839750975097509750505050509193509193565b6005808111156129ba57fe5b600060159054906101000a900460ff1660058111156129d557fe5b146129df57600080fd5b601260009054906101000a900473ffffffffffffffffffffffffffffffffffffffff1673ffffffffffffffffffffffffffffffffffffffff163373ffffffffffffffffffffffffffffffffffffffff1614612a3957600080fd5b60105460135403341015612a4c57600080fd5b565b600b60009054906101000a900473ffffffffffffffffffffffffffffffffffffffff1673ffffffffffffffffffffffffffffffffffffffff163373ffffffffffffffffffffffffffffffffffffffff1614612aa857600080fd5b600d5442118015612aba5750600e5442105b80612ad15750600360009054906101000a900460ff165b612ada57600080fd5b60016005811115612ae757fe5b600060159054906101000a900460ff166005811115612b0257fe5b1480612b1a5750600360009054906101000a900460ff165b612b2357600080fd5b6004600360019054906101000a900460ff160260ff16825114612b4557600080fd5b8051825114612b5357600080fd5b60011515600860008573ffffffffffffffffffffffffffffffffffffffff1673ffffffffffffffffffffffffffffffffffffffff16815260200190815260200160002060030160029054906101000a900460ff16151514612bb357600080fd5b82600160006101000a81548173ffffffffffffffffffffffffffffffffffffffff021916908373ffffffffffffffffffffffffffffffffffffffff1602179055504360028190555060008090505b8251811015612d0657806006805490501415612c9a576006838281518110612c2557fe5b602002602001015190806001815401808255809150509060018203906000526020600020016000909192909190915055506007828281518110612c6457fe5b60200260200101519080600181540180825580915050906001820390600052602060002001600090919290919091505550612cf9565b828181518110612ca657fe5b602002602001015160068281548110612cbb57fe5b9060005260206000200181905550818181518110612cd557fe5b602002602001015160078281548110612cea57fe5b90600052602060002001819055505b8080600101915050612c01565b506003600060156101000a81548160ff02191690836005811115612d2657fe5b0217905550505050565b600b60009054906101000a900473ffffffffffffffffffffffffffffffffffffffff1681565b60135481565b601260009054906101000a900473ffffffffffffffffffffffffffffffffffffffff1681565b60045481565b600e5481565b600d5480421080612dab5750600360009054906101000a900460ff165b612e1d576040517f08c379a000000000000000000000000000000000000000000000000000000000815260040180806020018281038252600c8152602001807f4e6f742074696d6520796574000000000000000000000000000000000000000081525060200191505060405180910390fd5b600c5480421180612e3a5750600360009054906101000a900460ff165b612eac576040517f08c379a000000000000000000000000000000000000000000000000000000000815260040180806020018281038252600f8152602001807f54696d652068617320706173736564000000000000000000000000000000000081525060200191505060405180910390fd5b60011515600860003373ffffffffffffffffffffffffffffffffffffffff1673ffffffffffffffffffffffffffffffffffffffff16815260200190815260200160002060030160029054906101000a900460ff16151514612f75576040517f08c379a00000000000000000000000000000000000000000000000000000000081526004018080602001828103825260158152602001807f42696464657220646f6573206e6f74206578697374000000000000000000000081525060200191505060405180910390fd5b82600860003373ffffffffffffffffffffffffffffffffffffffff1673ffffffffffffffffffffffffffffffffffffffff1681526020019081526020016000206002019080519060200190612fcb929190613215565b50505050565b6060600980548060200260200160405190810160405280929190818152602001828054801561305557602002820191906000526020600020905b8160009054906101000a900473ffffffffffffffffffffffffffffffffffffffff1673ffffffffffffffffffffffffffffffffffffffff168152602001906001019080831161300b575b5050505050905090565b600b60009054906101000a900473ffffffffffffffffffffffffffffffffffffffff1673ffffffffffffffffffffffffffffffffffffffff16ff5b6008602052806000526040600020600091509050806000015490806001015490806002018054600181600116156101000203166002900480601f0160208091040260200160405190810160405280929190818152602001828054600181600116156101000203166002900480156131525780601f1061312757610100808354040283529160200191613152565b820191906000526020600020905b81548152906001019060200180831161313557829003601f168201915b5050505050908060030160009054906101000a900460ff16908060030160019054906101000a900460ff16908060030160029054906101000a900460ff16905086565b828054600181600116156101000203166002900490600052602060002090601f016020900481019282601f106131d657805160ff1916838001178555613204565b82800160010185558215613204579182015b828111156132035782518255916020019190600101906131e8565b5b5090506132119190613295565b5090565b828054600181600116156101000203166002900490600052602060002090601f016020900481019282601f1061325657805160ff1916838001178555613284565b82800160010185558215613284579182015b82811115613283578251825591602001919060010190613268565b5b5090506132919190613295565b5090565b6132b791905b808211156132b357600081600090555060010161329b565b5090565b9056fea165627a7a723058203d92f4df6229c691a461b246a40f2bbfda5986a7f9af3379f0a5f81b14f7fcf40029",
  "source": "pragma solidity >0.4.18;\nimport \"./Pedersen.sol\";\ncontract Auction {\n    enum VerificationStates {Init, Challenge,ChallengeDelta, Verify, VerifyDelta, ValidWinner}\n    struct Bidder {\n        uint commitX;\n        uint commitY;\n        string cipher;\n        bool validProofs;\n        bool paidBack;\n        bool existing;\n    }\n    Pedersen pedersen;\n    bool withdrawLock;\n    VerificationStates public states;\n    address private challengedBidder;\n    uint private challengeBlockNumber;\n    bool private testing; //for fast testing without checking time intervals\n    uint8 private K = 10; //number of multiple rounds per ZKP\n    uint public Q = 21888242871839275222246405745257275088696311157297823662689037894645226208583;\n    uint public V = 5472060717959818805561601436314318772174077789324455915672259473661306552145;\n    uint[] commits;\n    uint[] deltaCommits;\n    mapping(address => Bidder) public bidders;\n    address[] public indexs;\n    uint mask =1;\n\n    //Auction Parameters\n    address payable public auctioneerAddress;\n    uint    public bidEndTime;\n    uint    public revealTime;\n    uint    public winnerPaymentTime;\n    uint    public maxBiddersCount;\n    uint    public fairnessFees;\n    string  public auctioneerRSAPublicKey;\n    //these values are set when the auctioneer determines the winner\n    address public winner;\n    uint public highestBid;\n\n    //Constructor = Setting all Parameters and auctioneerAddress as well\n    constructor(uint _bidEndTime, uint _revealTime, uint _winnerPaymentTime, uint _maxBiddersCount,\n     uint _fairnessFees, string memory _auctioneerRSAPublicKey, address pedersenAddress, uint8 k, bool _testing,\n     address payable _auctioneerAddress, uint _auctioneerDeposit )\n     public {\n        require(_auctioneerDeposit >= _fairnessFees, \"Deposit too low\");\n        auctioneerAddress = _auctioneerAddress;\n        bidEndTime = _bidEndTime;\n        revealTime = _revealTime;\n        winnerPaymentTime = _winnerPaymentTime;\n        maxBiddersCount = _maxBiddersCount;\n        fairnessFees = _fairnessFees;\n        auctioneerRSAPublicKey = _auctioneerRSAPublicKey;\n        pedersen = Pedersen(pedersenAddress);\n        K = k;\n        testing = _testing;\n    }\n\n    function BidderData(address account) public view returns(bool, bool, bool, bool) {\n      bool hasBid = bidders[account].existing;\n      bool paidBack = bidders[account].paidBack;\n      bool bidderExceeds = indexs.length>=maxBiddersCount;\n      bool isWinner = account == winner;\n      return(hasBid, bidderExceeds, paidBack, isWinner);\n    }\n\n    function AuctionData() public view returns(uint, uint, uint, uint){\n      return(bidEndTime, revealTime, winnerPaymentTime, fairnessFees);\n    }\n\n    function BiddersAddresses() public view returns(address[] memory){\n      return indexs;\n    }\n\n    function Bid(uint cX, uint cY) public payable\n    onlyBefore(bidEndTime)\n    {\n        require(indexs.length < maxBiddersCount); //available slot\n        require(msg.value >= fairnessFees);  //paying fees\n        require(bidders[msg.sender].existing == false);\n        bidders[msg.sender] = Bidder(cX, cY,\"\", false, false,true);\n        indexs.push(msg.sender);\n    }\n    function Reveal(string memory cipher) public\n    onlyBefore(revealTime)\n    onlyAfter(bidEndTime)\n    {\n        require(bidders[msg.sender].existing == true, \"Bidder does not exist\"); //existing bidder\n        bidders[msg.sender].cipher = cipher;\n    }\n\n    function ClaimWinner(address _winner, uint _bid, uint _r) public challengeByAuctioneer {\n        require(states == VerificationStates.Init);\n        require(bidders[_winner].existing == true); //existing bidder\n        require(_bid < V); //valid bid\n        require(pedersen.Verify(_bid, _r, bidders[_winner].commitX, bidders[_winner].commitY)); //valid open of winner's commit        \n        winner = _winner;\n        highestBid = _bid;\n        states = VerificationStates.Challenge;\n    }\n    function ZKPCommit(address y, uint[] memory _commits, uint[] memory _deltaCommits) public challengeByAuctioneer {\n        require(states == VerificationStates.Challenge || testing);\n        require(_commits.length == K*4);\n        require(_commits.length == _deltaCommits.length);\n        require(bidders[y].existing == true); //existing bidder\n        challengedBidder = y;\n        challengeBlockNumber = block.number;\n        for(uint i = 0; i < _commits.length; i++)\n            if(commits.length == i) {\n                commits.push(_commits[i]);\n                deltaCommits.push(_deltaCommits[i]);\n            } else {\n                commits[i] = _commits[i];\n                deltaCommits[i] = _deltaCommits[i];\n            }\n        states = VerificationStates.Verify;\n    }\n\n    function ZKPVerify(uint[] memory response, uint[] memory deltaResponses) public {\n        require(states == VerificationStates.Verify || states == VerificationStates.VerifyDelta);\n        uint8 count = 0;\n        uint hash = uint(blockhash(challengeBlockNumber));\n        mask = 1;\n        uint i = 0;\n        uint j = 0;\n        uint cX;\n        uint cY;\n        while(i<response.length && j<commits.length) {\n            if(hash&mask == 0) {\n                require((response[i] + response[i+2])%Q==V);\n                require(pedersen.Verify(response[i], response[i+1], commits[j], commits[j+1]));\n                require(pedersen.Verify(response[i+2], response[i+3], commits[j+2], commits[j+3]));\n                i += 4;\n            } else {\n                if(response[i+2] == 1) //z=1\n                    (cX, cY) = pedersen.ecAdd(bidders[challengedBidder].commitX, bidders[challengedBidder].commitY, commits[j], commits[j+1]);\n                else\n                    (cX, cY) = pedersen.ecAdd(bidders[challengedBidder].commitX, bidders[challengedBidder].commitY, commits[j+2], commits[j+3]);\n                require(pedersen.Verify(response[i], response[i+1], cX, cY));\n                i += 3;\n            }\n            j += 4;\n            mask = mask << 1;\n            count++;\n        }\n        require(count==K);\n        count =  0;\n        i = 0;\n        j = 0;\n        while(i<deltaResponses.length && j<deltaCommits.length) {\n            if(hash&mask == 0) {\n                require((deltaResponses[i] + deltaResponses[i+2])%Q==V);\n                require(pedersen.Verify(deltaResponses[i], deltaResponses[i+1], deltaCommits[j], deltaCommits[j+1]));\n                require(pedersen.Verify(deltaResponses[i+2], deltaResponses[i+3], deltaCommits[j+2], deltaCommits[j+3]));\n                i += 4;\n            } else {\n            (cX, cY) = pedersen.CommitDelta(bidders[winner].commitX, bidders[winner].commitY, bidders[challengedBidder].commitX, bidders[challengedBidder].commitY);\n            if(deltaResponses[i+2]==1)\n                (cX, cY) = pedersen.ecAdd(cX,cY, deltaCommits[j], deltaCommits[j+1]);\n            else\n                (cX, cY) = pedersen.ecAdd(cX,cY, deltaCommits[j+2], deltaCommits[j+3]);\n            require(pedersen.Verify(deltaResponses[i],deltaResponses[i+1],cX,cY));\n            i += 3;\n            }\n            j += 4;\n            mask = mask << 1;\n            count++;\n        }\n        require(count==K);\n        bidders[challengedBidder].validProofs = true;\n        states = VerificationStates.Challenge;\n    }\n    function VerifyAll() public challengeByAuctioneer\n    {\n        for (uint i = 0; i<indexs.length; i++)\n                if(indexs[i] != winner)\n                    if(!bidders[indexs[i]].validProofs) {\n                        winner = address(0);\n                        revert();\n                    }\n        states = VerificationStates.ValidWinner;\n    }\n    function Withdraw() public\n    {\n        require(states == VerificationStates.ValidWinner || now > winnerPaymentTime);\n        require(msg.sender != winner);\n        require(bidders[msg.sender].paidBack == false && bidders[msg.sender].existing == true);\n        require(withdrawLock == false);\n        withdrawLock = true;\n        msg.sender.transfer(fairnessFees);\n        bidders[msg.sender].paidBack = true;\n        withdrawLock = false;\n    }\n    function WinnerPay() public payable {\n        require(states == VerificationStates.ValidWinner);\n        require(msg.sender == winner);\n        require(msg.value >= highestBid - fairnessFees);\n    }\n    function Destroy() public {\n        selfdestruct(auctioneerAddress);\n    }\n    modifier challengeByAuctioneer() {\n        require(msg.sender == auctioneerAddress); //by auctioneer only\n        require(now > revealTime && now < winnerPaymentTime || testing); //after reveal and before winner payment\n        _;\n    }\n\n    modifier onlyBefore(uint _time) {require(now < _time || testing, \"Not time yet\"); _;}\n    modifier onlyAfter(uint _time) {require(now > _time || testing, \"Time has passed\"); _;}\n}",
  "sourcePath": "/Users/siska/Desktop/FYP/workspace/auction-truffle-box/contracts/BlindAuctionZKP.sol",
  "compiler": {
    "name": "solc",
    "version": "0.5.8+commit.23d335f2.Emscripten.clang"
  },
  "schemaVersion": "3.0.16",
  "updatedAt": "2019-10-08T00:16:12.955Z",
  "devdoc": {
    "methods": {}
  },
  "userdoc": {
    "methods": {}
  }
}