{
  "contractName": "AuctionFactory",
  "abi": [
    {
      "constant": true,
      "inputs": [],
      "name": "pedersen",
      "outputs": [
        {
          "name": "",
          "type": "address"
        }
      ],
      "payable": false,
      "stateMutability": "view",
      "type": "function"
    },
    {
      "constant": true,
      "inputs": [
        {
          "name": "",
          "type": "uint256"
        }
      ],
      "name": "auctions",
      "outputs": [
        {
          "name": "",
          "type": "address"
        }
      ],
      "payable": false,
      "stateMutability": "view",
      "type": "function"
    },
    {
      "inputs": [],
      "payable": false,
      "stateMutability": "nonpayable",
      "type": "constructor"
    },
    {
      "anonymous": false,
      "inputs": [
        {
          "indexed": false,
          "name": "auctionContract",
          "type": "address"
        },
        {
          "indexed": false,
          "name": "owner",
          "type": "address"
        },
        {
          "indexed": false,
          "name": "numAuctions",
          "type": "uint256"
        },
        {
          "indexed": false,
          "name": "allAuctions",
          "type": "address[]"
        }
      ],
      "name": "AuctionCreated",
      "type": "event"
    },
    {
      "constant": false,
      "inputs": [
        {
          "name": "_name",
          "type": "string"
        },
        {
          "name": "_desc",
          "type": "string"
        },
        {
          "name": "_bidEndTime",
          "type": "uint256"
        },
        {
          "name": "_revealTime",
          "type": "uint256"
        },
        {
          "name": "_winnerPaymentTime",
          "type": "uint256"
        },
        {
          "name": "_maxBiddersCount",
          "type": "uint256"
        },
        {
          "name": "_fairnessFees",
          "type": "uint256"
        },
        {
          "name": "_auctioneerRSAPublicKey",
          "type": "string"
        },
        {
          "name": "k",
          "type": "uint8"
        },
        {
          "name": "_testing",
          "type": "bool"
        }
      ],
      "name": "createAuction",
      "outputs": [],
      "payable": false,
      "stateMutability": "nonpayable",
      "type": "function"
    },
    {
      "constant": true,
      "inputs": [],
      "name": "allAuctions",
      "outputs": [
        {
          "name": "",
          "type": "address[]"
        }
      ],
      "payable": false,
      "stateMutability": "view",
      "type": "function"
    }
  ],
  "bytecode": "0x608060405234801561001057600080fd5b5060405161001d9061007f565b604051809103906000f080158015610039573d6000803e3d6000fd5b50600160006101000a81548173ffffffffffffffffffffffffffffffffffffffff021916908373ffffffffffffffffffffffffffffffffffffffff16021790555061008c565b6104ff80613de883390190565b613d4d8061009b6000396000f3fe608060405234801561001057600080fd5b506004361061004c5760003560e01c80631bbcd4a5146100515780633276d9ff146100b0578063571a26a0146100fa578063d9cdd0bf14610168575b600080fd5b61005961039d565b6040518080602001828103825283818151815260200191508051906020019060200280838360005b8381101561009c578082015181840152602081019050610081565b505050509050019250505060405180910390f35b6100b861042b565b604051808273ffffffffffffffffffffffffffffffffffffffff1673ffffffffffffffffffffffffffffffffffffffff16815260200191505060405180910390f35b6101266004803603602081101561011057600080fd5b8101908080359060200190929190505050610451565b604051808273ffffffffffffffffffffffffffffffffffffffff1673ffffffffffffffffffffffffffffffffffffffff16815260200191505060405180910390f35b61039b600480360361014081101561017f57600080fd5b810190808035906020019064010000000081111561019c57600080fd5b8201836020820111156101ae57600080fd5b803590602001918460018302840111640100000000831117156101d057600080fd5b91908080601f016020809104026020016040519081016040528093929190818152602001838380828437600081840152601f19601f8201169050808301925050505050505091929192908035906020019064010000000081111561023357600080fd5b82018360208201111561024557600080fd5b8035906020019184600183028401116401000000008311171561026757600080fd5b91908080601f016020809104026020016040519081016040528093929190818152602001838380828437600081840152601f19601f8201169050808301925050505050505091929192908035906020019092919080359060200190929190803590602001909291908035906020019092919080359060200190929190803590602001906401000000008111156102fc57600080fd5b82018360208201111561030e57600080fd5b8035906020019184600183028401116401000000008311171561033057600080fd5b91908080601f016020809104026020016040519081016040528093929190818152602001838380828437600081840152601f19601f820116905080830192505050505050509192919290803560ff16906020019092919080351515906020019092919050505061048d565b005b6060600080548060200260200160405190810160405280929190818152602001828054801561042157602002820191906000526020600020905b8160009054906101000a900473ffffffffffffffffffffffffffffffffffffffff1673ffffffffffffffffffffffffffffffffffffffff16815260200190600101908083116103d7575b5050505050905090565b600160009054906101000a900473ffffffffffffffffffffffffffffffffffffffff1681565b6000818154811061045e57fe5b906000526020600020016000915054906101000a900473ffffffffffffffffffffffffffffffffffffffff1681565b60008a8a8a8a8a8a8a8a600160009054906101000a900473ffffffffffffffffffffffffffffffffffffffff168b8b6040516104c890610830565b8080602001806020018c81526020018b81526020018a8152602001898152602001888152602001806020018773ffffffffffffffffffffffffffffffffffffffff1673ffffffffffffffffffffffffffffffffffffffff1681526020018660ff1660ff1681526020018515151515815260200184810384528f818151815260200191508051906020019080838360005b83811015610573578082015181840152602081019050610558565b50505050905090810190601f1680156105a05780820380516001836020036101000a031916815260200191505b5084810383528e818151815260200191508051906020019080838360005b838110156105d95780820151818401526020810190506105be565b50505050905090810190601f1680156106065780820380516001836020036101000a031916815260200191505b50848103825288818151815260200191508051906020019080838360005b8381101561063f578082015181840152602081019050610624565b50505050905090810190601f16801561066c5780820380516001836020036101000a031916815260200191505b509e505050505050505050505050505050604051809103906000f080158015610699573d6000803e3d6000fd5b50905060008190806001815401808255809150509060018203906000526020600020016000909192909190916101000a81548173ffffffffffffffffffffffffffffffffffffffff021916908373ffffffffffffffffffffffffffffffffffffffff160217905550507f0d314047f0d1e39dbbd521f0844c35332083a15926b906540faa68e1a4262b6881336000805490506000604051808573ffffffffffffffffffffffffffffffffffffffff1673ffffffffffffffffffffffffffffffffffffffff1681526020018473ffffffffffffffffffffffffffffffffffffffff1673ffffffffffffffffffffffffffffffffffffffff16815260200183815260200180602001828103825283818154815260200191508054801561081257602002820191906000526020600020905b8160009054906101000a900473ffffffffffffffffffffffffffffffffffffffff1673ffffffffffffffffffffffffffffffffffffffff16815260200190600101908083116107c8575b50509550505050505060405180910390a15050505050505050505050565b6134e48061083e8339019056fe6080604052600a600360016101000a81548160ff021916908360ff1602179055507f30644e72e131a029b85045b68181585d97816a916871ca8d3c208c16d87cfd476004557f0c19139cb84c680a6e14116da060561765e05aa45a1c72a34f082305b61f3f516005556001600a55604051620034e4380380620034e483398101806040526101608110156200009357600080fd5b810190808051640100000000811115620000ac57600080fd5b82810190506020810184811115620000c357600080fd5b8151856001820283011164010000000082111715620000e157600080fd5b50509291906020018051640100000000811115620000fe57600080fd5b828101905060208101848111156200011557600080fd5b81518560018202830111640100000000821117156200013357600080fd5b5050929190602001805190602001909291908051906020019092919080519060200190929190805190602001909291908051906020019092919080516401000000008111156200018257600080fd5b828101905060208101848111156200019957600080fd5b8151856001820283011164010000000082111715620001b757600080fd5b505092919060200180519060200190929190805190602001909291908051906020019092919050505084341015620001ee57600080fd5b8a600b90805190602001906200020692919062000323565b5089600c90805190602001906200021f92919062000323565b5033600d60006101000a81548173ffffffffffffffffffffffffffffffffffffffff021916908373ffffffffffffffffffffffffffffffffffffffff16021790555088600e8190555087600f8190555086601081905550856011819055508460128190555083601390805190602001906200029c92919062000323565b50826000806101000a81548173ffffffffffffffffffffffffffffffffffffffff021916908373ffffffffffffffffffffffffffffffffffffffff16021790555081600360016101000a81548160ff021916908360ff16021790555080600360006101000a81548160ff0219169083151502179055505050505050505050505050620003d2565b828054600181600116156101000203166002900490600052602060002090601f016020900481019282601f106200036657805160ff191683800117855562000397565b8280016001018555821562000397579182015b828111156200039657825182559160200191906001019062000379565b5b509050620003a69190620003aa565b5090565b620003cf91905b80821115620003cb576000816000905550600101620003b1565b5090565b90565b61310280620003e26000396000f3fe6080604052600436106101665760003560e01c806382482f7c116100d1578063d57bde791161008a578063e493ef8c11610064578063e493ef8c146109ee578063eff0811914610a19578063f58fef8e14610a44578063fcc8f79314610a5b57610166565b8063d57bde79146108a4578063dddf915a146108cf578063dfbf53ae1461099757610166565b806382482f7c1461064f57806384ac26d414610688578063ba829d711461069f578063c84e1137146106ca578063c90a7e8d146106d4578063d13a15f31461084d57610166565b80634ba9a927116101235780634ba9a9271461039457806355f150f1146103bf57806357ea89b61461044f57806364876f6e1461046657806369bd5609146104cb57806381806bb51461062457610166565b806306fdde031461016b578063101d4579146101fb578063205db2c1146102765780632200b63e146102a157806325aff27a146102cc57806347a0375b1461035c575b600080fd5b34801561017757600080fd5b50610180610b54565b6040518080602001828103825283818151815260200191508051906020019080838360005b838110156101c05780820151818401526020810190506101a5565b50505050905090810190601f1680156101ed5780820380516001836020036101000a031916815260200191505b509250505060405180910390f35b34801561020757600080fd5b506102346004803603602081101561021e57600080fd5b8101908080359060200190929190505050610bf2565b604051808273ffffffffffffffffffffffffffffffffffffffff1673ffffffffffffffffffffffffffffffffffffffff16815260200191505060405180910390f35b34801561028257600080fd5b5061028b610c2e565b6040518082815260200191505060405180910390f35b3480156102ad57600080fd5b506102b6610c34565b6040518082815260200191505060405180910390f35b3480156102d857600080fd5b506102e1610c3a565b6040518080602001828103825283818151815260200191508051906020019080838360005b83811015610321578082015181840152602081019050610306565b50505050905090810190601f16801561034e5780820380516001836020036101000a031916815260200191505b509250505060405180910390f35b6103926004803603604081101561037257600080fd5b810190808035906020019092919080359060200190929190505050610cd8565b005b3480156103a057600080fd5b506103a9610f03565b6040518082815260200191505060405180910390f35b3480156103cb57600080fd5b506103d4610f09565b6040518080602001828103825283818151815260200191508051906020019080838360005b838110156104145780820151818401526020810190506103f9565b50505050905090810190601f1680156104415780820380516001836020036101000a031916815260200191505b509250505060405180910390f35b34801561045b57600080fd5b50610464610fa7565b005b34801561047257600080fd5b506104c96004803603606081101561048957600080fd5b81019080803573ffffffffffffffffffffffffffffffffffffffff16906020019092919080359060200190929190803590602001909291905050506111f9565b005b3480156104d757600080fd5b50610622600480360360408110156104ee57600080fd5b810190808035906020019064010000000081111561050b57600080fd5b82018360208201111561051d57600080fd5b8035906020019184602083028401116401000000008311171561053f57600080fd5b919080806020026020016040519081016040528093929190818152602001838360200280828437600081840152601f19601f8201169050808301925050505050505091929192908035906020019064010000000081111561059f57600080fd5b8201836020820111156105b157600080fd5b803590602001918460208302840111640100000000831117156105d357600080fd5b919080806020026020016040519081016040528093929190818152602001838360200280828437600081840152601f19601f8201169050808301925050505050505091929192905050506114ea565b005b34801561063057600080fd5b50610639612742565b6040518082815260200191505060405180910390f35b34801561065b57600080fd5b50610664612748565b6040518082600581111561067457fe5b60ff16815260200191505060405180910390f35b34801561069457600080fd5b5061069d61275b565b005b3480156106ab57600080fd5b506106b461298d565b6040518082815260200191505060405180910390f35b6106d2612993565b005b3480156106e057600080fd5b5061084b600480360360608110156106f757600080fd5b81019080803573ffffffffffffffffffffffffffffffffffffffff1690602001909291908035906020019064010000000081111561073457600080fd5b82018360208201111561074657600080fd5b8035906020019184602083028401116401000000008311171561076857600080fd5b919080806020026020016040519081016040528093929190818152602001838360200280828437600081840152601f19601f820116905080830192505050505050509192919290803590602001906401000000008111156107c857600080fd5b8201836020820111156107da57600080fd5b803590602001918460208302840111640100000000831117156107fc57600080fd5b919080806020026020016040519081016040528093929190818152602001838360200280828437600081840152601f19601f820116905080830192505050505050509192919290505050612a33565b005b34801561085957600080fd5b50610862612d15565b604051808273ffffffffffffffffffffffffffffffffffffffff1673ffffffffffffffffffffffffffffffffffffffff16815260200191505060405180910390f35b3480156108b057600080fd5b506108b9612d3b565b6040518082815260200191505060405180910390f35b3480156108db57600080fd5b50610995600480360360208110156108f257600080fd5b810190808035906020019064010000000081111561090f57600080fd5b82018360208201111561092157600080fd5b8035906020019184600183028401116401000000008311171561094357600080fd5b91908080601f016020809104026020016040519081016040528093929190818152602001838380828437600081840152601f19601f820116905080830192505050505050509192919290505050612d41565b005b3480156109a357600080fd5b506109ac612e49565b604051808273ffffffffffffffffffffffffffffffffffffffff1673ffffffffffffffffffffffffffffffffffffffff16815260200191505060405180910390f35b3480156109fa57600080fd5b50610a03612e6f565b6040518082815260200191505060405180910390f35b348015610a2557600080fd5b50610a2e612e75565b6040518082815260200191505060405180910390f35b348015610a5057600080fd5b50610a59612e7b565b005b348015610a6757600080fd5b50610aaa60048036036020811015610a7e57600080fd5b81019080803573ffffffffffffffffffffffffffffffffffffffff169060200190929190505050612eb6565b6040518087815260200186815260200180602001851515151581526020018415151515815260200183151515158152602001828103825286818151815260200191508051906020019080838360005b83811015610b14578082015181840152602081019050610af9565b50505050905090810190601f168015610b415780820380516001836020036101000a031916815260200191505b5097505050505050505060405180910390f35b600b8054600181600116156101000203166002900480601f016020809104026020016040519081016040528092919081815260200182805460018160011615610100020316600290048015610bea5780601f10610bbf57610100808354040283529160200191610bea565b820191906000526020600020905b815481529060010190602001808311610bcd57829003601f168201915b505050505081565b60098181548110610bff57fe5b906000526020600020016000915054906101000a900473ffffffffffffffffffffffffffffffffffffffff1681565b60055481565b60115481565b60138054600181600116156101000203166002900480601f016020809104026020016040519081016040528092919081815260200182805460018160011615610100020316600290048015610cd05780601f10610ca557610100808354040283529160200191610cd0565b820191906000526020600020905b815481529060010190602001808311610cb357829003601f168201915b505050505081565b600e5480421080610cf55750600360009054906101000a900460ff165b610cfe57600080fd5b60115460098054905010610d1157600080fd5b601254341015610d2057600080fd5b60001515600860003373ffffffffffffffffffffffffffffffffffffffff1673ffffffffffffffffffffffffffffffffffffffff16815260200190815260200160002060030160029054906101000a900460ff16151514610d8057600080fd5b6040518060c0016040528084815260200183815260200160405180602001604052806000815250815260200160001515815260200160001515815260200160011515815250600860003373ffffffffffffffffffffffffffffffffffffffff1673ffffffffffffffffffffffffffffffffffffffff16815260200190815260200160002060008201518160000155602082015181600101556040820151816002019080519060200190610e34929190612fb1565b5060608201518160030160006101000a81548160ff02191690831515021790555060808201518160030160016101000a81548160ff02191690831515021790555060a08201518160030160026101000a81548160ff02191690831515021790555090505060093390806001815401808255809150509060018203906000526020600020016000909192909190916101000a81548173ffffffffffffffffffffffffffffffffffffffff021916908373ffffffffffffffffffffffffffffffffffffffff16021790555050505050565b600e5481565b600c8054600181600116156101000203166002900480601f016020809104026020016040519081016040528092919081815260200182805460018160011615610100020316600290048015610f9f5780601f10610f7457610100808354040283529160200191610f9f565b820191906000526020600020905b815481529060010190602001808311610f8257829003601f168201915b505050505081565b600580811115610fb357fe5b600060159054906101000a900460ff166005811115610fce57fe5b1480610fdb575060105442115b610fe457600080fd5b601460009054906101000a900473ffffffffffffffffffffffffffffffffffffffff1673ffffffffffffffffffffffffffffffffffffffff163373ffffffffffffffffffffffffffffffffffffffff16141561103f57600080fd5b60001515600860003373ffffffffffffffffffffffffffffffffffffffff1673ffffffffffffffffffffffffffffffffffffffff16815260200190815260200160002060030160019054906101000a900460ff1615151480156110f5575060011515600860003373ffffffffffffffffffffffffffffffffffffffff1673ffffffffffffffffffffffffffffffffffffffff16815260200190815260200160002060030160029054906101000a900460ff161515145b6110fe57600080fd5b60001515600060149054906101000a900460ff1615151461111e57600080fd5b6001600060146101000a81548160ff0219169083151502179055503373ffffffffffffffffffffffffffffffffffffffff166108fc6012549081150290604051600060405180830381858888f19350505050158015611181573d6000803e3d6000fd5b506001600860003373ffffffffffffffffffffffffffffffffffffffff1673ffffffffffffffffffffffffffffffffffffffff16815260200190815260200160002060030160016101000a81548160ff02191690831515021790555060008060146101000a81548160ff021916908315150217905550565b600d60009054906101000a900473ffffffffffffffffffffffffffffffffffffffff1673ffffffffffffffffffffffffffffffffffffffff163373ffffffffffffffffffffffffffffffffffffffff161461125357600080fd5b600f5442118015611265575060105442105b8061127c5750600360009054906101000a900460ff165b61128557600080fd5b6000600581111561129257fe5b600060159054906101000a900460ff1660058111156112ad57fe5b146112b757600080fd5b60011515600860008573ffffffffffffffffffffffffffffffffffffffff1673ffffffffffffffffffffffffffffffffffffffff16815260200190815260200160002060030160029054906101000a900460ff1615151461131757600080fd5b600554821061132557600080fd5b6000809054906101000a900473ffffffffffffffffffffffffffffffffffffffff1673ffffffffffffffffffffffffffffffffffffffff1663c30918d18383600860008873ffffffffffffffffffffffffffffffffffffffff1673ffffffffffffffffffffffffffffffffffffffff16815260200190815260200160002060000154600860008973ffffffffffffffffffffffffffffffffffffffff1673ffffffffffffffffffffffffffffffffffffffff168152602001908152602001600020600101546040518563ffffffff1660e01b815260040180858152602001848152602001838152602001828152602001945050505050602060405180830381600087803b15801561143557600080fd5b505af1158015611449573d6000803e3d6000fd5b505050506040513d602081101561145f57600080fd5b810190808051906020019092919050505061147957600080fd5b82601460006101000a81548173ffffffffffffffffffffffffffffffffffffffff021916908373ffffffffffffffffffffffffffffffffffffffff160217905550816015819055506001600060156101000a81548160ff021916908360058111156114e057fe5b0217905550505050565b600d60009054906101000a900473ffffffffffffffffffffffffffffffffffffffff1673ffffffffffffffffffffffffffffffffffffffff163373ffffffffffffffffffffffffffffffffffffffff161461154457600080fd5b600f5442118015611556575060105442105b8061156d5750600360009054906101000a900460ff165b61157657600080fd5b6003600581111561158357fe5b600060159054906101000a900460ff16600581111561159e57fe5b14806115cf5750600460058111156115b257fe5b600060159054906101000a900460ff1660058111156115cd57fe5b145b6115d857600080fd5b600080905060006002544060001c90506001600a81905550600080905060008090506000805b875184108015611612575060068054905083105b15611db7576000600a54861614156118cd5760055460045489600287018151811061163957fe5b60200260200101518a878151811061164d57fe5b6020026020010151018161165d57fe5b061461166857600080fd5b6000809054906101000a900473ffffffffffffffffffffffffffffffffffffffff1673ffffffffffffffffffffffffffffffffffffffff1663c30918d18986815181106116b157fe5b60200260200101518a60018801815181106116c857fe5b6020026020010151600687815481106116dd57fe5b9060005260206000200154600660018901815481106116f857fe5b90600052602060002001546040518563ffffffff1660e01b815260040180858152602001848152602001838152602001828152602001945050505050602060405180830381600087803b15801561174e57600080fd5b505af1158015611762573d6000803e3d6000fd5b505050506040513d602081101561177857600080fd5b810190808051906020019092919050505061179257600080fd5b6000809054906101000a900473ffffffffffffffffffffffffffffffffffffffff1673ffffffffffffffffffffffffffffffffffffffff1663c30918d18960028701815181106117de57fe5b60200260200101518a60038801815181106117f557fe5b60200260200101516006600288018154811061180d57fe5b90600052602060002001546006600389018154811061182857fe5b90600052602060002001546040518563ffffffff1660e01b815260040180858152602001848152602001838152602001828152602001945050505050602060405180830381600087803b15801561187e57600080fd5b505af1158015611892573d6000803e3d6000fd5b505050506040513d60208110156118a857600080fd5b81019080805190602001909291905050506118c257600080fd5b600484019350611d97565b60018860028601815181106118de57fe5b60200260200101511415611ac2576000809054906101000a900473ffffffffffffffffffffffffffffffffffffffff1673ffffffffffffffffffffffffffffffffffffffff1663cde6248360086000600160009054906101000a900473ffffffffffffffffffffffffffffffffffffffff1673ffffffffffffffffffffffffffffffffffffffff1673ffffffffffffffffffffffffffffffffffffffff1681526020019081526020016000206000015460086000600160009054906101000a900473ffffffffffffffffffffffffffffffffffffffff1673ffffffffffffffffffffffffffffffffffffffff1673ffffffffffffffffffffffffffffffffffffffff1681526020019081526020016000206001015460068781548110611a0057fe5b906000526020600020015460066001890181548110611a1b57fe5b90600052602060002001546040518563ffffffff1660e01b8152600401808581526020018481526020018381526020018281526020019450505050506040805180830381600087803b158015611a7057600080fd5b505af1158015611a84573d6000803e3d6000fd5b505050506040513d6040811015611a9a57600080fd5b8101908080519060200190929190805190602001909291905050508092508193505050611c97565b6000809054906101000a900473ffffffffffffffffffffffffffffffffffffffff1673ffffffffffffffffffffffffffffffffffffffff1663cde6248360086000600160009054906101000a900473ffffffffffffffffffffffffffffffffffffffff1673ffffffffffffffffffffffffffffffffffffffff1673ffffffffffffffffffffffffffffffffffffffff1681526020019081526020016000206000015460086000600160009054906101000a900473ffffffffffffffffffffffffffffffffffffffff1673ffffffffffffffffffffffffffffffffffffffff1673ffffffffffffffffffffffffffffffffffffffff1681526020019081526020016000206001015460066002880181548110611bd957fe5b906000526020600020015460066003890181548110611bf457fe5b90600052602060002001546040518563ffffffff1660e01b8152600401808581526020018481526020018381526020018281526020019450505050506040805180830381600087803b158015611c4957600080fd5b505af1158015611c5d573d6000803e3d6000fd5b505050506040513d6040811015611c7357600080fd5b81019080805190602001909291908051906020019092919050505080925081935050505b6000809054906101000a900473ffffffffffffffffffffffffffffffffffffffff1673ffffffffffffffffffffffffffffffffffffffff1663c30918d1898681518110611ce057fe5b60200260200101518a6001880181518110611cf757fe5b602002602001015185856040518563ffffffff1660e01b815260040180858152602001848152602001838152602001828152602001945050505050602060405180830381600087803b158015611d4c57600080fd5b505af1158015611d60573d6000803e3d6000fd5b505050506040513d6020811015611d7657600080fd5b8101908080519060200190929190505050611d9057600080fd5b6003840193505b6004830192506001600a54901b600a8190555085806001019650506115fe565b600360019054906101000a900460ff1660ff168660ff1614611dd857600080fd5b6000955060009350600092505b865184108015611df9575060078054905083105b15612676576000600a54861614156120b457600554600454886002870181518110611e2057fe5b6020026020010151898781518110611e3457fe5b60200260200101510181611e4457fe5b0614611e4f57600080fd5b6000809054906101000a900473ffffffffffffffffffffffffffffffffffffffff1673ffffffffffffffffffffffffffffffffffffffff1663c30918d1888681518110611e9857fe5b6020026020010151896001880181518110611eaf57fe5b602002602001015160078781548110611ec457fe5b906000526020600020015460076001890181548110611edf57fe5b90600052602060002001546040518563ffffffff1660e01b815260040180858152602001848152602001838152602001828152602001945050505050602060405180830381600087803b158015611f3557600080fd5b505af1158015611f49573d6000803e3d6000fd5b505050506040513d6020811015611f5f57600080fd5b8101908080519060200190929190505050611f7957600080fd5b6000809054906101000a900473ffffffffffffffffffffffffffffffffffffffff1673ffffffffffffffffffffffffffffffffffffffff1663c30918d1886002870181518110611fc557fe5b6020026020010151896003880181518110611fdc57fe5b602002602001015160076002880181548110611ff457fe5b90600052602060002001546007600389018154811061200f57fe5b90600052602060002001546040518563ffffffff1660e01b815260040180858152602001848152602001838152602001828152602001945050505050602060405180830381600087803b15801561206557600080fd5b505af1158015612079573d6000803e3d6000fd5b505050506040513d602081101561208f57600080fd5b81019080805190602001909291905050506120a957600080fd5b600484019350612656565b6000809054906101000a900473ffffffffffffffffffffffffffffffffffffffff1673ffffffffffffffffffffffffffffffffffffffff1663882033d160086000601460009054906101000a900473ffffffffffffffffffffffffffffffffffffffff1673ffffffffffffffffffffffffffffffffffffffff1673ffffffffffffffffffffffffffffffffffffffff1681526020019081526020016000206000015460086000601460009054906101000a900473ffffffffffffffffffffffffffffffffffffffff1673ffffffffffffffffffffffffffffffffffffffff1673ffffffffffffffffffffffffffffffffffffffff1681526020019081526020016000206001015460086000600160009054906101000a900473ffffffffffffffffffffffffffffffffffffffff1673ffffffffffffffffffffffffffffffffffffffff1673ffffffffffffffffffffffffffffffffffffffff1681526020019081526020016000206000015460086000600160009054906101000a900473ffffffffffffffffffffffffffffffffffffffff1673ffffffffffffffffffffffffffffffffffffffff1673ffffffffffffffffffffffffffffffffffffffff168152602001908152602001600020600101546040518563ffffffff1660e01b8152600401808581526020018481526020018381526020018281526020019450505050506040805180830381600087803b1580156122cf57600080fd5b505af11580156122e3573d6000803e3d6000fd5b505050506040513d60408110156122f957600080fd5b8101908080519060200190929190805190602001909291905050508092508193505050600187600286018151811061232d57fe5b60200260200101511415612449576000809054906101000a900473ffffffffffffffffffffffffffffffffffffffff1673ffffffffffffffffffffffffffffffffffffffff1663cde6248383836007878154811061238757fe5b9060005260206000200154600760018901815481106123a257fe5b90600052602060002001546040518563ffffffff1660e01b8152600401808581526020018481526020018381526020018281526020019450505050506040805180830381600087803b1580156123f757600080fd5b505af115801561240b573d6000803e3d6000fd5b505050506040513d604081101561242157600080fd5b8101908080519060200190929190805190602001909291905050508092508193505050612556565b6000809054906101000a900473ffffffffffffffffffffffffffffffffffffffff1673ffffffffffffffffffffffffffffffffffffffff1663cde6248383836007600288018154811061249857fe5b9060005260206000200154600760038901815481106124b357fe5b90600052602060002001546040518563ffffffff1660e01b8152600401808581526020018481526020018381526020018281526020019450505050506040805180830381600087803b15801561250857600080fd5b505af115801561251c573d6000803e3d6000fd5b505050506040513d604081101561253257600080fd5b81019080805190602001909291908051906020019092919050505080925081935050505b6000809054906101000a900473ffffffffffffffffffffffffffffffffffffffff1673ffffffffffffffffffffffffffffffffffffffff1663c30918d188868151811061259f57fe5b60200260200101518960018801815181106125b657fe5b602002602001015185856040518563ffffffff1660e01b815260040180858152602001848152602001838152602001828152602001945050505050602060405180830381600087803b15801561260b57600080fd5b505af115801561261f573d6000803e3d6000fd5b505050506040513d602081101561263557600080fd5b810190808051906020019092919050505061264f57600080fd5b6003840193505b6004830192506001600a54901b600a819055508580600101965050611de5565b600360019054906101000a900460ff1660ff168660ff161461269757600080fd5b600160086000600160009054906101000a900473ffffffffffffffffffffffffffffffffffffffff1673ffffffffffffffffffffffffffffffffffffffff1673ffffffffffffffffffffffffffffffffffffffff16815260200190815260200160002060030160006101000a81548160ff0219169083151502179055506001600060156101000a81548160ff0219169083600581111561273357fe5b02179055505050505050505050565b60125481565b600060159054906101000a900460ff1681565b600d60009054906101000a900473ffffffffffffffffffffffffffffffffffffffff1673ffffffffffffffffffffffffffffffffffffffff163373ffffffffffffffffffffffffffffffffffffffff16146127b557600080fd5b600f54421180156127c7575060105442105b806127de5750600360009054906101000a900460ff165b6127e757600080fd5b60008090505b60098054905081101561296657601460009054906101000a900473ffffffffffffffffffffffffffffffffffffffff1673ffffffffffffffffffffffffffffffffffffffff166009828154811061284057fe5b9060005260206000200160009054906101000a900473ffffffffffffffffffffffffffffffffffffffff1673ffffffffffffffffffffffffffffffffffffffff161461295957600860006009838154811061289757fe5b9060005260206000200160009054906101000a900473ffffffffffffffffffffffffffffffffffffffff1673ffffffffffffffffffffffffffffffffffffffff1673ffffffffffffffffffffffffffffffffffffffff16815260200190815260200160002060030160009054906101000a900460ff16612958576000601460006101000a81548173ffffffffffffffffffffffffffffffffffffffff021916908373ffffffffffffffffffffffffffffffffffffffff160217905550600080fd5b5b80806001019150506127ed565b506005600060156101000a81548160ff0219169083600581111561298657fe5b0217905550565b600f5481565b60058081111561299f57fe5b600060159054906101000a900460ff1660058111156129ba57fe5b146129c457600080fd5b601460009054906101000a900473ffffffffffffffffffffffffffffffffffffffff1673ffffffffffffffffffffffffffffffffffffffff163373ffffffffffffffffffffffffffffffffffffffff1614612a1e57600080fd5b60125460155403341015612a3157600080fd5b565b600d60009054906101000a900473ffffffffffffffffffffffffffffffffffffffff1673ffffffffffffffffffffffffffffffffffffffff163373ffffffffffffffffffffffffffffffffffffffff1614612a8d57600080fd5b600f5442118015612a9f575060105442105b80612ab65750600360009054906101000a900460ff165b612abf57600080fd5b60016005811115612acc57fe5b600060159054906101000a900460ff166005811115612ae757fe5b1480612aff5750600360009054906101000a900460ff165b612b0857600080fd5b6004600360019054906101000a900460ff160260ff16825114612b2a57600080fd5b8051825114612b3857600080fd5b60011515600860008573ffffffffffffffffffffffffffffffffffffffff1673ffffffffffffffffffffffffffffffffffffffff16815260200190815260200160002060030160029054906101000a900460ff16151514612b9857600080fd5b82600160006101000a81548173ffffffffffffffffffffffffffffffffffffffff021916908373ffffffffffffffffffffffffffffffffffffffff1602179055504360028190555060008090505b8251811015612ceb57806006805490501415612c7f576006838281518110612c0a57fe5b602002602001015190806001815401808255809150509060018203906000526020600020016000909192909190915055506007828281518110612c4957fe5b60200260200101519080600181540180825580915050906001820390600052602060002001600090919290919091505550612cde565b828181518110612c8b57fe5b602002602001015160068281548110612ca057fe5b9060005260206000200181905550818181518110612cba57fe5b602002602001015160078281548110612ccf57fe5b90600052602060002001819055505b8080600101915050612be6565b506003600060156101000a81548160ff02191690836005811115612d0b57fe5b0217905550505050565b600d60009054906101000a900473ffffffffffffffffffffffffffffffffffffffff1681565b60155481565b600f5480421080612d5e5750600360009054906101000a900460ff165b612d6757600080fd5b600e5480421180612d845750600360009054906101000a900460ff165b612d8d57600080fd5b60011515600860003373ffffffffffffffffffffffffffffffffffffffff1673ffffffffffffffffffffffffffffffffffffffff16815260200190815260200160002060030160029054906101000a900460ff16151514612ded57600080fd5b82600860003373ffffffffffffffffffffffffffffffffffffffff1673ffffffffffffffffffffffffffffffffffffffff1681526020019081526020016000206002019080519060200190612e43929190613031565b50505050565b601460009054906101000a900473ffffffffffffffffffffffffffffffffffffffff1681565b60045481565b60105481565b600d60009054906101000a900473ffffffffffffffffffffffffffffffffffffffff1673ffffffffffffffffffffffffffffffffffffffff16ff5b6008602052806000526040600020600091509050806000015490806001015490806002018054600181600116156101000203166002900480601f016020809104026020016040519081016040528092919081815260200182805460018160011615610100020316600290048015612f6e5780601f10612f4357610100808354040283529160200191612f6e565b820191906000526020600020905b815481529060010190602001808311612f5157829003601f168201915b5050505050908060030160009054906101000a900460ff16908060030160019054906101000a900460ff16908060030160029054906101000a900460ff16905086565b828054600181600116156101000203166002900490600052602060002090601f016020900481019282601f10612ff257805160ff1916838001178555613020565b82800160010185558215613020579182015b8281111561301f578251825591602001919060010190613004565b5b50905061302d91906130b1565b5090565b828054600181600116156101000203166002900490600052602060002090601f016020900481019282601f1061307257805160ff19168380011785556130a0565b828001600101855582156130a0579182015b8281111561309f578251825591602001919060010190613084565b5b5090506130ad91906130b1565b5090565b6130d391905b808211156130cf5760008160009055506001016130b7565b5090565b9056fea165627a7a72305820a791207abf91f389b6f093dcc7a243d5e64a9e9b0109cb1cf392bdf94932fff40029a165627a7a72305820230fc37accc7129e18fc578191cb203590857f5f46535ddfeeb61c352f7cd550002960806040527f30644e72e131a029b85045b68181585d97816a916871ca8d3c208c16d87cfd476000557f2bd3e6d0f3b142924f5ca7b49ce5b9d54c4703d7ae5648e61d02268b1a0a9fb76001557f21611ce0a6af85915e2f1d70300909ce2e49dfad4a4619c8390cae66cefdb2046002557f070a8d6a982153cae4be29d434e8faef8a47b274a053f5a4ee2a6c9c13c31e5c6003557f031b8ce914eba3a9ffb989f9cdd5b0f01943074bf4f0f315690ec3cec6981afc6004553480156100c457600080fd5b5061042b806100d46000396000f3fe608060405234801561001057600080fd5b506004361061004c5760003560e01c8063882033d114610051578063acafc535146100b8578063c30918d11461010b578063cde624831461016f575b600080fd5b61009b6004803603608081101561006757600080fd5b81019080803590602001909291908035906020019092919080359060200190929190803590602001909291905050506101d6565b604051808381526020018281526020019250505060405180910390f35b6100ee600480360360408110156100ce57600080fd5b8101908080359060200190929190803590602001909291905050506101fa565b604051808381526020018281526020019250505060405180910390f35b6101556004803603608081101561012157600080fd5b8101908080359060200190929190803590602001909291908035906020019092919080359060200190929190505050610248565b604051808215151515815260200191505060405180910390f35b6101b96004803603608081101561018557600080fd5b8101908080359060200190929190803590602001909291908035906020019092919080359060200190929190505050610275565b604051808381526020018281526020019250505060405180910390f35b6000806101e98686868660005403610275565b809250819350505094509492505050565b60008060008061020f8660015460025461033e565b915091506000806102258760035460045461033e565b9150915061023584848484610275565b8096508197505050505050509250929050565b600080600061025787876101fa565b91509150818514801561026957508084145b92505050949350505050565b6000806000809050606060806040519080825280601f01601f1916602001820160405280156102b35781602001600182028038833980820191505090505b5090506060604080519080825280601f01601f1916602001820160405280156102eb5781602001600182028038833980820191505090505b509050886020830152876040830152866060830152856080830152604060208201608060208501600060065af1925060208101519450604081015193508261033257600080fd5b50505094509492505050565b60008060008090506060806040519080825280601f01601f19166020018201604052801561037b5781602001600182028038833980820191505090505b5090506060604080519080825280601f01601f1916602001820160405280156103b35781602001600182028038833980820191505090505b509050866020830152856040830152876060830152604060208201606060208501600060075af192506020810151945060408101519350826103f457600080fd5b50505093509391505056fea165627a7a7230582035050b0d63544b5d2a4faca02a098543f86fc3fbb9fdaff87fca930c2d50d0b70029",
  "source": "\npragma solidity >0.4.18;\nimport {Auction} from \"./BlindAuctionZKP.sol\";\nimport {Pedersen} from \"./Pedersen.sol\";\n\ncontract AuctionFactory {\n    address[] public auctions;\n    address public pedersen;\n\n    event AuctionCreated(address auctionContract, address owner, uint numAuctions, address[] allAuctions);\n\n    constructor() public {\n      pedersen = address(new Pedersen());\n    }\n\n    function createAuction(string memory _name, string memory _desc, uint _bidEndTime, uint _revealTime,\n    uint _winnerPaymentTime, uint _maxBiddersCount, uint _fairnessFees, string memory _auctioneerRSAPublicKey,\n    uint8 k, bool _testing) public {\n        Auction newAuction = new Auction(_name, _desc, _bidEndTime, _revealTime, _winnerPaymentTime, _maxBiddersCount,\n        _fairnessFees, _auctioneerRSAPublicKey, pedersen, k, _testing);\n        auctions.push(address(newAuction));\n\n        emit AuctionCreated(address(newAuction), msg.sender, auctions.length, auctions);\n    }\n\n    function allAuctions() public view returns (address[] memory) {\n        return auctions;\n    }\n}\n",
  "sourcePath": "/Users/siska/Desktop/FYP/workspace/auction-truffle-box/contracts/AuctionFactory.sol",
  "compiler": {
    "name": "solc",
    "version": "0.5.8+commit.23d335f2.Emscripten.clang"
  },
  "schemaVersion": "3.0.16",
  "updatedAt": "2019-10-05T02:03:35.997Z",
  "devdoc": {
    "methods": {}
  },
  "userdoc": {
    "methods": {}
  }
}