{
  "contractName": "Auction",
  "abi": [
    {
      "constant": true,
      "inputs": [
        {
          "name": "",
          "type": "uint256"
        }
      ],
      "name": "indexs",
      "outputs": [
        {
          "name": "",
          "type": "address"
        }
      ],
      "payable": false,
      "stateMutability": "view",
      "type": "function"
    },
    {
      "constant": true,
      "inputs": [],
      "name": "V",
      "outputs": [
        {
          "name": "",
          "type": "uint256"
        }
      ],
      "payable": false,
      "stateMutability": "view",
      "type": "function"
    },
    {
      "constant": true,
      "inputs": [],
      "name": "maxBiddersCount",
      "outputs": [
        {
          "name": "",
          "type": "uint256"
        }
      ],
      "payable": false,
      "stateMutability": "view",
      "type": "function"
    },
    {
      "constant": true,
      "inputs": [],
      "name": "auctioneerRSAPublicKey",
      "outputs": [
        {
          "name": "",
          "type": "string"
        }
      ],
      "payable": false,
      "stateMutability": "view",
      "type": "function"
    },
    {
      "constant": true,
      "inputs": [],
      "name": "bidEndTime",
      "outputs": [
        {
          "name": "",
          "type": "uint256"
        }
      ],
      "payable": false,
      "stateMutability": "view",
      "type": "function"
    },
    {
      "constant": true,
      "inputs": [],
      "name": "fairnessFees",
      "outputs": [
        {
          "name": "",
          "type": "uint256"
        }
      ],
      "payable": false,
      "stateMutability": "view",
      "type": "function"
    },
    {
      "constant": true,
      "inputs": [],
      "name": "states",
      "outputs": [
        {
          "name": "",
          "type": "uint8"
        }
      ],
      "payable": false,
      "stateMutability": "view",
      "type": "function"
    },
    {
      "constant": true,
      "inputs": [],
      "name": "revealTime",
      "outputs": [
        {
          "name": "",
          "type": "uint256"
        }
      ],
      "payable": false,
      "stateMutability": "view",
      "type": "function"
    },
    {
      "constant": true,
      "inputs": [],
      "name": "auctioneerAddress",
      "outputs": [
        {
          "name": "",
          "type": "address"
        }
      ],
      "payable": false,
      "stateMutability": "view",
      "type": "function"
    },
    {
      "constant": true,
      "inputs": [],
      "name": "highestBid",
      "outputs": [
        {
          "name": "",
          "type": "uint256"
        }
      ],
      "payable": false,
      "stateMutability": "view",
      "type": "function"
    },
    {
      "constant": true,
      "inputs": [],
      "name": "winner",
      "outputs": [
        {
          "name": "",
          "type": "address"
        }
      ],
      "payable": false,
      "stateMutability": "view",
      "type": "function"
    },
    {
      "constant": true,
      "inputs": [],
      "name": "Q",
      "outputs": [
        {
          "name": "",
          "type": "uint256"
        }
      ],
      "payable": false,
      "stateMutability": "view",
      "type": "function"
    },
    {
      "constant": true,
      "inputs": [],
      "name": "winnerPaymentTime",
      "outputs": [
        {
          "name": "",
          "type": "uint256"
        }
      ],
      "payable": false,
      "stateMutability": "view",
      "type": "function"
    },
    {
      "constant": true,
      "inputs": [
        {
          "name": "",
          "type": "address"
        }
      ],
      "name": "bidders",
      "outputs": [
        {
          "name": "commitX",
          "type": "uint256"
        },
        {
          "name": "commitY",
          "type": "uint256"
        },
        {
          "name": "cipher",
          "type": "string"
        },
        {
          "name": "validProofs",
          "type": "bool"
        },
        {
          "name": "paidBack",
          "type": "bool"
        },
        {
          "name": "existing",
          "type": "bool"
        }
      ],
      "payable": false,
      "stateMutability": "view",
      "type": "function"
    },
    {
      "inputs": [
        {
          "name": "_bidEndTime",
          "type": "uint256"
        },
        {
          "name": "_revealTime",
          "type": "uint256"
        },
        {
          "name": "_winnerPaymentTime",
          "type": "uint256"
        },
        {
          "name": "_maxBiddersCount",
          "type": "uint256"
        },
        {
          "name": "_fairnessFees",
          "type": "uint256"
        },
        {
          "name": "_auctioneerRSAPublicKey",
          "type": "string"
        },
        {
          "name": "pedersenAddress",
          "type": "address"
        },
        {
          "name": "k",
          "type": "uint8"
        },
        {
          "name": "_testing",
          "type": "bool"
        },
        {
          "name": "_auctioneerAddress",
          "type": "address"
        },
        {
          "name": "_auctioneerDeposit",
          "type": "uint256"
        }
      ],
      "payable": false,
      "stateMutability": "nonpayable",
      "type": "constructor"
    },
    {
      "constant": true,
      "inputs": [
        {
          "name": "account",
          "type": "address"
        }
      ],
      "name": "BidderData",
      "outputs": [
        {
          "name": "",
          "type": "bool"
        },
        {
          "name": "",
          "type": "bool"
        },
        {
          "name": "",
          "type": "bool"
        },
        {
          "name": "",
          "type": "bool"
        }
      ],
      "payable": false,
      "stateMutability": "view",
      "type": "function"
    },
    {
      "constant": true,
      "inputs": [],
      "name": "AuctionData",
      "outputs": [
        {
          "name": "",
          "type": "uint256"
        },
        {
          "name": "",
          "type": "uint256"
        },
        {
          "name": "",
          "type": "uint256"
        },
        {
          "name": "",
          "type": "uint256"
        }
      ],
      "payable": false,
      "stateMutability": "view",
      "type": "function"
    },
    {
      "constant": false,
      "inputs": [
        {
          "name": "cX",
          "type": "uint256"
        },
        {
          "name": "cY",
          "type": "uint256"
        }
      ],
      "name": "Bid",
      "outputs": [],
      "payable": true,
      "stateMutability": "payable",
      "type": "function"
    },
    {
      "constant": false,
      "inputs": [
        {
          "name": "cipher",
          "type": "string"
        }
      ],
      "name": "Reveal",
      "outputs": [],
      "payable": false,
      "stateMutability": "nonpayable",
      "type": "function"
    },
    {
      "constant": false,
      "inputs": [
        {
          "name": "_winner",
          "type": "address"
        },
        {
          "name": "_bid",
          "type": "uint256"
        },
        {
          "name": "_r",
          "type": "uint256"
        }
      ],
      "name": "ClaimWinner",
      "outputs": [],
      "payable": false,
      "stateMutability": "nonpayable",
      "type": "function"
    },
    {
      "constant": false,
      "inputs": [
        {
          "name": "y",
          "type": "address"
        },
        {
          "name": "_commits",
          "type": "uint256[]"
        },
        {
          "name": "_deltaCommits",
          "type": "uint256[]"
        }
      ],
      "name": "ZKPCommit",
      "outputs": [],
      "payable": false,
      "stateMutability": "nonpayable",
      "type": "function"
    },
    {
      "constant": false,
      "inputs": [
        {
          "name": "response",
          "type": "uint256[]"
        },
        {
          "name": "deltaResponses",
          "type": "uint256[]"
        }
      ],
      "name": "ZKPVerify",
      "outputs": [],
      "payable": false,
      "stateMutability": "nonpayable",
      "type": "function"
    },
    {
      "constant": false,
      "inputs": [],
      "name": "VerifyAll",
      "outputs": [],
      "payable": false,
      "stateMutability": "nonpayable",
      "type": "function"
    },
    {
      "constant": false,
      "inputs": [],
      "name": "Withdraw",
      "outputs": [],
      "payable": false,
      "stateMutability": "nonpayable",
      "type": "function"
    },
    {
      "constant": false,
      "inputs": [],
      "name": "WinnerPay",
      "outputs": [],
      "payable": true,
      "stateMutability": "payable",
      "type": "function"
    },
    {
      "constant": false,
      "inputs": [],
      "name": "Destroy",
      "outputs": [],
      "payable": false,
      "stateMutability": "nonpayable",
      "type": "function"
    }
  ],
  "bytecode": "0x6080604052600a600360016101000a81548160ff021916908360ff1602179055507f30644e72e131a029b85045b68181585d97816a916871ca8d3c208c16d87cfd476004557f0c19139cb84c680a6e14116da060561765e05aa45a1c72a34f082305b61f3f516005556001600a553480156200007a57600080fd5b5060405162003568380380620035688339810180604052610160811015620000a157600080fd5b8101908080519060200190929190805190602001909291908051906020019092919080519060200190929190805190602001909291908051640100000000811115620000ec57600080fd5b828101905060208101848111156200010357600080fd5b81518560018202830111640100000000821117156200012157600080fd5b5050929190602001805190602001909291908051906020019092919080519060200190929190805190602001909291908051906020019092919050505086811015620001d5576040517f08c379a000000000000000000000000000000000000000000000000000000000815260040180806020018281038252600f8152602001807f4465706f73697420746f6f206c6f77000000000000000000000000000000000081525060200191505060405180910390fd5b81600b60006101000a81548173ffffffffffffffffffffffffffffffffffffffff021916908373ffffffffffffffffffffffffffffffffffffffff1602179055508a600c8190555089600d8190555088600e8190555087600f8190555086601081905550856011908051906020019062000251929190620002d8565b50846000806101000a81548173ffffffffffffffffffffffffffffffffffffffff021916908373ffffffffffffffffffffffffffffffffffffffff16021790555083600360016101000a81548160ff021916908360ff16021790555082600360006101000a81548160ff021916908315150217905550505050505050505050505062000387565b828054600181600116156101000203166002900490600052602060002090601f016020900481019282601f106200031b57805160ff19168380011785556200034c565b828001600101855582156200034c579182015b828111156200034b5782518255916020019190600101906200032e565b5b5090506200035b91906200035f565b5090565b6200038491905b808211156200038057600081600090555060010162000366565b5090565b90565b6131d180620003976000396000f3fe6080604052600436106101665760003560e01c806384ac26d4116100d1578063d57bde791161008a578063eff0811911610064578063eff08119146108fb578063f040279f14610926578063f58fef8e146109ee578063fcc8f79314610a0557610166565b8063d57bde791461084e578063dfbf53ae14610879578063e493ef8c146108d057610166565b806384ac26d4146105a8578063ba829d71146105bf578063c6e1ec4e146105ea578063c84e113714610674578063c90a7e8d1461067e578063d13a15f3146107f757610166565b806357ea89b61161012357806357ea89b61461032f57806364876f6e1461034657806369bd5609146103ab5780636bc6ecc91461050457806381806bb51461054457806382482f7c1461056f57610166565b8063101d45791461016b578063205db2c1146101e65780632200b63e1461021157806325aff27a1461023c57806347a0375b146102cc5780634ba9a92714610304575b600080fd5b34801561017757600080fd5b506101a46004803603602081101561018e57600080fd5b8101908080359060200190929190505050610afe565b604051808273ffffffffffffffffffffffffffffffffffffffff1673ffffffffffffffffffffffffffffffffffffffff16815260200191505060405180910390f35b3480156101f257600080fd5b506101fb610b3a565b6040518082815260200191505060405180910390f35b34801561021d57600080fd5b50610226610b40565b6040518082815260200191505060405180910390f35b34801561024857600080fd5b50610251610b46565b6040518080602001828103825283818151815260200191508051906020019080838360005b83811015610291578082015181840152602081019050610276565b50505050905090810190601f1680156102be5780820380516001836020036101000a031916815260200191505b509250505060405180910390f35b610302600480360360408110156102e257600080fd5b810190808035906020019092919080359060200190929190505050610be4565b005b34801561031057600080fd5b50610319610e78565b6040518082815260200191505060405180910390f35b34801561033b57600080fd5b50610344610e7e565b005b34801561035257600080fd5b506103a96004803603606081101561036957600080fd5b81019080803573ffffffffffffffffffffffffffffffffffffffff16906020019092919080359060200190929190803590602001909291905050506110d0565b005b3480156103b757600080fd5b50610502600480360360408110156103ce57600080fd5b81019080803590602001906401000000008111156103eb57600080fd5b8201836020820111156103fd57600080fd5b8035906020019184602083028401116401000000008311171561041f57600080fd5b919080806020026020016040519081016040528093929190818152602001838360200280828437600081840152601f19601f8201169050808301925050505050505091929192908035906020019064010000000081111561047f57600080fd5b82018360208201111561049157600080fd5b803590602001918460208302840111640100000000831117156104b357600080fd5b919080806020026020016040519081016040528093929190818152602001838360200280828437600081840152601f19601f8201169050808301925050505050505091929192905050506113c1565b005b34801561051057600080fd5b5061051961258d565b6040518085815260200184815260200183815260200182815260200194505050505060405180910390f35b34801561055057600080fd5b506105596125ad565b6040518082815260200191505060405180910390f35b34801561057b57600080fd5b506105846125b3565b6040518082600581111561059457fe5b60ff16815260200191505060405180910390f35b3480156105b457600080fd5b506105bd6125c6565b005b3480156105cb57600080fd5b506105d46127f8565b6040518082815260200191505060405180910390f35b3480156105f657600080fd5b506106396004803603602081101561060d57600080fd5b81019080803573ffffffffffffffffffffffffffffffffffffffff1690602001909291905050506127fe565b604051808515151515815260200184151515158152602001831515151581526020018215151515815260200194505050505060405180910390f35b61067c612927565b005b34801561068a57600080fd5b506107f5600480360360608110156106a157600080fd5b81019080803573ffffffffffffffffffffffffffffffffffffffff169060200190929190803590602001906401000000008111156106de57600080fd5b8201836020820111156106f057600080fd5b8035906020019184602083028401116401000000008311171561071257600080fd5b919080806020026020016040519081016040528093929190818152602001838360200280828437600081840152601f19601f8201169050808301925050505050505091929192908035906020019064010000000081111561077257600080fd5b82018360208201111561078457600080fd5b803590602001918460208302840111640100000000831117156107a657600080fd5b919080806020026020016040519081016040528093929190818152602001838360200280828437600081840152601f19601f8201169050808301925050505050505091929192905050506129c7565b005b34801561080357600080fd5b5061080c612ca9565b604051808273ffffffffffffffffffffffffffffffffffffffff1673ffffffffffffffffffffffffffffffffffffffff16815260200191505060405180910390f35b34801561085a57600080fd5b50610863612ccf565b6040518082815260200191505060405180910390f35b34801561088557600080fd5b5061088e612cd5565b604051808273ffffffffffffffffffffffffffffffffffffffff1673ffffffffffffffffffffffffffffffffffffffff16815260200191505060405180910390f35b3480156108dc57600080fd5b506108e5612cfb565b6040518082815260200191505060405180910390f35b34801561090757600080fd5b50610910612d01565b6040518082815260200191505060405180910390f35b34801561093257600080fd5b506109ec6004803603602081101561094957600080fd5b810190808035906020019064010000000081111561096657600080fd5b82018360208201111561097857600080fd5b8035906020019184600183028401116401000000008311171561099a57600080fd5b91908080601f016020809104026020016040519081016040528093929190818152602001838380828437600081840152601f19601f820116905080830192505050505050509192919290505050612d07565b005b3480156109fa57600080fd5b50610a03612f4a565b005b348015610a1157600080fd5b50610a5460048036036020811015610a2857600080fd5b81019080803573ffffffffffffffffffffffffffffffffffffffff169060200190929190505050612f85565b6040518087815260200186815260200180602001851515151581526020018415151515815260200183151515158152602001828103825286818151815260200191508051906020019080838360005b83811015610abe578082015181840152602081019050610aa3565b50505050905090810190601f168015610aeb5780820380516001836020036101000a031916815260200191505b5097505050505050505060405180910390f35b60098181548110610b0b57fe5b906000526020600020016000915054906101000a900473ffffffffffffffffffffffffffffffffffffffff1681565b60055481565b600f5481565b60118054600181600116156101000203166002900480601f016020809104026020016040519081016040528092919081815260200182805460018160011615610100020316600290048015610bdc5780601f10610bb157610100808354040283529160200191610bdc565b820191906000526020600020905b815481529060010190602001808311610bbf57829003601f168201915b505050505081565b600c5480421080610c015750600360009054906101000a900460ff165b610c73576040517f08c379a000000000000000000000000000000000000000000000000000000000815260040180806020018281038252600c8152602001807f4e6f742074696d6520796574000000000000000000000000000000000000000081525060200191505060405180910390fd5b600f5460098054905010610c8657600080fd5b601054341015610c9557600080fd5b60001515600860003373ffffffffffffffffffffffffffffffffffffffff1673ffffffffffffffffffffffffffffffffffffffff16815260200190815260200160002060030160029054906101000a900460ff16151514610cf557600080fd5b6040518060c0016040528084815260200183815260200160405180602001604052806000815250815260200160001515815260200160001515815260200160011515815250600860003373ffffffffffffffffffffffffffffffffffffffff1673ffffffffffffffffffffffffffffffffffffffff16815260200190815260200160002060008201518160000155602082015181600101556040820151816002019080519060200190610da9929190613080565b5060608201518160030160006101000a81548160ff02191690831515021790555060808201518160030160016101000a81548160ff02191690831515021790555060a08201518160030160026101000a81548160ff02191690831515021790555090505060093390806001815401808255809150509060018203906000526020600020016000909192909190916101000a81548173ffffffffffffffffffffffffffffffffffffffff021916908373ffffffffffffffffffffffffffffffffffffffff16021790555050505050565b600c5481565b600580811115610e8a57fe5b600060159054906101000a900460ff166005811115610ea557fe5b1480610eb25750600e5442115b610ebb57600080fd5b601260009054906101000a900473ffffffffffffffffffffffffffffffffffffffff1673ffffffffffffffffffffffffffffffffffffffff163373ffffffffffffffffffffffffffffffffffffffff161415610f1657600080fd5b60001515600860003373ffffffffffffffffffffffffffffffffffffffff1673ffffffffffffffffffffffffffffffffffffffff16815260200190815260200160002060030160019054906101000a900460ff161515148015610fcc575060011515600860003373ffffffffffffffffffffffffffffffffffffffff1673ffffffffffffffffffffffffffffffffffffffff16815260200190815260200160002060030160029054906101000a900460ff161515145b610fd557600080fd5b60001515600060149054906101000a900460ff16151514610ff557600080fd5b6001600060146101000a81548160ff0219169083151502179055503373ffffffffffffffffffffffffffffffffffffffff166108fc6010549081150290604051600060405180830381858888f19350505050158015611058573d6000803e3d6000fd5b506001600860003373ffffffffffffffffffffffffffffffffffffffff1673ffffffffffffffffffffffffffffffffffffffff16815260200190815260200160002060030160016101000a81548160ff02191690831515021790555060008060146101000a81548160ff021916908315150217905550565b600b60009054906101000a900473ffffffffffffffffffffffffffffffffffffffff1673ffffffffffffffffffffffffffffffffffffffff163373ffffffffffffffffffffffffffffffffffffffff161461112a57600080fd5b600d544211801561113c5750600e5442105b806111535750600360009054906101000a900460ff165b61115c57600080fd5b6000600581111561116957fe5b600060159054906101000a900460ff16600581111561118457fe5b1461118e57600080fd5b60011515600860008573ffffffffffffffffffffffffffffffffffffffff1673ffffffffffffffffffffffffffffffffffffffff16815260200190815260200160002060030160029054906101000a900460ff161515146111ee57600080fd5b60055482106111fc57600080fd5b6000809054906101000a900473ffffffffffffffffffffffffffffffffffffffff1673ffffffffffffffffffffffffffffffffffffffff1663c30918d18383600860008873ffffffffffffffffffffffffffffffffffffffff1673ffffffffffffffffffffffffffffffffffffffff16815260200190815260200160002060000154600860008973ffffffffffffffffffffffffffffffffffffffff1673ffffffffffffffffffffffffffffffffffffffff168152602001908152602001600020600101546040518563ffffffff1660e01b815260040180858152602001848152602001838152602001828152602001945050505050602060405180830381600087803b15801561130c57600080fd5b505af1158015611320573d6000803e3d6000fd5b505050506040513d602081101561133657600080fd5b810190808051906020019092919050505061135057600080fd5b82601260006101000a81548173ffffffffffffffffffffffffffffffffffffffff021916908373ffffffffffffffffffffffffffffffffffffffff160217905550816013819055506001600060156101000a81548160ff021916908360058111156113b757fe5b0217905550505050565b600360058111156113ce57fe5b600060159054906101000a900460ff1660058111156113e957fe5b148061141a5750600460058111156113fd57fe5b600060159054906101000a900460ff16600581111561141857fe5b145b61142357600080fd5b600080905060006002544060001c90506001600a81905550600080905060008090506000805b87518410801561145d575060068054905083105b15611c02576000600a54861614156117185760055460045489600287018151811061148457fe5b60200260200101518a878151811061149857fe5b602002602001015101816114a857fe5b06146114b357600080fd5b6000809054906101000a900473ffffffffffffffffffffffffffffffffffffffff1673ffffffffffffffffffffffffffffffffffffffff1663c30918d18986815181106114fc57fe5b60200260200101518a600188018151811061151357fe5b60200260200101516006878154811061152857fe5b90600052602060002001546006600189018154811061154357fe5b90600052602060002001546040518563ffffffff1660e01b815260040180858152602001848152602001838152602001828152602001945050505050602060405180830381600087803b15801561159957600080fd5b505af11580156115ad573d6000803e3d6000fd5b505050506040513d60208110156115c357600080fd5b81019080805190602001909291905050506115dd57600080fd5b6000809054906101000a900473ffffffffffffffffffffffffffffffffffffffff1673ffffffffffffffffffffffffffffffffffffffff1663c30918d189600287018151811061162957fe5b60200260200101518a600388018151811061164057fe5b60200260200101516006600288018154811061165857fe5b90600052602060002001546006600389018154811061167357fe5b90600052602060002001546040518563ffffffff1660e01b815260040180858152602001848152602001838152602001828152602001945050505050602060405180830381600087803b1580156116c957600080fd5b505af11580156116dd573d6000803e3d6000fd5b505050506040513d60208110156116f357600080fd5b810190808051906020019092919050505061170d57600080fd5b600484019350611be2565b600188600286018151811061172957fe5b6020026020010151141561190d576000809054906101000a900473ffffffffffffffffffffffffffffffffffffffff1673ffffffffffffffffffffffffffffffffffffffff1663cde6248360086000600160009054906101000a900473ffffffffffffffffffffffffffffffffffffffff1673ffffffffffffffffffffffffffffffffffffffff1673ffffffffffffffffffffffffffffffffffffffff1681526020019081526020016000206000015460086000600160009054906101000a900473ffffffffffffffffffffffffffffffffffffffff1673ffffffffffffffffffffffffffffffffffffffff1673ffffffffffffffffffffffffffffffffffffffff168152602001908152602001600020600101546006878154811061184b57fe5b90600052602060002001546006600189018154811061186657fe5b90600052602060002001546040518563ffffffff1660e01b8152600401808581526020018481526020018381526020018281526020019450505050506040805180830381600087803b1580156118bb57600080fd5b505af11580156118cf573d6000803e3d6000fd5b505050506040513d60408110156118e557600080fd5b8101908080519060200190929190805190602001909291905050508092508193505050611ae2565b6000809054906101000a900473ffffffffffffffffffffffffffffffffffffffff1673ffffffffffffffffffffffffffffffffffffffff1663cde6248360086000600160009054906101000a900473ffffffffffffffffffffffffffffffffffffffff1673ffffffffffffffffffffffffffffffffffffffff1673ffffffffffffffffffffffffffffffffffffffff1681526020019081526020016000206000015460086000600160009054906101000a900473ffffffffffffffffffffffffffffffffffffffff1673ffffffffffffffffffffffffffffffffffffffff1673ffffffffffffffffffffffffffffffffffffffff1681526020019081526020016000206001015460066002880181548110611a2457fe5b906000526020600020015460066003890181548110611a3f57fe5b90600052602060002001546040518563ffffffff1660e01b8152600401808581526020018481526020018381526020018281526020019450505050506040805180830381600087803b158015611a9457600080fd5b505af1158015611aa8573d6000803e3d6000fd5b505050506040513d6040811015611abe57600080fd5b81019080805190602001909291908051906020019092919050505080925081935050505b6000809054906101000a900473ffffffffffffffffffffffffffffffffffffffff1673ffffffffffffffffffffffffffffffffffffffff1663c30918d1898681518110611b2b57fe5b60200260200101518a6001880181518110611b4257fe5b602002602001015185856040518563ffffffff1660e01b815260040180858152602001848152602001838152602001828152602001945050505050602060405180830381600087803b158015611b9757600080fd5b505af1158015611bab573d6000803e3d6000fd5b505050506040513d6020811015611bc157600080fd5b8101908080519060200190929190505050611bdb57600080fd5b6003840193505b6004830192506001600a54901b600a819055508580600101965050611449565b600360019054906101000a900460ff1660ff168660ff1614611c2357600080fd5b6000955060009350600092505b865184108015611c44575060078054905083105b156124c1576000600a5486161415611eff57600554600454886002870181518110611c6b57fe5b6020026020010151898781518110611c7f57fe5b60200260200101510181611c8f57fe5b0614611c9a57600080fd5b6000809054906101000a900473ffffffffffffffffffffffffffffffffffffffff1673ffffffffffffffffffffffffffffffffffffffff1663c30918d1888681518110611ce357fe5b6020026020010151896001880181518110611cfa57fe5b602002602001015160078781548110611d0f57fe5b906000526020600020015460076001890181548110611d2a57fe5b90600052602060002001546040518563ffffffff1660e01b815260040180858152602001848152602001838152602001828152602001945050505050602060405180830381600087803b158015611d8057600080fd5b505af1158015611d94573d6000803e3d6000fd5b505050506040513d6020811015611daa57600080fd5b8101908080519060200190929190505050611dc457600080fd5b6000809054906101000a900473ffffffffffffffffffffffffffffffffffffffff1673ffffffffffffffffffffffffffffffffffffffff1663c30918d1886002870181518110611e1057fe5b6020026020010151896003880181518110611e2757fe5b602002602001015160076002880181548110611e3f57fe5b906000526020600020015460076003890181548110611e5a57fe5b90600052602060002001546040518563ffffffff1660e01b815260040180858152602001848152602001838152602001828152602001945050505050602060405180830381600087803b158015611eb057600080fd5b505af1158015611ec4573d6000803e3d6000fd5b505050506040513d6020811015611eda57600080fd5b8101908080519060200190929190505050611ef457600080fd5b6004840193506124a1565b6000809054906101000a900473ffffffffffffffffffffffffffffffffffffffff1673ffffffffffffffffffffffffffffffffffffffff1663882033d160086000601260009054906101000a900473ffffffffffffffffffffffffffffffffffffffff1673ffffffffffffffffffffffffffffffffffffffff1673ffffffffffffffffffffffffffffffffffffffff1681526020019081526020016000206000015460086000601260009054906101000a900473ffffffffffffffffffffffffffffffffffffffff1673ffffffffffffffffffffffffffffffffffffffff1673ffffffffffffffffffffffffffffffffffffffff1681526020019081526020016000206001015460086000600160009054906101000a900473ffffffffffffffffffffffffffffffffffffffff1673ffffffffffffffffffffffffffffffffffffffff1673ffffffffffffffffffffffffffffffffffffffff1681526020019081526020016000206000015460086000600160009054906101000a900473ffffffffffffffffffffffffffffffffffffffff1673ffffffffffffffffffffffffffffffffffffffff1673ffffffffffffffffffffffffffffffffffffffff168152602001908152602001600020600101546040518563ffffffff1660e01b8152600401808581526020018481526020018381526020018281526020019450505050506040805180830381600087803b15801561211a57600080fd5b505af115801561212e573d6000803e3d6000fd5b505050506040513d604081101561214457600080fd5b8101908080519060200190929190805190602001909291905050508092508193505050600187600286018151811061217857fe5b60200260200101511415612294576000809054906101000a900473ffffffffffffffffffffffffffffffffffffffff1673ffffffffffffffffffffffffffffffffffffffff1663cde624838383600787815481106121d257fe5b9060005260206000200154600760018901815481106121ed57fe5b90600052602060002001546040518563ffffffff1660e01b8152600401808581526020018481526020018381526020018281526020019450505050506040805180830381600087803b15801561224257600080fd5b505af1158015612256573d6000803e3d6000fd5b505050506040513d604081101561226c57600080fd5b81019080805190602001909291908051906020019092919050505080925081935050506123a1565b6000809054906101000a900473ffffffffffffffffffffffffffffffffffffffff1673ffffffffffffffffffffffffffffffffffffffff1663cde624838383600760028801815481106122e357fe5b9060005260206000200154600760038901815481106122fe57fe5b90600052602060002001546040518563ffffffff1660e01b8152600401808581526020018481526020018381526020018281526020019450505050506040805180830381600087803b15801561235357600080fd5b505af1158015612367573d6000803e3d6000fd5b505050506040513d604081101561237d57600080fd5b81019080805190602001909291908051906020019092919050505080925081935050505b6000809054906101000a900473ffffffffffffffffffffffffffffffffffffffff1673ffffffffffffffffffffffffffffffffffffffff1663c30918d18886815181106123ea57fe5b602002602001015189600188018151811061240157fe5b602002602001015185856040518563ffffffff1660e01b815260040180858152602001848152602001838152602001828152602001945050505050602060405180830381600087803b15801561245657600080fd5b505af115801561246a573d6000803e3d6000fd5b505050506040513d602081101561248057600080fd5b810190808051906020019092919050505061249a57600080fd5b6003840193505b6004830192506001600a54901b600a819055508580600101965050611c30565b600360019054906101000a900460ff1660ff168660ff16146124e257600080fd5b600160086000600160009054906101000a900473ffffffffffffffffffffffffffffffffffffffff1673ffffffffffffffffffffffffffffffffffffffff1673ffffffffffffffffffffffffffffffffffffffff16815260200190815260200160002060030160006101000a81548160ff0219169083151502179055506001600060156101000a81548160ff0219169083600581111561257e57fe5b02179055505050505050505050565b600080600080600c54600d54600e54601054935093509350935090919293565b60105481565b600060159054906101000a900460ff1681565b600b60009054906101000a900473ffffffffffffffffffffffffffffffffffffffff1673ffffffffffffffffffffffffffffffffffffffff163373ffffffffffffffffffffffffffffffffffffffff161461262057600080fd5b600d54421180156126325750600e5442105b806126495750600360009054906101000a900460ff165b61265257600080fd5b60008090505b6009805490508110156127d157601260009054906101000a900473ffffffffffffffffffffffffffffffffffffffff1673ffffffffffffffffffffffffffffffffffffffff16600982815481106126ab57fe5b9060005260206000200160009054906101000a900473ffffffffffffffffffffffffffffffffffffffff1673ffffffffffffffffffffffffffffffffffffffff16146127c457600860006009838154811061270257fe5b9060005260206000200160009054906101000a900473ffffffffffffffffffffffffffffffffffffffff1673ffffffffffffffffffffffffffffffffffffffff1673ffffffffffffffffffffffffffffffffffffffff16815260200190815260200160002060030160009054906101000a900460ff166127c3576000601260006101000a81548173ffffffffffffffffffffffffffffffffffffffff021916908373ffffffffffffffffffffffffffffffffffffffff160217905550600080fd5b5b8080600101915050612658565b506005600060156101000a81548160ff021916908360058111156127f157fe5b0217905550565b600d5481565b6000806000806000600860008773ffffffffffffffffffffffffffffffffffffffff1673ffffffffffffffffffffffffffffffffffffffff16815260200190815260200160002060030160029054906101000a900460ff1690506000600860008873ffffffffffffffffffffffffffffffffffffffff1673ffffffffffffffffffffffffffffffffffffffff16815260200190815260200160002060030160019054906101000a900460ff1690506000600f54600980549050101590506000601260009054906101000a900473ffffffffffffffffffffffffffffffffffffffff1673ffffffffffffffffffffffffffffffffffffffff168973ffffffffffffffffffffffffffffffffffffffff16149050838284839750975097509750505050509193509193565b60058081111561293357fe5b600060159054906101000a900460ff16600581111561294e57fe5b1461295857600080fd5b601260009054906101000a900473ffffffffffffffffffffffffffffffffffffffff1673ffffffffffffffffffffffffffffffffffffffff163373ffffffffffffffffffffffffffffffffffffffff16146129b257600080fd5b601054601354033410156129c557600080fd5b565b600b60009054906101000a900473ffffffffffffffffffffffffffffffffffffffff1673ffffffffffffffffffffffffffffffffffffffff163373ffffffffffffffffffffffffffffffffffffffff1614612a2157600080fd5b600d5442118015612a335750600e5442105b80612a4a5750600360009054906101000a900460ff165b612a5357600080fd5b60016005811115612a6057fe5b600060159054906101000a900460ff166005811115612a7b57fe5b1480612a935750600360009054906101000a900460ff165b612a9c57600080fd5b6004600360019054906101000a900460ff160260ff16825114612abe57600080fd5b8051825114612acc57600080fd5b60011515600860008573ffffffffffffffffffffffffffffffffffffffff1673ffffffffffffffffffffffffffffffffffffffff16815260200190815260200160002060030160029054906101000a900460ff16151514612b2c57600080fd5b82600160006101000a81548173ffffffffffffffffffffffffffffffffffffffff021916908373ffffffffffffffffffffffffffffffffffffffff1602179055504360028190555060008090505b8251811015612c7f57806006805490501415612c13576006838281518110612b9e57fe5b602002602001015190806001815401808255809150509060018203906000526020600020016000909192909190915055506007828281518110612bdd57fe5b60200260200101519080600181540180825580915050906001820390600052602060002001600090919290919091505550612c72565b828181518110612c1f57fe5b602002602001015160068281548110612c3457fe5b9060005260206000200181905550818181518110612c4e57fe5b602002602001015160078281548110612c6357fe5b90600052602060002001819055505b8080600101915050612b7a565b506003600060156101000a81548160ff02191690836005811115612c9f57fe5b0217905550505050565b600b60009054906101000a900473ffffffffffffffffffffffffffffffffffffffff1681565b60135481565b601260009054906101000a900473ffffffffffffffffffffffffffffffffffffffff1681565b60045481565b600e5481565b600d5480421080612d245750600360009054906101000a900460ff165b612d96576040517f08c379a000000000000000000000000000000000000000000000000000000000815260040180806020018281038252600c8152602001807f4e6f742074696d6520796574000000000000000000000000000000000000000081525060200191505060405180910390fd5b600c5480421180612db35750600360009054906101000a900460ff165b612e25576040517f08c379a000000000000000000000000000000000000000000000000000000000815260040180806020018281038252600f8152602001807f54696d652068617320706173736564000000000000000000000000000000000081525060200191505060405180910390fd5b60011515600860003373ffffffffffffffffffffffffffffffffffffffff1673ffffffffffffffffffffffffffffffffffffffff16815260200190815260200160002060030160029054906101000a900460ff16151514612eee576040517f08c379a00000000000000000000000000000000000000000000000000000000081526004018080602001828103825260158152602001807f42696464657220646f6573206e6f74206578697374000000000000000000000081525060200191505060405180910390fd5b82600860003373ffffffffffffffffffffffffffffffffffffffff1673ffffffffffffffffffffffffffffffffffffffff1681526020019081526020016000206002019080519060200190612f44929190613100565b50505050565b600b60009054906101000a900473ffffffffffffffffffffffffffffffffffffffff1673ffffffffffffffffffffffffffffffffffffffff16ff5b6008602052806000526040600020600091509050806000015490806001015490806002018054600181600116156101000203166002900480601f01602080910402602001604051908101604052809291908181526020018280546001816001161561010002031660029004801561303d5780601f106130125761010080835404028352916020019161303d565b820191906000526020600020905b81548152906001019060200180831161302057829003601f168201915b5050505050908060030160009054906101000a900460ff16908060030160019054906101000a900460ff16908060030160029054906101000a900460ff16905086565b828054600181600116156101000203166002900490600052602060002090601f016020900481019282601f106130c157805160ff19168380011785556130ef565b828001600101855582156130ef579182015b828111156130ee5782518255916020019190600101906130d3565b5b5090506130fc9190613180565b5090565b828054600181600116156101000203166002900490600052602060002090601f016020900481019282601f1061314157805160ff191683800117855561316f565b8280016001018555821561316f579182015b8281111561316e578251825591602001919060010190613153565b5b50905061317c9190613180565b5090565b6131a291905b8082111561319e576000816000905550600101613186565b5090565b9056fea165627a7a72305820b671d40853ca3e347c25c0d747faef6bebae2b4c001f53f410bccb11498a8d110029",
  "source": "pragma solidity >0.4.18;\nimport \"./Pedersen.sol\";\ncontract Auction {\n    enum VerificationStates {Init, Challenge,ChallengeDelta, Verify, VerifyDelta, ValidWinner}\n    struct Bidder {\n        uint commitX;\n        uint commitY;\n        string cipher;\n        bool validProofs;\n        bool paidBack;\n        bool existing;\n    }\n    Pedersen pedersen;\n    bool withdrawLock;\n    VerificationStates public states;\n    address private challengedBidder;\n    uint private challengeBlockNumber;\n    bool private testing; //for fast testing without checking time intervals\n    uint8 private K = 10; //number of multiple rounds per ZKP\n    uint public Q = 21888242871839275222246405745257275088696311157297823662689037894645226208583;\n    uint public V = 5472060717959818805561601436314318772174077789324455915672259473661306552145;\n    uint[] commits;\n    uint[] deltaCommits;\n    mapping(address => Bidder) public bidders;\n    address[] public indexs;\n    uint mask =1;\n\n    //Auction Parameters\n    address payable public auctioneerAddress;\n    uint    public bidEndTime;\n    uint    public revealTime;\n    uint    public winnerPaymentTime;\n    uint    public maxBiddersCount;\n    uint    public fairnessFees;\n    string  public auctioneerRSAPublicKey;\n    //these values are set when the auctioneer determines the winner\n    address public winner;\n    uint public highestBid;\n\n    //Constructor = Setting all Parameters and auctioneerAddress as well\n    constructor(uint _bidEndTime, uint _revealTime, uint _winnerPaymentTime, uint _maxBiddersCount,\n     uint _fairnessFees, string memory _auctioneerRSAPublicKey, address pedersenAddress, uint8 k, bool _testing,\n     address payable _auctioneerAddress, uint _auctioneerDeposit )\n     public {\n        require(_auctioneerDeposit >= _fairnessFees, \"Deposit too low\");\n        auctioneerAddress = _auctioneerAddress;\n        bidEndTime = _bidEndTime;\n        revealTime = _revealTime;\n        winnerPaymentTime = _winnerPaymentTime;\n        maxBiddersCount = _maxBiddersCount;\n        fairnessFees = _fairnessFees;\n        auctioneerRSAPublicKey = _auctioneerRSAPublicKey;\n        pedersen = Pedersen(pedersenAddress);\n        K = k;\n        testing = _testing;\n    }\n\n    function BidderData(address account) public view returns(bool, bool, bool, bool) {\n      bool hasBid = bidders[account].existing;\n      bool paidBack = bidders[account].paidBack;\n      bool bidderExceeds = indexs.length>=maxBiddersCount;\n      bool isWinner = account == winner;\n      return(hasBid, bidderExceeds, paidBack, isWinner);\n    }\n\n    function AuctionData() public view returns(uint, uint, uint, uint){\n      return(bidEndTime, revealTime, winnerPaymentTime, fairnessFees);\n    }\n\n    function Bid(uint cX, uint cY) public payable\n    onlyBefore(bidEndTime)\n    {\n        require(indexs.length < maxBiddersCount); //available slot\n        require(msg.value >= fairnessFees);  //paying fees\n        require(bidders[msg.sender].existing == false);\n        bidders[msg.sender] = Bidder(cX, cY,\"\", false, false,true);\n        indexs.push(msg.sender);\n    }\n    function Reveal(string memory cipher) public\n    onlyBefore(revealTime)\n    onlyAfter(bidEndTime)\n    {\n        require(bidders[msg.sender].existing == true, \"Bidder does not exist\"); //existing bidder\n        bidders[msg.sender].cipher = cipher;\n    }\n\n    function ClaimWinner(address _winner, uint _bid, uint _r) public challengeByAuctioneer {\n        require(states == VerificationStates.Init);\n        require(bidders[_winner].existing == true); //existing bidder\n        require(_bid < V); //valid bid\n        require(pedersen.Verify(_bid, _r, bidders[_winner].commitX, bidders[_winner].commitY)); //valid open of winner's commit        \n        winner = _winner;\n        highestBid = _bid;\n        states = VerificationStates.Challenge;\n    }\n    function ZKPCommit(address y, uint[] memory _commits, uint[] memory _deltaCommits) public challengeByAuctioneer {\n        require(states == VerificationStates.Challenge || testing);\n        require(_commits.length == K*4);\n        require(_commits.length == _deltaCommits.length);\n        require(bidders[y].existing == true); //existing bidder\n        challengedBidder = y;\n        challengeBlockNumber = block.number;\n        for(uint i = 0; i < _commits.length; i++)\n            if(commits.length == i) {\n                commits.push(_commits[i]);\n                deltaCommits.push(_deltaCommits[i]);\n            } else {\n                commits[i] = _commits[i];\n                deltaCommits[i] = _deltaCommits[i];\n            }\n        states = VerificationStates.Verify;\n    }\n\n    function ZKPVerify(uint[] memory response, uint[] memory deltaResponses) public {\n        require(states == VerificationStates.Verify || states == VerificationStates.VerifyDelta);\n        uint8 count = 0;\n        uint hash = uint(blockhash(challengeBlockNumber));\n        mask = 1;\n        uint i = 0;\n        uint j = 0;\n        uint cX;\n        uint cY;\n        while(i<response.length && j<commits.length) {\n            if(hash&mask == 0) {\n                require((response[i] + response[i+2])%Q==V);\n                require(pedersen.Verify(response[i], response[i+1], commits[j], commits[j+1]));\n                require(pedersen.Verify(response[i+2], response[i+3], commits[j+2], commits[j+3]));\n                i += 4;\n            } else {\n                if(response[i+2] == 1) //z=1\n                    (cX, cY) = pedersen.ecAdd(bidders[challengedBidder].commitX, bidders[challengedBidder].commitY, commits[j], commits[j+1]);\n                else\n                    (cX, cY) = pedersen.ecAdd(bidders[challengedBidder].commitX, bidders[challengedBidder].commitY, commits[j+2], commits[j+3]);\n                require(pedersen.Verify(response[i], response[i+1], cX, cY));\n                i += 3;\n            }\n            j += 4;\n            mask = mask << 1;\n            count++;\n        }\n        require(count==K);\n        count =  0;\n        i = 0;\n        j = 0;\n        while(i<deltaResponses.length && j<deltaCommits.length) {\n            if(hash&mask == 0) {\n                require((deltaResponses[i] + deltaResponses[i+2])%Q==V);\n                require(pedersen.Verify(deltaResponses[i], deltaResponses[i+1], deltaCommits[j], deltaCommits[j+1]));\n                require(pedersen.Verify(deltaResponses[i+2], deltaResponses[i+3], deltaCommits[j+2], deltaCommits[j+3]));\n                i += 4;\n            } else {\n            (cX, cY) = pedersen.CommitDelta(bidders[winner].commitX, bidders[winner].commitY, bidders[challengedBidder].commitX, bidders[challengedBidder].commitY);\n            if(deltaResponses[i+2]==1)\n                (cX, cY) = pedersen.ecAdd(cX,cY, deltaCommits[j], deltaCommits[j+1]);\n            else\n                (cX, cY) = pedersen.ecAdd(cX,cY, deltaCommits[j+2], deltaCommits[j+3]);\n            require(pedersen.Verify(deltaResponses[i],deltaResponses[i+1],cX,cY));\n            i += 3;\n            }\n            j += 4;\n            mask = mask << 1;\n            count++;\n        }\n        require(count==K);\n        bidders[challengedBidder].validProofs = true;\n        states = VerificationStates.Challenge;\n    }\n    function VerifyAll() public challengeByAuctioneer\n    {\n        for (uint i = 0; i<indexs.length; i++)\n                if(indexs[i] != winner)\n                    if(!bidders[indexs[i]].validProofs) {\n                        winner = address(0);\n                        revert();\n                    }\n        states = VerificationStates.ValidWinner;\n    }\n    function Withdraw() public\n    {\n        require(states == VerificationStates.ValidWinner || now > winnerPaymentTime);\n        require(msg.sender != winner);\n        require(bidders[msg.sender].paidBack == false && bidders[msg.sender].existing == true);\n        require(withdrawLock == false);\n        withdrawLock = true;\n        msg.sender.transfer(fairnessFees);\n        bidders[msg.sender].paidBack = true;\n        withdrawLock = false;\n    }\n    function WinnerPay() public payable {\n        require(states == VerificationStates.ValidWinner);\n        require(msg.sender == winner);\n        require(msg.value >= highestBid - fairnessFees);\n    }\n    function Destroy() public {\n        selfdestruct(auctioneerAddress);\n    }\n    modifier challengeByAuctioneer() {\n        require(msg.sender == auctioneerAddress); //by auctioneer only\n        require(now > revealTime && now < winnerPaymentTime || testing); //after reveal and before winner payment\n        _;\n    }\n\n    modifier onlyBefore(uint _time) {require(now < _time || testing, \"Not time yet\"); _;}\n    modifier onlyAfter(uint _time) {require(now > _time || testing, \"Time has passed\"); _;}\n}",
  "sourcePath": "/Users/siska/Desktop/FYP/workspace/auction-truffle-box/contracts/BlindAuctionZKP.sol",
  "compiler": {
    "name": "solc",
    "version": "0.5.8+commit.23d335f2.Emscripten.clang"
  },
  "schemaVersion": "3.0.16",
  "updatedAt": "2019-10-07T23:16:31.550Z",
  "devdoc": {
    "methods": {}
  },
  "userdoc": {
    "methods": {}
  }
}