{
  "contractName": "AuctionFactory",
  "abi": [
    {
      "constant": true,
      "inputs": [
        {
          "name": "",
          "type": "uint256"
        }
      ],
      "name": "auctionsAddresses",
      "outputs": [
        {
          "name": "",
          "type": "address"
        }
      ],
      "payable": false,
      "stateMutability": "view",
      "type": "function"
    },
    {
      "constant": true,
      "inputs": [],
      "name": "pedersen",
      "outputs": [
        {
          "name": "",
          "type": "address"
        }
      ],
      "payable": false,
      "stateMutability": "view",
      "type": "function"
    },
    {
      "inputs": [],
      "payable": false,
      "stateMutability": "nonpayable",
      "type": "constructor"
    },
    {
      "anonymous": false,
      "inputs": [
        {
          "indexed": false,
          "name": "auctionContract",
          "type": "address"
        },
        {
          "indexed": false,
          "name": "owner",
          "type": "address"
        },
        {
          "indexed": false,
          "name": "numAuctions",
          "type": "uint256"
        },
        {
          "indexed": false,
          "name": "allAuctions",
          "type": "address[]"
        }
      ],
      "name": "AuctionCreated",
      "type": "event"
    },
    {
      "constant": false,
      "inputs": [
        {
          "name": "_name",
          "type": "string"
        },
        {
          "name": "_desc",
          "type": "string"
        },
        {
          "name": "_bidEndTime",
          "type": "uint256"
        },
        {
          "name": "_revealTime",
          "type": "uint256"
        },
        {
          "name": "_winnerPaymentTime",
          "type": "uint256"
        },
        {
          "name": "_maxBiddersCount",
          "type": "uint256"
        },
        {
          "name": "_fairnessFees",
          "type": "uint256"
        },
        {
          "name": "_auctioneerRSAPublicKey",
          "type": "string"
        },
        {
          "name": "NFTokenAddress",
          "type": "address"
        }
      ],
      "name": "createAuction",
      "outputs": [
        {
          "name": "",
          "type": "address"
        }
      ],
      "payable": true,
      "stateMutability": "payable",
      "type": "function"
    },
    {
      "constant": true,
      "inputs": [],
      "name": "allAuctions",
      "outputs": [
        {
          "name": "",
          "type": "address[]"
        }
      ],
      "payable": false,
      "stateMutability": "view",
      "type": "function"
    },
    {
      "constant": true,
      "inputs": [
        {
          "name": "_address",
          "type": "address"
        }
      ],
      "name": "getAuctionData",
      "outputs": [
        {
          "name": "",
          "type": "string"
        },
        {
          "name": "",
          "type": "string"
        }
      ],
      "payable": false,
      "stateMutability": "view",
      "type": "function"
    }
  ],
  "bytecode": "0x608060405234801561001057600080fd5b5060405161001d9061007f565b604051809103906000f080158015610039573d6000803e3d6000fd5b50600260006101000a81548173ffffffffffffffffffffffffffffffffffffffff021916908373ffffffffffffffffffffffffffffffffffffffff16021790555061008c565b6104ff8061590b83390190565b6158708061009b6000396000f3fe60806040526004361061004a5760003560e01c8063129549041461004f5780631bbcd4a5146100ca5780632415c4ab146101365780633276d9ff146103b257806364bcbc3114610409575b600080fd5b34801561005b57600080fd5b506100886004803603602081101561007257600080fd5b810190808035906020019092919050505061053f565b604051808273ffffffffffffffffffffffffffffffffffffffff1673ffffffffffffffffffffffffffffffffffffffff16815260200191505060405180910390f35b3480156100d657600080fd5b506100df61057b565b6040518080602001828103825283818151815260200191508051906020019060200280838360005b83811015610122578082015181840152602081019050610107565b505050509050019250505060405180910390f35b610370600480360361012081101561014d57600080fd5b810190808035906020019064010000000081111561016a57600080fd5b82018360208201111561017c57600080fd5b8035906020019184600183028401116401000000008311171561019e57600080fd5b91908080601f016020809104026020016040519081016040528093929190818152602001838380828437600081840152601f19601f8201169050808301925050505050505091929192908035906020019064010000000081111561020157600080fd5b82018360208201111561021357600080fd5b8035906020019184600183028401116401000000008311171561023557600080fd5b91908080601f016020809104026020016040519081016040528093929190818152602001838380828437600081840152601f19601f8201169050808301925050505050505091929192908035906020019092919080359060200190929190803590602001909291908035906020019092919080359060200190929190803590602001906401000000008111156102ca57600080fd5b8201836020820111156102dc57600080fd5b803590602001918460018302840111640100000000831117156102fe57600080fd5b91908080601f016020809104026020016040519081016040528093929190818152602001838380828437600081840152601f19601f820116905080830192505050505050509192919290803573ffffffffffffffffffffffffffffffffffffffff169060200190929190505050610609565b604051808273ffffffffffffffffffffffffffffffffffffffff1673ffffffffffffffffffffffffffffffffffffffff16815260200191505060405180910390f35b3480156103be57600080fd5b506103c7610a8c565b604051808273ffffffffffffffffffffffffffffffffffffffff1673ffffffffffffffffffffffffffffffffffffffff16815260200191505060405180910390f35b34801561041557600080fd5b506104586004803603602081101561042c57600080fd5b81019080803573ffffffffffffffffffffffffffffffffffffffff169060200190929190505050610ab2565b604051808060200180602001838103835285818151815260200191508051906020019080838360005b8381101561049c578082015181840152602081019050610481565b50505050905090810190601f1680156104c95780820380516001836020036101000a031916815260200191505b50838103825284818151815260200191508051906020019080838360005b838110156105025780820151818401526020810190506104e7565b50505050905090810190601f16801561052f5780820380516001836020036101000a031916815260200191505b5094505050505060405180910390f35b6000818154811061054c57fe5b906000526020600020016000915054906101000a900473ffffffffffffffffffffffffffffffffffffffff1681565b606060008054806020026020016040519081016040528092919081815260200182805480156105ff57602002820191906000526020600020905b8160009054906101000a900473ffffffffffffffffffffffffffffffffffffffff1673ffffffffffffffffffffffffffffffffffffffff16815260200190600101908083116105b5575b5050505050905090565b6000833411610680576040517f08c379a00000000000000000000000000000000000000000000000000000000081526004018080602001828103825260128152602001807f4465706f73697420697320746f6f206c6f77000000000000000000000000000081525060200191505060405180910390fd5b6000888888888888600260009054906101000a900473ffffffffffffffffffffffffffffffffffffffff1689336040516106b990610c7a565b808a8152602001898152602001888152602001878152602001868152602001806020018573ffffffffffffffffffffffffffffffffffffffff1673ffffffffffffffffffffffffffffffffffffffff1681526020018473ffffffffffffffffffffffffffffffffffffffff1673ffffffffffffffffffffffffffffffffffffffff1681526020018373ffffffffffffffffffffffffffffffffffffffff1673ffffffffffffffffffffffffffffffffffffffff168152602001828103825286818151815260200191508051906020019080838360005b838110156107aa57808201518184015260208101905061078f565b50505050905090810190601f1680156107d75780820380516001836020036101000a031916815260200191505b509a5050505050505050505050604051809103906000f080158015610800573d6000803e3d6000fd5b50905060008190806001815401808255809150509060018203906000526020600020016000909192909190916101000a81548173ffffffffffffffffffffffffffffffffffffffff021916908373ffffffffffffffffffffffffffffffffffffffff1602179055505060405180606001604052808c81526020018b81526020018273ffffffffffffffffffffffffffffffffffffffff16815250600160008373ffffffffffffffffffffffffffffffffffffffff1673ffffffffffffffffffffffffffffffffffffffff16815260200190815260200160002060008201518160000190805190602001906108f5929190610c88565b506020820151816001019080519060200190610912929190610c88565b5060408201518160020160006101000a81548173ffffffffffffffffffffffffffffffffffffffff021916908373ffffffffffffffffffffffffffffffffffffffff1602179055509050507f0d314047f0d1e39dbbd521f0844c35332083a15926b906540faa68e1a4262b6881336000805490506000604051808573ffffffffffffffffffffffffffffffffffffffff1673ffffffffffffffffffffffffffffffffffffffff1681526020018473ffffffffffffffffffffffffffffffffffffffff1673ffffffffffffffffffffffffffffffffffffffff168152602001838152602001806020018281038252838181548152602001915080548015610a6d57602002820191906000526020600020905b8160009054906101000a900473ffffffffffffffffffffffffffffffffffffffff1673ffffffffffffffffffffffffffffffffffffffff1681526020019060010190808311610a23575b50509550505050505060405180910390a1509998505050505050505050565b600260009054906101000a900473ffffffffffffffffffffffffffffffffffffffff1681565b606080600160008473ffffffffffffffffffffffffffffffffffffffff1673ffffffffffffffffffffffffffffffffffffffff168152602001908152602001600020600001600160008573ffffffffffffffffffffffffffffffffffffffff1673ffffffffffffffffffffffffffffffffffffffff168152602001908152602001600020600101818054600181600116156101000203166002900480601f016020809104026020016040519081016040528092919081815260200182805460018160011615610100020316600290048015610bce5780601f10610ba357610100808354040283529160200191610bce565b820191906000526020600020905b815481529060010190602001808311610bb157829003601f168201915b50505050509150808054600181600116156101000203166002900480601f016020809104026020016040519081016040528092919081815260200182805460018160011615610100020316600290048015610c6a5780601f10610c3f57610100808354040283529160200191610c6a565b820191906000526020600020905b815481529060010190602001808311610c4d57829003601f168201915b5050505050905091509150915091565b614b178062000d2e83390190565b828054600181600116156101000203166002900490600052602060002090601f016020900481019282601f10610cc957805160ff1916838001178555610cf7565b82800160010185558215610cf7579182015b82811115610cf6578251825591602001919060010190610cdb565b5b509050610d049190610d08565b5090565b610d2a91905b80821115610d26576000816000905550600101610d0e565b5090565b9056fe60806040526001600460006101000a81548160ff021916908315150217905550600a600460016101000a81548160ff021916908360ff1602179055507f30644e72e131a029b85045b68181585d97816a916871ca8d3c208c16d87cfd476005557f0c19139cb84c680a6e14116da060561765e05aa45a1c72a34f082305b61f3f516006556001600b553480156200009557600080fd5b5060405162004b1738038062004b178339810180604052610120811015620000bc57600080fd5b81019080805190602001909291908051906020019092919080519060200190929190805190602001909291908051906020019092919080516401000000008111156200010757600080fd5b828101905060208101848111156200011e57600080fd5b81518560018202830111640100000000821117156200013c57600080fd5b505092919060200180519060200190929190805190602001909291908051906020019092919050505080600c60006101000a81548173ffffffffffffffffffffffffffffffffffffffff021916908373ffffffffffffffffffffffffffffffffffffffff16021790555088600d8190555087600e8190555086600f8190555085601081905550846011819055508360129080519060200190620001e192919062000272565b50826000806101000a81548173ffffffffffffffffffffffffffffffffffffffff021916908373ffffffffffffffffffffffffffffffffffffffff16021790555081600160006101000a81548173ffffffffffffffffffffffffffffffffffffffff021916908373ffffffffffffffffffffffffffffffffffffffff16021790555050505050505050505062000321565b828054600181600116156101000203166002900490600052602060002090601f016020900481019282601f10620002b557805160ff1916838001178555620002e6565b82800160010185558215620002e6579182015b82811115620002e5578251825591602001919060010190620002c8565b5b509050620002f59190620002f9565b5090565b6200031e91905b808211156200031a57600081600090555060010162000300565b5090565b90565b6147e680620003316000396000f3fe60806040526004361061019c5760003560e01c806384ac26d4116100ec578063dfbf53ae1161008a578063f040279f11610064578063f040279f14610a63578063f4fbfd6914610b2b578063f58fef8e14610b97578063fcc8f79314610bae5761019c565b8063dfbf53ae146109b6578063e493ef8c14610a0d578063eff0811914610a385761019c565b8063c84e1137116100c6578063c84e1137146107b1578063c90a7e8d146107bb578063d13a15f314610934578063d57bde791461098b5761019c565b806384ac26d4146106d7578063ba829d71146106ee578063c6e1ec4e146107195761019c565b806364876f6e1161015957806374b11d8a1161013357806374b11d8a1461061a5780637a183e841461064557806381806bb51461067357806382482f7c1461069e5761019c565b806364876f6e1461040757806369bd56091461046c5780636bc6ecc9146105c55761019c565b8063025cfe0d146101a1578063101d45791461028f5780632200b63e1461030a57806325aff27a146103355780634ba9a927146103c557806357ea89b6146103f0575b600080fd5b3480156101ad57600080fd5b50610267600480360360208110156101c457600080fd5b81019080803590602001906401000000008111156101e157600080fd5b8201836020820111156101f357600080fd5b8035906020019184600183028401116401000000008311171561021557600080fd5b91908080601f016020809104026020016040519081016040528093929190818152602001838380828437600081840152601f19601f820116905080830192505050505050509192919290505050610ca7565b6040518084815260200183815260200182151515158152602001935050505060405180910390f35b34801561029b57600080fd5b506102c8600480360360208110156102b257600080fd5b8101908080359060200190929190505050610f28565b604051808273ffffffffffffffffffffffffffffffffffffffff1673ffffffffffffffffffffffffffffffffffffffff16815260200191505060405180910390f35b34801561031657600080fd5b5061031f610f64565b6040518082815260200191505060405180910390f35b34801561034157600080fd5b5061034a610f6a565b6040518080602001828103825283818151815260200191508051906020019080838360005b8381101561038a57808201518184015260208101905061036f565b50505050905090810190601f1680156103b75780820380516001836020036101000a031916815260200191505b509250505060405180910390f35b3480156103d157600080fd5b506103da611008565b6040518082815260200191505060405180910390f35b3480156103fc57600080fd5b5061040561100e565b005b34801561041357600080fd5b5061046a6004803603606081101561042a57600080fd5b81019080803573ffffffffffffffffffffffffffffffffffffffff16906020019092919080359060200190929190803590602001909291905050506113e7565b005b34801561047857600080fd5b506105c36004803603604081101561048f57600080fd5b81019080803590602001906401000000008111156104ac57600080fd5b8201836020820111156104be57600080fd5b803590602001918460208302840111640100000000831117156104e057600080fd5b919080806020026020016040519081016040528093929190818152602001838360200280828437600081840152601f19601f8201169050808301925050505050505091929192908035906020019064010000000081111561054057600080fd5b82018360208201111561055257600080fd5b8035906020019184602083028401116401000000008311171561057457600080fd5b919080806020026020016040519081016040528093929190818152602001838360200280828437600081840152601f19601f8201169050808301925050505050505091929192905050506118f6565b005b3480156105d157600080fd5b506105da612f44565b6040518086815260200185815260200184815260200183815260200182600581111561060257fe5b60ff1681526020019550505050505060405180910390f35b34801561062657600080fd5b5061062f612f79565b6040518082815260200191505060405180910390f35b6106716004803603602081101561065b57600080fd5b8101908080359060200190929190505050612f7f565b005b34801561067f57600080fd5b50610688613574565b6040518082815260200191505060405180910390f35b3480156106aa57600080fd5b506106b361357a565b604051808260058111156106c357fe5b60ff16815260200191505060405180910390f35b3480156106e357600080fd5b506106ec61358d565b005b3480156106fa57600080fd5b506107036138c0565b6040518082815260200191505060405180910390f35b34801561072557600080fd5b506107686004803603602081101561073c57600080fd5b81019080803573ffffffffffffffffffffffffffffffffffffffff1690602001909291905050506138c6565b6040518087151515158152602001861515151581526020018515151515815260200184151515158152602001838152602001828152602001965050505050505060405180910390f35b6107b9613a8a565b005b3480156107c757600080fd5b50610932600480360360608110156107de57600080fd5b81019080803573ffffffffffffffffffffffffffffffffffffffff1690602001909291908035906020019064010000000081111561081b57600080fd5b82018360208201111561082d57600080fd5b8035906020019184602083028401116401000000008311171561084f57600080fd5b919080806020026020016040519081016040528093929190818152602001838360200280828437600081840152601f19601f820116905080830192505050505050509192919290803590602001906401000000008111156108af57600080fd5b8201836020820111156108c157600080fd5b803590602001918460208302840111640100000000831117156108e357600080fd5b919080806020026020016040519081016040528093929190818152602001838360200280828437600081840152601f19601f820116905080830192505050505050509192919290505050613c65565b005b34801561094057600080fd5b50610949614182565b604051808273ffffffffffffffffffffffffffffffffffffffff1673ffffffffffffffffffffffffffffffffffffffff16815260200191505060405180910390f35b34801561099757600080fd5b506109a06141a8565b6040518082815260200191505060405180910390f35b3480156109c257600080fd5b506109cb6141ae565b604051808273ffffffffffffffffffffffffffffffffffffffff1673ffffffffffffffffffffffffffffffffffffffff16815260200191505060405180910390f35b348015610a1957600080fd5b50610a226141d4565b6040518082815260200191505060405180910390f35b348015610a4457600080fd5b50610a4d6141da565b6040518082815260200191505060405180910390f35b348015610a6f57600080fd5b50610b2960048036036020811015610a8657600080fd5b8101908080359060200190640100000000811115610aa357600080fd5b820183602082011115610ab557600080fd5b80359060200191846001830284011164010000000083111715610ad757600080fd5b91908080601f016020809104026020016040519081016040528093929190818152602001838380828437600081840152601f19601f8201169050808301925050505050505091929192905050506141e0565b005b348015610b3757600080fd5b50610b40614423565b6040518080602001828103825283818151815260200191508051906020019060200280838360005b83811015610b83578082015181840152602081019050610b68565b505050509050019250505060405180910390f35b348015610ba357600080fd5b50610bac6144b1565b005b348015610bba57600080fd5b50610bfd60048036036020811015610bd157600080fd5b81019080803573ffffffffffffffffffffffffffffffffffffffff1690602001909291905050506144ec565b6040518087815260200186815260200180602001851515151581526020018415151515815260200183151515158152602001828103825286818151815260200191508051906020019080838360005b83811015610c67578082015181840152602081019050610c4c565b50505050905090810190601f168015610c945780820380516001836020036101000a031916815260200191505b5097505050505050505060405180910390f35b60008060008060009050606085905060008090506000809050600080905060606040518060400160405280600181526020017f3000000000000000000000000000000000000000000000000000000000000000815250905060606040518060400160405280600181526020017f3900000000000000000000000000000000000000000000000000000000000000815250905060008090505b8651811015610f105782600081518110610d5557fe5b602001015160f81c60f81b7effffffffffffffffffffffffffffffffffffffffffffffffffffffffffffff1916878281518110610d8e57fe5b602001015160f81c60f81b7effffffffffffffffffffffffffffffffffffffffffffffffffffffffffffff191610158015610e3a575081600081518110610dd157fe5b602001015160f81c60f81b7effffffffffffffffffffffffffffffffffffffffffffffffffffffffffffff1916878281518110610e0a57fe5b602001015160f81c60f81b7effffffffffffffffffffffffffffffffffffffffffffffffffffffffffffff191611155b15610e7b578493506030878281518110610e5057fe5b602001015160f81c60f81b60f81c60ff1603600a860201945084841115610e7657600197505b610f03565b7f2c00000000000000000000000000000000000000000000000000000000000000878281518110610ea857fe5b602001015160f81c60f81b7effffffffffffffffffffffffffffffffffffffffffffffffffffffffffffff19161415610efd5760008614610eec5760019750610ef8565b84955060009450600093505b610f02565b600197505b5b8080600101915050610d3f565b50848488995099509950505050505050509193909250565b600a8181548110610f3557fe5b906000526020600020016000915054906101000a900473ffffffffffffffffffffffffffffffffffffffff1681565b60105481565b60128054600181600116156101000203166002900480601f0160208091040260200160405190810160405280929190818152602001828054600181600116156101000203166002900480156110005780601f10610fd557610100808354040283529160200191611000565b820191906000526020600020905b815481529060010190602001808311610fe357829003601f168201915b505050505081565b600d5481565b60058081111561101a57fe5b600160159054906101000a900460ff16600581111561103557fe5b14806110425750600f5442115b6110b4576040517f08c379a000000000000000000000000000000000000000000000000000000000815260040180806020018281038252601e8152602001807f426964646572206e6f7420616c6c6f77656420746f205769746864726177000081525060200191505060405180910390fd5b601360009054906101000a900473ffffffffffffffffffffffffffffffffffffffff1673ffffffffffffffffffffffffffffffffffffffff163373ffffffffffffffffffffffffffffffffffffffff161415611178576040517f08c379a00000000000000000000000000000000000000000000000000000000081526004018080602001828103825260168152602001807f57696e6e65722063616e6e6f742077697468647261770000000000000000000081525060200191505060405180910390fd5b60001515600960003373ffffffffffffffffffffffffffffffffffffffff1673ffffffffffffffffffffffffffffffffffffffff16815260200190815260200160002060030160019054906101000a900460ff16151514801561122e575060011515600960003373ffffffffffffffffffffffffffffffffffffffff1673ffffffffffffffffffffffffffffffffffffffff16815260200190815260200160002060030160029054906101000a900460ff161515145b611283576040517f08c379a000000000000000000000000000000000000000000000000000000000815260040180806020018281038252602681526020018061470d6026913960400191505060405180910390fd5b60001515600160149054906101000a900460ff1615151461130c576040517f08c379a000000000000000000000000000000000000000000000000000000000815260040180806020018281038252601c8152602001807f57697468647261772069732063757272656e746c79206c6f636b65640000000081525060200191505060405180910390fd5b60018060146101000a81548160ff0219169083151502179055503373ffffffffffffffffffffffffffffffffffffffff166108fc6011549081150290604051600060405180830381858888f1935050505015801561136e573d6000803e3d6000fd5b506001600960003373ffffffffffffffffffffffffffffffffffffffff1673ffffffffffffffffffffffffffffffffffffffff16815260200190815260200160002060030160016101000a81548160ff0219169083151502179055506000600160146101000a81548160ff021916908315150217905550565b600c60009054906101000a900473ffffffffffffffffffffffffffffffffffffffff1673ffffffffffffffffffffffffffffffffffffffff163373ffffffffffffffffffffffffffffffffffffffff161461148d576040517f08c379a000000000000000000000000000000000000000000000000000000000815260040180806020018281038252602a815260200180614791602a913960400191505060405180910390fd5b600e544211801561149f5750600f5442105b806114b65750600460009054906101000a900460ff165b61150b576040517f08c379a000000000000000000000000000000000000000000000000000000000815260040180806020018281038252602d815260200180614733602d913960400191505060405180910390fd5b6000600581111561151857fe5b600160159054906101000a900460ff16600581111561153357fe5b146115a6576040517f08c379a00000000000000000000000000000000000000000000000000000000081526004018080602001828103825260208152602001807f436c61696d57696e6e657220686173206265656e20646f6e65206265666f726581525060200191505060405180910390fd5b60011515600960008573ffffffffffffffffffffffffffffffffffffffff1673ffffffffffffffffffffffffffffffffffffffff16815260200190815260200160002060030160029054906101000a900460ff16151514611652576040517f08c379a00000000000000000000000000000000000000000000000000000000081526004018080602001828103825260318152602001806147606031913960400191505060405180910390fd5b60065482106116c9576040517f08c379a00000000000000000000000000000000000000000000000000000000081526004018080602001828103825260178152602001807f4269642065786365656473206d6178696d756d2062696400000000000000000081525060200191505060405180910390fd5b6000809054906101000a900473ffffffffffffffffffffffffffffffffffffffff1673ffffffffffffffffffffffffffffffffffffffff1663c30918d18383600960008873ffffffffffffffffffffffffffffffffffffffff1673ffffffffffffffffffffffffffffffffffffffff16815260200190815260200160002060000154600960008973ffffffffffffffffffffffffffffffffffffffff1673ffffffffffffffffffffffffffffffffffffffff168152602001908152602001600020600101546040518563ffffffff1660e01b815260040180858152602001848152602001838152602001828152602001945050505050602060405180830381600087803b1580156117d957600080fd5b505af11580156117ed573d6000803e3d6000fd5b505050506040513d602081101561180357600080fd5b8101908080519060200190929190505050611886576040517f08c379a000000000000000000000000000000000000000000000000000000000815260040180806020018281038252601c8152602001807f4f70656e2077696e6e657220636f6d6d6974206e6f742076616c69640000000081525060200191505060405180910390fd5b82601360006101000a81548173ffffffffffffffffffffffffffffffffffffffff021916908373ffffffffffffffffffffffffffffffffffffffff1602179055508160148190555060018060156101000a81548160ff021916908360058111156118ec57fe5b0217905550505050565b6003600581111561190357fe5b600160159054906101000a900460ff16600581111561191e57fe5b148061194f57506004600581111561193257fe5b600160159054906101000a900460ff16600581111561194d57fe5b145b6119c1576040517f08c379a000000000000000000000000000000000000000000000000000000000815260040180806020018281038252601f8152602001807f5374617465206e6f7420566572696679206f722056657269667944656c74610081525060200191505060405180910390fd5b600080905060006003544060001c90506001600b81905550600080905060008090506000805b8751841080156119fb575060078054905083105b15612344576000600b5486161415611df157600654600554896002870181518110611a2257fe5b60200260200101518a8781518110611a3657fe5b60200260200101510181611a4657fe5b0614611aba576040517f08c379a000000000000000000000000000000000000000000000000000000000815260040180806020018281038252600e8152602001807f57726f6e6720726573706f6e736500000000000000000000000000000000000081525060200191505060405180910390fd5b6000809054906101000a900473ffffffffffffffffffffffffffffffffffffffff1673ffffffffffffffffffffffffffffffffffffffff1663c30918d1898681518110611b0357fe5b60200260200101518a6001880181518110611b1a57fe5b602002602001015160078781548110611b2f57fe5b906000526020600020015460076001890181548110611b4a57fe5b90600052602060002001546040518563ffffffff1660e01b815260040180858152602001848152602001838152602001828152602001945050505050602060405180830381600087803b158015611ba057600080fd5b505af1158015611bb4573d6000803e3d6000fd5b505050506040513d6020811015611bca57600080fd5b8101908080519060200190929190505050611c4d576040517f08c379a000000000000000000000000000000000000000000000000000000000815260040180806020018281038252600e8152602001807f4e6f74207665726966696564203100000000000000000000000000000000000081525060200191505060405180910390fd5b6000809054906101000a900473ffffffffffffffffffffffffffffffffffffffff1673ffffffffffffffffffffffffffffffffffffffff1663c30918d1896002870181518110611c9957fe5b60200260200101518a6003880181518110611cb057fe5b602002602001015160076002880181548110611cc857fe5b906000526020600020015460076003890181548110611ce357fe5b90600052602060002001546040518563ffffffff1660e01b815260040180858152602001848152602001838152602001828152602001945050505050602060405180830381600087803b158015611d3957600080fd5b505af1158015611d4d573d6000803e3d6000fd5b505050506040513d6020811015611d6357600080fd5b8101908080519060200190929190505050611de6576040517f08c379a000000000000000000000000000000000000000000000000000000000815260040180806020018281038252600e8152602001807f4e6f74207665726966696564203200000000000000000000000000000000000081525060200191505060405180910390fd5b600484019350612324565b6001886002860181518110611e0257fe5b60200260200101511415611fe6576000809054906101000a900473ffffffffffffffffffffffffffffffffffffffff1673ffffffffffffffffffffffffffffffffffffffff1663cde6248360096000600260009054906101000a900473ffffffffffffffffffffffffffffffffffffffff1673ffffffffffffffffffffffffffffffffffffffff1673ffffffffffffffffffffffffffffffffffffffff1681526020019081526020016000206000015460096000600260009054906101000a900473ffffffffffffffffffffffffffffffffffffffff1673ffffffffffffffffffffffffffffffffffffffff1673ffffffffffffffffffffffffffffffffffffffff1681526020019081526020016000206001015460078781548110611f2457fe5b906000526020600020015460076001890181548110611f3f57fe5b90600052602060002001546040518563ffffffff1660e01b8152600401808581526020018481526020018381526020018281526020019450505050506040805180830381600087803b158015611f9457600080fd5b505af1158015611fa8573d6000803e3d6000fd5b505050506040513d6040811015611fbe57600080fd5b81019080805190602001909291908051906020019092919050505080925081935050506121bb565b6000809054906101000a900473ffffffffffffffffffffffffffffffffffffffff1673ffffffffffffffffffffffffffffffffffffffff1663cde6248360096000600260009054906101000a900473ffffffffffffffffffffffffffffffffffffffff1673ffffffffffffffffffffffffffffffffffffffff1673ffffffffffffffffffffffffffffffffffffffff1681526020019081526020016000206000015460096000600260009054906101000a900473ffffffffffffffffffffffffffffffffffffffff1673ffffffffffffffffffffffffffffffffffffffff1673ffffffffffffffffffffffffffffffffffffffff16815260200190815260200160002060010154600760028801815481106120fd57fe5b90600052602060002001546007600389018154811061211857fe5b90600052602060002001546040518563ffffffff1660e01b8152600401808581526020018481526020018381526020018281526020019450505050506040805180830381600087803b15801561216d57600080fd5b505af1158015612181573d6000803e3d6000fd5b505050506040513d604081101561219757600080fd5b81019080805190602001909291908051906020019092919050505080925081935050505b6000809054906101000a900473ffffffffffffffffffffffffffffffffffffffff1673ffffffffffffffffffffffffffffffffffffffff1663c30918d189868151811061220457fe5b60200260200101518a600188018151811061221b57fe5b602002602001015185856040518563ffffffff1660e01b815260040180858152602001848152602001838152602001828152602001945050505050602060405180830381600087803b15801561227057600080fd5b505af1158015612284573d6000803e3d6000fd5b505050506040513d602081101561229a57600080fd5b810190808051906020019092919050505061231d576040517f08c379a000000000000000000000000000000000000000000000000000000000815260040180806020018281038252600e8152602001807f4e6f74207665726966696564203300000000000000000000000000000000000081525060200191505060405180910390fd5b6003840193505b6004830192506001600b54901b600b8190555085806001019650506119e7565b600460019054906101000a900460ff1660ff168660ff16146123ce576040517f08c379a000000000000000000000000000000000000000000000000000000000815260040180806020018281038252600b8152602001807f77726f6e6720636f756e7400000000000000000000000000000000000000000081525060200191505060405180910390fd5b6000955060009350600092505b8651841080156123ef575060088054905083105b15612e10576000600b54861614156127e55760065460055488600287018151811061241657fe5b602002602001015189878151811061242a57fe5b6020026020010151018161243a57fe5b06146124ae576040517f08c379a00000000000000000000000000000000000000000000000000000000081526004018080602001828103825260138152602001807f77726f6e672064656c7461526573706f6e73650000000000000000000000000081525060200191505060405180910390fd5b6000809054906101000a900473ffffffffffffffffffffffffffffffffffffffff1673ffffffffffffffffffffffffffffffffffffffff1663c30918d18886815181106124f757fe5b602002602001015189600188018151811061250e57fe5b60200260200101516008878154811061252357fe5b90600052602060002001546008600189018154811061253e57fe5b90600052602060002001546040518563ffffffff1660e01b815260040180858152602001848152602001838152602001828152602001945050505050602060405180830381600087803b15801561259457600080fd5b505af11580156125a8573d6000803e3d6000fd5b505050506040513d60208110156125be57600080fd5b8101908080519060200190929190505050612641576040517f08c379a00000000000000000000000000000000000000000000000000000000081526004018080602001828103825260148152602001807f64656c7461206e6f74207665726966696564203100000000000000000000000081525060200191505060405180910390fd5b6000809054906101000a900473ffffffffffffffffffffffffffffffffffffffff1673ffffffffffffffffffffffffffffffffffffffff1663c30918d188600287018151811061268d57fe5b60200260200101518960038801815181106126a457fe5b6020026020010151600860028801815481106126bc57fe5b9060005260206000200154600860038901815481106126d757fe5b90600052602060002001546040518563ffffffff1660e01b815260040180858152602001848152602001838152602001828152602001945050505050602060405180830381600087803b15801561272d57600080fd5b505af1158015612741573d6000803e3d6000fd5b505050506040513d602081101561275757600080fd5b81019080805190602001909291905050506127da576040517f08c379a00000000000000000000000000000000000000000000000000000000081526004018080602001828103825260148152602001807f64656c7461206e6f74207665726966696564203200000000000000000000000081525060200191505060405180910390fd5b600484019350612df0565b6000809054906101000a900473ffffffffffffffffffffffffffffffffffffffff1673ffffffffffffffffffffffffffffffffffffffff1663882033d160096000601360009054906101000a900473ffffffffffffffffffffffffffffffffffffffff1673ffffffffffffffffffffffffffffffffffffffff1673ffffffffffffffffffffffffffffffffffffffff1681526020019081526020016000206000015460096000601360009054906101000a900473ffffffffffffffffffffffffffffffffffffffff1673ffffffffffffffffffffffffffffffffffffffff1673ffffffffffffffffffffffffffffffffffffffff1681526020019081526020016000206001015460096000600260009054906101000a900473ffffffffffffffffffffffffffffffffffffffff1673ffffffffffffffffffffffffffffffffffffffff1673ffffffffffffffffffffffffffffffffffffffff1681526020019081526020016000206000015460096000600260009054906101000a900473ffffffffffffffffffffffffffffffffffffffff1673ffffffffffffffffffffffffffffffffffffffff1673ffffffffffffffffffffffffffffffffffffffff168152602001908152602001600020600101546040518563ffffffff1660e01b8152600401808581526020018481526020018381526020018281526020019450505050506040805180830381600087803b158015612a0057600080fd5b505af1158015612a14573d6000803e3d6000fd5b505050506040513d6040811015612a2a57600080fd5b81019080805190602001909291908051906020019092919050505080925081935050506001876002860181518110612a5e57fe5b60200260200101511415612b7a576000809054906101000a900473ffffffffffffffffffffffffffffffffffffffff1673ffffffffffffffffffffffffffffffffffffffff1663cde62483838360088781548110612ab857fe5b906000526020600020015460086001890181548110612ad357fe5b90600052602060002001546040518563ffffffff1660e01b8152600401808581526020018481526020018381526020018281526020019450505050506040805180830381600087803b158015612b2857600080fd5b505af1158015612b3c573d6000803e3d6000fd5b505050506040513d6040811015612b5257600080fd5b8101908080519060200190929190805190602001909291905050508092508193505050612c87565b6000809054906101000a900473ffffffffffffffffffffffffffffffffffffffff1673ffffffffffffffffffffffffffffffffffffffff1663cde62483838360086002880181548110612bc957fe5b906000526020600020015460086003890181548110612be457fe5b90600052602060002001546040518563ffffffff1660e01b8152600401808581526020018481526020018381526020018281526020019450505050506040805180830381600087803b158015612c3957600080fd5b505af1158015612c4d573d6000803e3d6000fd5b505050506040513d6040811015612c6357600080fd5b81019080805190602001909291908051906020019092919050505080925081935050505b6000809054906101000a900473ffffffffffffffffffffffffffffffffffffffff1673ffffffffffffffffffffffffffffffffffffffff1663c30918d1888681518110612cd057fe5b6020026020010151896001880181518110612ce757fe5b602002602001015185856040518563ffffffff1660e01b815260040180858152602001848152602001838152602001828152602001945050505050602060405180830381600087803b158015612d3c57600080fd5b505af1158015612d50573d6000803e3d6000fd5b505050506040513d6020811015612d6657600080fd5b8101908080519060200190929190505050612de9576040517f08c379a00000000000000000000000000000000000000000000000000000000081526004018080602001828103825260148152602001807f64656c7461206e6f74207665726966696564203300000000000000000000000081525060200191505060405180910390fd5b6003840193505b6004830192506001600b54901b600b8190555085806001019650506123db565b600460019054906101000a900460ff1660ff168660ff1614612e9a576040517f08c379a000000000000000000000000000000000000000000000000000000000815260040180806020018281038252600b8152602001807f77726f6e6720636f756e7400000000000000000000000000000000000000000081525060200191505060405180910390fd5b600160096000600260009054906101000a900473ffffffffffffffffffffffffffffffffffffffff1673ffffffffffffffffffffffffffffffffffffffff1673ffffffffffffffffffffffffffffffffffffffff16815260200190815260200160002060030160006101000a81548160ff02191690831515021790555060018060156101000a81548160ff02191690836005811115612f3557fe5b02179055505050505050505050565b6000806000806000600d54600e54600f54601154600160159054906101000a900460ff16945094509450945094509091929394565b60065481565b600d5480421080612f9c5750600460009054906101000a900460ff165b61300e576040517f08c379a000000000000000000000000000000000000000000000000000000000815260040180806020018281038252600c8152602001807f4e6f742074696d6520796574000000000000000000000000000000000000000081525060200191505060405180910390fd5b601054600a805490501061308a576040517f08c379a00000000000000000000000000000000000000000000000000000000081526004018080602001828103825260108152602001807f546f6f206d616e7920626964646572730000000000000000000000000000000081525060200191505060405180910390fd5b601154341015613102576040517f08c379a000000000000000000000000000000000000000000000000000000000815260040180806020018281038252601b8152602001807f4665652073656e742062656c6f7720666169726e65737320666565000000000081525060200191505060405180910390fd5b60001515600960003373ffffffffffffffffffffffffffffffffffffffff1673ffffffffffffffffffffffffffffffffffffffff16815260200190815260200160002060030160029054906101000a900460ff161515146131cb576040517f08c379a00000000000000000000000000000000000000000000000000000000081526004018080602001828103825260158152602001807f4269646465722068617320626964206265666f7265000000000000000000000081525060200191505060405180910390fd5b6060600160009054906101000a900473ffffffffffffffffffffffffffffffffffffffff1673ffffffffffffffffffffffffffffffffffffffff1663c87b56dd846040518263ffffffff1660e01b81526004018082815260200191505060006040518083038186803b15801561324057600080fd5b505afa158015613254573d6000803e3d6000fd5b505050506040513d6000823e3d601f19601f82011682018060405250602081101561327e57600080fd5b81019080805164010000000081111561329657600080fd5b828101905060208101848111156132ac57600080fd5b81518560018202830111640100000000821117156132c957600080fd5b5050929190505050905060008060006132e184610ca7565b9250925092506000151581151514613361576040517f08c379a00000000000000000000000000000000000000000000000000000000081526004018080602001828103825260168152602001807f42696420636f6d6d69746d656e7420696e76616c69640000000000000000000081525060200191505060405180910390fd5b600160009054906101000a900473ffffffffffffffffffffffffffffffffffffffff1673ffffffffffffffffffffffffffffffffffffffff166342966c68876040518263ffffffff1660e01b815260040180828152602001915050600060405180830381600087803b1580156133d657600080fd5b505af11580156133ea573d6000803e3d6000fd5b505050506040518060c0016040528084815260200183815260200160405180602001604052806000815250815260200160001515815260200160001515815260200160011515815250600960003373ffffffffffffffffffffffffffffffffffffffff1673ffffffffffffffffffffffffffffffffffffffff168152602001908152602001600020600082015181600001556020820151816001015560408201518160020190805190602001906134a29291906145e7565b5060608201518160030160006101000a81548160ff02191690831515021790555060808201518160030160016101000a81548160ff02191690831515021790555060a08201518160030160026101000a81548160ff021916908315150217905550905050600a3390806001815401808255809150509060018203906000526020600020016000909192909190916101000a81548173ffffffffffffffffffffffffffffffffffffffff021916908373ffffffffffffffffffffffffffffffffffffffff16021790555050505050505050565b60115481565b600160159054906101000a900460ff1681565b600c60009054906101000a900473ffffffffffffffffffffffffffffffffffffffff1673ffffffffffffffffffffffffffffffffffffffff163373ffffffffffffffffffffffffffffffffffffffff1614613633576040517f08c379a000000000000000000000000000000000000000000000000000000000815260040180806020018281038252602a815260200180614791602a913960400191505060405180910390fd5b600e54421180156136455750600f5442105b8061365c5750600460009054906101000a900460ff165b6136b1576040517f08c379a000000000000000000000000000000000000000000000000000000000815260040180806020018281038252602d815260200180614733602d913960400191505060405180910390fd5b60008090505b600a8054905081101561389957601360009054906101000a900473ffffffffffffffffffffffffffffffffffffffff1673ffffffffffffffffffffffffffffffffffffffff16600a828154811061370a57fe5b9060005260206000200160009054906101000a900473ffffffffffffffffffffffffffffffffffffffff1673ffffffffffffffffffffffffffffffffffffffff161461388c5760096000600a838154811061376157fe5b9060005260206000200160009054906101000a900473ffffffffffffffffffffffffffffffffffffffff1673ffffffffffffffffffffffffffffffffffffffff1673ffffffffffffffffffffffffffffffffffffffff16815260200190815260200160002060030160009054906101000a900460ff1661388b576000601360006101000a81548173ffffffffffffffffffffffffffffffffffffffff021916908373ffffffffffffffffffffffffffffffffffffffff1602179055506040517f08c379a000000000000000000000000000000000000000000000000000000000815260040180806020018281038252600c8152602001807f6e6f74207665726966696564000000000000000000000000000000000000000081525060200191505060405180910390fd5b5b80806001019150506136b7565b506005600160156101000a81548160ff021916908360058111156138b957fe5b0217905550565b600e5481565b6000806000806000806000600960008973ffffffffffffffffffffffffffffffffffffffff1673ffffffffffffffffffffffffffffffffffffffff16815260200190815260200160002060030160029054906101000a900460ff1690506000600960008a73ffffffffffffffffffffffffffffffffffffffff1673ffffffffffffffffffffffffffffffffffffffff16815260200190815260200160002060030160019054906101000a900460ff1690506000601054600a80549050101590506000601360009054906101000a900473ffffffffffffffffffffffffffffffffffffffff1673ffffffffffffffffffffffffffffffffffffffff168b73ffffffffffffffffffffffffffffffffffffffff161490506000600960008d73ffffffffffffffffffffffffffffffffffffffff1673ffffffffffffffffffffffffffffffffffffffff1681526020019081526020016000206000015490506000600960008e73ffffffffffffffffffffffffffffffffffffffff1673ffffffffffffffffffffffffffffffffffffffff1681526020019081526020016000206001015490508584868585859b509b509b509b509b509b5050505050505091939550919395565b600580811115613a9657fe5b600160159054906101000a900460ff166005811115613ab157fe5b14613b24576040517f08c379a00000000000000000000000000000000000000000000000000000000081526004018080602001828103825260138152602001807f4e6f742074696d6520746f20706179207965740000000000000000000000000081525060200191505060405180910390fd5b601360009054906101000a900473ffffffffffffffffffffffffffffffffffffffff1673ffffffffffffffffffffffffffffffffffffffff163373ffffffffffffffffffffffffffffffffffffffff1614613be7576040517f08c379a00000000000000000000000000000000000000000000000000000000081526004018080602001828103825260188152602001807f426964646572206973206e6f74207468652077696e6e6572000000000000000081525060200191505060405180910390fd5b60115460145403341015613c63576040517f08c379a000000000000000000000000000000000000000000000000000000000815260040180806020018281038252601f8152602001807f56616c7565206973206c657373207468616e2070726f6d69736564206269640081525060200191505060405180910390fd5b565b600c60009054906101000a900473ffffffffffffffffffffffffffffffffffffffff1673ffffffffffffffffffffffffffffffffffffffff163373ffffffffffffffffffffffffffffffffffffffff1614613d0b576040517f08c379a000000000000000000000000000000000000000000000000000000000815260040180806020018281038252602a815260200180614791602a913960400191505060405180910390fd5b600e5442118015613d1d5750600f5442105b80613d345750600460009054906101000a900460ff165b613d89576040517f08c379a000000000000000000000000000000000000000000000000000000000815260040180806020018281038252602d815260200180614733602d913960400191505060405180910390fd5b60016005811115613d9657fe5b600160159054906101000a900460ff166005811115613db157fe5b1480613dc95750600460009054906101000a900460ff165b613e3b576040517f08c379a000000000000000000000000000000000000000000000000000000000815260040180806020018281038252601e8152602001807f41756374696f6e207374617465206973206e6f74204368616c6c656e6765000081525060200191505060405180910390fd5b60048060019054906101000a900460ff160260ff16825114613ec5576040517f08c379a00000000000000000000000000000000000000000000000000000000081526004018080602001828103825260178152602001807f436f6d6d697473206f662077726f6e67206c656e67746800000000000000000081525060200191505060405180910390fd5b8051825114613f3c576040517f08c379a000000000000000000000000000000000000000000000000000000000815260040180806020018281038252601c8152602001807f64656c7461436f6d6d697473206f662077726f6e67206c656e6774680000000081525060200191505060405180910390fd5b60011515600960008573ffffffffffffffffffffffffffffffffffffffff1673ffffffffffffffffffffffffffffffffffffffff16815260200190815260200160002060030160029054906101000a900460ff16151514614005576040517f08c379a00000000000000000000000000000000000000000000000000000000081526004018080602001828103825260158152602001807f42696464657220646f6573206e6f74206578697374000000000000000000000081525060200191505060405180910390fd5b82600260006101000a81548173ffffffffffffffffffffffffffffffffffffffff021916908373ffffffffffffffffffffffffffffffffffffffff1602179055504360038190555060008090505b8251811015614158578060078054905014156140ec57600783828151811061407757fe5b6020026020010151908060018154018082558091505090600182039060005260206000200160009091929091909150555060088282815181106140b657fe5b6020026020010151908060018154018082558091505090600182039060005260206000200160009091929091909150555061414b565b8281815181106140f857fe5b60200260200101516007828154811061410d57fe5b906000526020600020018190555081818151811061412757fe5b60200260200101516008828154811061413c57fe5b90600052602060002001819055505b8080600101915050614053565b506003600160156101000a81548160ff0219169083600581111561417857fe5b0217905550505050565b600c60009054906101000a900473ffffffffffffffffffffffffffffffffffffffff1681565b60145481565b601360009054906101000a900473ffffffffffffffffffffffffffffffffffffffff1681565b60055481565b600f5481565b600e54804210806141fd5750600460009054906101000a900460ff165b61426f576040517f08c379a000000000000000000000000000000000000000000000000000000000815260040180806020018281038252600c8152602001807f4e6f742074696d6520796574000000000000000000000000000000000000000081525060200191505060405180910390fd5b600d548042118061428c5750600460009054906101000a900460ff165b6142fe576040517f08c379a000000000000000000000000000000000000000000000000000000000815260040180806020018281038252600f8152602001807f54696d652068617320706173736564000000000000000000000000000000000081525060200191505060405180910390fd5b60011515600960003373ffffffffffffffffffffffffffffffffffffffff1673ffffffffffffffffffffffffffffffffffffffff16815260200190815260200160002060030160029054906101000a900460ff161515146143c7576040517f08c379a00000000000000000000000000000000000000000000000000000000081526004018080602001828103825260158152602001807f42696464657220646f6573206e6f74206578697374000000000000000000000081525060200191505060405180910390fd5b82600960003373ffffffffffffffffffffffffffffffffffffffff1673ffffffffffffffffffffffffffffffffffffffff168152602001908152602001600020600201908051906020019061441d929190614667565b50505050565b6060600a8054806020026020016040519081016040528092919081815260200182805480156144a757602002820191906000526020600020905b8160009054906101000a900473ffffffffffffffffffffffffffffffffffffffff1673ffffffffffffffffffffffffffffffffffffffff168152602001906001019080831161445d575b5050505050905090565b600c60009054906101000a900473ffffffffffffffffffffffffffffffffffffffff1673ffffffffffffffffffffffffffffffffffffffff16ff5b6009602052806000526040600020600091509050806000015490806001015490806002018054600181600116156101000203166002900480601f0160208091040260200160405190810160405280929190818152602001828054600181600116156101000203166002900480156145a45780601f10614579576101008083540402835291602001916145a4565b820191906000526020600020905b81548152906001019060200180831161458757829003601f168201915b5050505050908060030160009054906101000a900460ff16908060030160019054906101000a900460ff16908060030160029054906101000a900460ff16905086565b828054600181600116156101000203166002900490600052602060002090601f016020900481019282601f1061462857805160ff1916838001178555614656565b82800160010185558215614656579182015b8281111561465557825182559160200191906001019061463a565b5b50905061466391906146e7565b5090565b828054600181600116156101000203166002900490600052602060002090601f016020900481019282601f106146a857805160ff19168380011785556146d6565b828001600101855582156146d6579182015b828111156146d55782518255916020019190600101906146ba565b5b5090506146e391906146e7565b5090565b61470991905b808211156147055760008160009055506001016146ed565b5090565b9056fe426964646572206861732077697468647261776e206f7220646f6573206e6f742065786973744e6f77206973206e6f74207468652074696d6520746f20706572666f726d2074686973206f7065726174696f6e4269646465722074686174206973206465656d656420746f2062652077696e6e657220646f6573206e6f742065786973744f6e6c792061756374696f6e6565722063616e20706572666f726d2074686973206f7065726174696f6ea165627a7a723058206d801248e3f5bff8eb94679d4482b43070f327056e778a3b39a0c67667abc5be0029a165627a7a723058203410864ade37d025a6e35307ed7c7e954a398774b18284bed83eb76508abbb93002960806040527f30644e72e131a029b85045b68181585d97816a916871ca8d3c208c16d87cfd476000557f2bd3e6d0f3b142924f5ca7b49ce5b9d54c4703d7ae5648e61d02268b1a0a9fb76001557f21611ce0a6af85915e2f1d70300909ce2e49dfad4a4619c8390cae66cefdb2046002557f070a8d6a982153cae4be29d434e8faef8a47b274a053f5a4ee2a6c9c13c31e5c6003557f031b8ce914eba3a9ffb989f9cdd5b0f01943074bf4f0f315690ec3cec6981afc6004553480156100c457600080fd5b5061042b806100d46000396000f3fe608060405234801561001057600080fd5b506004361061004c5760003560e01c8063882033d114610051578063acafc535146100b8578063c30918d11461010b578063cde624831461016f575b600080fd5b61009b6004803603608081101561006757600080fd5b81019080803590602001909291908035906020019092919080359060200190929190803590602001909291905050506101d6565b604051808381526020018281526020019250505060405180910390f35b6100ee600480360360408110156100ce57600080fd5b8101908080359060200190929190803590602001909291905050506101fa565b604051808381526020018281526020019250505060405180910390f35b6101556004803603608081101561012157600080fd5b8101908080359060200190929190803590602001909291908035906020019092919080359060200190929190505050610248565b604051808215151515815260200191505060405180910390f35b6101b96004803603608081101561018557600080fd5b8101908080359060200190929190803590602001909291908035906020019092919080359060200190929190505050610275565b604051808381526020018281526020019250505060405180910390f35b6000806101e98686868660005403610275565b809250819350505094509492505050565b60008060008061020f8660015460025461033e565b915091506000806102258760035460045461033e565b9150915061023584848484610275565b8096508197505050505050509250929050565b600080600061025787876101fa565b91509150818514801561026957508084145b92505050949350505050565b6000806000809050606060806040519080825280601f01601f1916602001820160405280156102b35781602001600182028038833980820191505090505b5090506060604080519080825280601f01601f1916602001820160405280156102eb5781602001600182028038833980820191505090505b509050886020830152876040830152866060830152856080830152604060208201608060208501600060065af1925060208101519450604081015193508261033257600080fd5b50505094509492505050565b60008060008090506060806040519080825280601f01601f19166020018201604052801561037b5781602001600182028038833980820191505090505b5090506060604080519080825280601f01601f1916602001820160405280156103b35781602001600182028038833980820191505090505b509050866020830152856040830152876060830152604060208201606060208501600060075af192506020810151945060408101519350826103f457600080fd5b50505093509391505056fea165627a7a7230582035050b0d63544b5d2a4faca02a098543f86fc3fbb9fdaff87fca930c2d50d0b70029",
  "source": "pragma solidity >0.4.18;\nimport {Auction} from \"./BlindAuctionZKP.sol\";\nimport {Pedersen} from \"./Pedersen.sol\";\n\ncontract AuctionFactory {\n    struct AuctionData {\n      string name;\n      string desc;\n      Auction auctionContract;\n    }\n    address[] public auctionsAddresses;\n    mapping (address => AuctionData) auctions;\n    address public pedersen;\n\n    event AuctionCreated(address auctionContract, address owner, uint numAuctions, address[] allAuctions);\n\n    constructor() public {\n      pedersen = address(new Pedersen());\n    }\n\n    function createAuction(string memory _name, string memory _desc, uint _bidEndTime, uint _revealTime,\n    uint _winnerPaymentTime, uint _maxBiddersCount, uint _fairnessFees, string memory _auctioneerRSAPublicKey,\n    address NFTokenAddress) public payable returns(address) {\n      require(msg.value>_fairnessFees, \"Deposit is too low\");\n      Auction newAuction = new Auction(_bidEndTime, _revealTime, _winnerPaymentTime, _maxBiddersCount,\n      _fairnessFees, _auctioneerRSAPublicKey, pedersen, NFTokenAddress, msg.sender);\n      auctionsAddresses.push(address(newAuction));\n      auctions[address(newAuction)] = AuctionData(_name, _desc, newAuction);\n\n      emit AuctionCreated(address(newAuction), msg.sender, auctionsAddresses.length, auctionsAddresses);\n    }\n\n    function allAuctions() public view returns (address[] memory) {\n        return auctionsAddresses;\n    }\n\n    function getAuctionData(address _address) public view returns (string memory, string memory){\n      return (auctions[_address].name, auctions[_address].desc);\n    }\n}",
  "sourcePath": "/Users/siska/Desktop/FYP/workspace/auction-truffle-box/contracts/AuctionFactory.sol",
  "compiler": {
    "name": "solc",
    "version": "0.5.8+commit.23d335f2.Emscripten.clang"
  },
  "schemaVersion": "3.0.16",
  "updatedAt": "2019-11-13T08:35:35.961Z",
  "devdoc": {
    "methods": {}
  },
  "userdoc": {
    "methods": {}
  }
}