{
  "contractName": "Auction",
  "abi": [
    {
      "constant": true,
      "inputs": [
        {
          "name": "",
          "type": "uint256"
        }
      ],
      "name": "indexs",
      "outputs": [
        {
          "name": "",
          "type": "address"
        }
      ],
      "payable": false,
      "stateMutability": "view",
      "type": "function"
    },
    {
      "constant": true,
      "inputs": [],
      "name": "maxBiddersCount",
      "outputs": [
        {
          "name": "",
          "type": "uint256"
        }
      ],
      "payable": false,
      "stateMutability": "view",
      "type": "function"
    },
    {
      "constant": true,
      "inputs": [],
      "name": "auctioneerRSAPublicKey",
      "outputs": [
        {
          "name": "",
          "type": "string"
        }
      ],
      "payable": false,
      "stateMutability": "view",
      "type": "function"
    },
    {
      "constant": true,
      "inputs": [],
      "name": "bidEndTime",
      "outputs": [
        {
          "name": "",
          "type": "uint256"
        }
      ],
      "payable": false,
      "stateMutability": "view",
      "type": "function"
    },
    {
      "constant": true,
      "inputs": [],
      "name": "maxBid",
      "outputs": [
        {
          "name": "",
          "type": "uint256"
        }
      ],
      "payable": false,
      "stateMutability": "view",
      "type": "function"
    },
    {
      "constant": true,
      "inputs": [],
      "name": "fairnessFees",
      "outputs": [
        {
          "name": "",
          "type": "uint256"
        }
      ],
      "payable": false,
      "stateMutability": "view",
      "type": "function"
    },
    {
      "constant": true,
      "inputs": [],
      "name": "states",
      "outputs": [
        {
          "name": "",
          "type": "uint8"
        }
      ],
      "payable": false,
      "stateMutability": "view",
      "type": "function"
    },
    {
      "constant": true,
      "inputs": [],
      "name": "revealTime",
      "outputs": [
        {
          "name": "",
          "type": "uint256"
        }
      ],
      "payable": false,
      "stateMutability": "view",
      "type": "function"
    },
    {
      "constant": true,
      "inputs": [],
      "name": "auctioneerAddress",
      "outputs": [
        {
          "name": "",
          "type": "address"
        }
      ],
      "payable": false,
      "stateMutability": "view",
      "type": "function"
    },
    {
      "constant": true,
      "inputs": [],
      "name": "highestBid",
      "outputs": [
        {
          "name": "",
          "type": "uint256"
        }
      ],
      "payable": false,
      "stateMutability": "view",
      "type": "function"
    },
    {
      "constant": true,
      "inputs": [],
      "name": "winner",
      "outputs": [
        {
          "name": "",
          "type": "address"
        }
      ],
      "payable": false,
      "stateMutability": "view",
      "type": "function"
    },
    {
      "constant": true,
      "inputs": [],
      "name": "Q",
      "outputs": [
        {
          "name": "",
          "type": "uint256"
        }
      ],
      "payable": false,
      "stateMutability": "view",
      "type": "function"
    },
    {
      "constant": true,
      "inputs": [],
      "name": "winnerPaymentTime",
      "outputs": [
        {
          "name": "",
          "type": "uint256"
        }
      ],
      "payable": false,
      "stateMutability": "view",
      "type": "function"
    },
    {
      "constant": true,
      "inputs": [
        {
          "name": "",
          "type": "address"
        }
      ],
      "name": "bidders",
      "outputs": [
        {
          "name": "commitX",
          "type": "uint256"
        },
        {
          "name": "commitY",
          "type": "uint256"
        },
        {
          "name": "cipher",
          "type": "string"
        },
        {
          "name": "validProofs",
          "type": "bool"
        },
        {
          "name": "paidBack",
          "type": "bool"
        },
        {
          "name": "existing",
          "type": "bool"
        }
      ],
      "payable": false,
      "stateMutability": "view",
      "type": "function"
    },
    {
      "inputs": [
        {
          "name": "_bidEndTime",
          "type": "uint256"
        },
        {
          "name": "_revealTime",
          "type": "uint256"
        },
        {
          "name": "_winnerPaymentTime",
          "type": "uint256"
        },
        {
          "name": "_maxBiddersCount",
          "type": "uint256"
        },
        {
          "name": "_fairnessFees",
          "type": "uint256"
        },
        {
          "name": "_auctioneerRSAPublicKey",
          "type": "string"
        },
        {
          "name": "pedersenAddress",
          "type": "address"
        },
        {
          "name": "NFTokenAddress",
          "type": "address"
        },
        {
          "name": "_auctioneerAddress",
          "type": "address"
        }
      ],
      "payable": false,
      "stateMutability": "nonpayable",
      "type": "constructor"
    },
    {
      "constant": true,
      "inputs": [
        {
          "name": "account",
          "type": "address"
        }
      ],
      "name": "BidderData",
      "outputs": [
        {
          "name": "",
          "type": "bool"
        },
        {
          "name": "",
          "type": "bool"
        },
        {
          "name": "",
          "type": "bool"
        },
        {
          "name": "",
          "type": "bool"
        },
        {
          "name": "",
          "type": "uint256"
        },
        {
          "name": "",
          "type": "uint256"
        }
      ],
      "payable": false,
      "stateMutability": "view",
      "type": "function"
    },
    {
      "constant": true,
      "inputs": [],
      "name": "AuctionData",
      "outputs": [
        {
          "name": "",
          "type": "uint256"
        },
        {
          "name": "",
          "type": "uint256"
        },
        {
          "name": "",
          "type": "uint256"
        },
        {
          "name": "",
          "type": "uint256"
        },
        {
          "name": "",
          "type": "uint8"
        }
      ],
      "payable": false,
      "stateMutability": "view",
      "type": "function"
    },
    {
      "constant": true,
      "inputs": [],
      "name": "BiddersAddresses",
      "outputs": [
        {
          "name": "",
          "type": "address[]"
        }
      ],
      "payable": false,
      "stateMutability": "view",
      "type": "function"
    },
    {
      "constant": false,
      "inputs": [
        {
          "name": "NFTokenId",
          "type": "uint256"
        }
      ],
      "name": "Bid",
      "outputs": [],
      "payable": true,
      "stateMutability": "payable",
      "type": "function"
    },
    {
      "constant": false,
      "inputs": [
        {
          "name": "cipher",
          "type": "string"
        }
      ],
      "name": "Reveal",
      "outputs": [],
      "payable": false,
      "stateMutability": "nonpayable",
      "type": "function"
    },
    {
      "constant": false,
      "inputs": [
        {
          "name": "_winner",
          "type": "address"
        },
        {
          "name": "_bid",
          "type": "uint256"
        },
        {
          "name": "_r",
          "type": "uint256"
        }
      ],
      "name": "ClaimWinner",
      "outputs": [],
      "payable": false,
      "stateMutability": "nonpayable",
      "type": "function"
    },
    {
      "constant": false,
      "inputs": [
        {
          "name": "y",
          "type": "address"
        },
        {
          "name": "_commits",
          "type": "uint256[]"
        },
        {
          "name": "_deltaCommits",
          "type": "uint256[]"
        }
      ],
      "name": "ZKPCommit",
      "outputs": [],
      "payable": false,
      "stateMutability": "nonpayable",
      "type": "function"
    },
    {
      "constant": false,
      "inputs": [
        {
          "name": "response",
          "type": "uint256[]"
        },
        {
          "name": "deltaResponses",
          "type": "uint256[]"
        }
      ],
      "name": "ZKPVerify",
      "outputs": [],
      "payable": false,
      "stateMutability": "nonpayable",
      "type": "function"
    },
    {
      "constant": false,
      "inputs": [],
      "name": "VerifyAll",
      "outputs": [],
      "payable": false,
      "stateMutability": "nonpayable",
      "type": "function"
    },
    {
      "constant": false,
      "inputs": [],
      "name": "Withdraw",
      "outputs": [],
      "payable": false,
      "stateMutability": "nonpayable",
      "type": "function"
    },
    {
      "constant": false,
      "inputs": [],
      "name": "WinnerPay",
      "outputs": [],
      "payable": true,
      "stateMutability": "payable",
      "type": "function"
    },
    {
      "constant": false,
      "inputs": [],
      "name": "Destroy",
      "outputs": [],
      "payable": false,
      "stateMutability": "nonpayable",
      "type": "function"
    },
    {
      "constant": true,
      "inputs": [
        {
          "name": "s",
          "type": "string"
        }
      ],
      "name": "parseCommits",
      "outputs": [
        {
          "name": "",
          "type": "uint256"
        },
        {
          "name": "",
          "type": "uint256"
        },
        {
          "name": "",
          "type": "bool"
        }
      ],
      "payable": false,
      "stateMutability": "pure",
      "type": "function"
    }
  ],
  "bytecode": "0x60806040526001600460006101000a81548160ff021916908315150217905550600a600460016101000a81548160ff021916908360ff1602179055507f30644e72e131a029b85045b68181585d97816a916871ca8d3c208c16d87cfd476005557f0c19139cb84c680a6e14116da060561765e05aa45a1c72a34f082305b61f3f516006556001600b553480156200009557600080fd5b5060405162004b1738038062004b178339810180604052610120811015620000bc57600080fd5b81019080805190602001909291908051906020019092919080519060200190929190805190602001909291908051906020019092919080516401000000008111156200010757600080fd5b828101905060208101848111156200011e57600080fd5b81518560018202830111640100000000821117156200013c57600080fd5b505092919060200180519060200190929190805190602001909291908051906020019092919050505080600c60006101000a81548173ffffffffffffffffffffffffffffffffffffffff021916908373ffffffffffffffffffffffffffffffffffffffff16021790555088600d8190555087600e8190555086600f8190555085601081905550846011819055508360129080519060200190620001e192919062000272565b50826000806101000a81548173ffffffffffffffffffffffffffffffffffffffff021916908373ffffffffffffffffffffffffffffffffffffffff16021790555081600160006101000a81548173ffffffffffffffffffffffffffffffffffffffff021916908373ffffffffffffffffffffffffffffffffffffffff16021790555050505050505050505062000321565b828054600181600116156101000203166002900490600052602060002090601f016020900481019282601f10620002b557805160ff1916838001178555620002e6565b82800160010185558215620002e6579182015b82811115620002e5578251825591602001919060010190620002c8565b5b509050620002f59190620002f9565b5090565b6200031e91905b808211156200031a57600081600090555060010162000300565b5090565b90565b6147e680620003316000396000f3fe60806040526004361061019c5760003560e01c806384ac26d4116100ec578063dfbf53ae1161008a578063f040279f11610064578063f040279f14610a63578063f4fbfd6914610b2b578063f58fef8e14610b97578063fcc8f79314610bae5761019c565b8063dfbf53ae146109b6578063e493ef8c14610a0d578063eff0811914610a385761019c565b8063c84e1137116100c6578063c84e1137146107b1578063c90a7e8d146107bb578063d13a15f314610934578063d57bde791461098b5761019c565b806384ac26d4146106d7578063ba829d71146106ee578063c6e1ec4e146107195761019c565b806364876f6e1161015957806374b11d8a1161013357806374b11d8a1461061a5780637a183e841461064557806381806bb51461067357806382482f7c1461069e5761019c565b806364876f6e1461040757806369bd56091461046c5780636bc6ecc9146105c55761019c565b8063025cfe0d146101a1578063101d45791461028f5780632200b63e1461030a57806325aff27a146103355780634ba9a927146103c557806357ea89b6146103f0575b600080fd5b3480156101ad57600080fd5b50610267600480360360208110156101c457600080fd5b81019080803590602001906401000000008111156101e157600080fd5b8201836020820111156101f357600080fd5b8035906020019184600183028401116401000000008311171561021557600080fd5b91908080601f016020809104026020016040519081016040528093929190818152602001838380828437600081840152601f19601f820116905080830192505050505050509192919290505050610ca7565b6040518084815260200183815260200182151515158152602001935050505060405180910390f35b34801561029b57600080fd5b506102c8600480360360208110156102b257600080fd5b8101908080359060200190929190505050610f28565b604051808273ffffffffffffffffffffffffffffffffffffffff1673ffffffffffffffffffffffffffffffffffffffff16815260200191505060405180910390f35b34801561031657600080fd5b5061031f610f64565b6040518082815260200191505060405180910390f35b34801561034157600080fd5b5061034a610f6a565b6040518080602001828103825283818151815260200191508051906020019080838360005b8381101561038a57808201518184015260208101905061036f565b50505050905090810190601f1680156103b75780820380516001836020036101000a031916815260200191505b509250505060405180910390f35b3480156103d157600080fd5b506103da611008565b6040518082815260200191505060405180910390f35b3480156103fc57600080fd5b5061040561100e565b005b34801561041357600080fd5b5061046a6004803603606081101561042a57600080fd5b81019080803573ffffffffffffffffffffffffffffffffffffffff16906020019092919080359060200190929190803590602001909291905050506113e7565b005b34801561047857600080fd5b506105c36004803603604081101561048f57600080fd5b81019080803590602001906401000000008111156104ac57600080fd5b8201836020820111156104be57600080fd5b803590602001918460208302840111640100000000831117156104e057600080fd5b919080806020026020016040519081016040528093929190818152602001838360200280828437600081840152601f19601f8201169050808301925050505050505091929192908035906020019064010000000081111561054057600080fd5b82018360208201111561055257600080fd5b8035906020019184602083028401116401000000008311171561057457600080fd5b919080806020026020016040519081016040528093929190818152602001838360200280828437600081840152601f19601f8201169050808301925050505050505091929192905050506118f6565b005b3480156105d157600080fd5b506105da612f44565b6040518086815260200185815260200184815260200183815260200182600581111561060257fe5b60ff1681526020019550505050505060405180910390f35b34801561062657600080fd5b5061062f612f79565b6040518082815260200191505060405180910390f35b6106716004803603602081101561065b57600080fd5b8101908080359060200190929190505050612f7f565b005b34801561067f57600080fd5b50610688613574565b6040518082815260200191505060405180910390f35b3480156106aa57600080fd5b506106b361357a565b604051808260058111156106c357fe5b60ff16815260200191505060405180910390f35b3480156106e357600080fd5b506106ec61358d565b005b3480156106fa57600080fd5b506107036138c0565b6040518082815260200191505060405180910390f35b34801561072557600080fd5b506107686004803603602081101561073c57600080fd5b81019080803573ffffffffffffffffffffffffffffffffffffffff1690602001909291905050506138c6565b6040518087151515158152602001861515151581526020018515151515815260200184151515158152602001838152602001828152602001965050505050505060405180910390f35b6107b9613a8a565b005b3480156107c757600080fd5b50610932600480360360608110156107de57600080fd5b81019080803573ffffffffffffffffffffffffffffffffffffffff1690602001909291908035906020019064010000000081111561081b57600080fd5b82018360208201111561082d57600080fd5b8035906020019184602083028401116401000000008311171561084f57600080fd5b919080806020026020016040519081016040528093929190818152602001838360200280828437600081840152601f19601f820116905080830192505050505050509192919290803590602001906401000000008111156108af57600080fd5b8201836020820111156108c157600080fd5b803590602001918460208302840111640100000000831117156108e357600080fd5b919080806020026020016040519081016040528093929190818152602001838360200280828437600081840152601f19601f820116905080830192505050505050509192919290505050613c65565b005b34801561094057600080fd5b50610949614182565b604051808273ffffffffffffffffffffffffffffffffffffffff1673ffffffffffffffffffffffffffffffffffffffff16815260200191505060405180910390f35b34801561099757600080fd5b506109a06141a8565b6040518082815260200191505060405180910390f35b3480156109c257600080fd5b506109cb6141ae565b604051808273ffffffffffffffffffffffffffffffffffffffff1673ffffffffffffffffffffffffffffffffffffffff16815260200191505060405180910390f35b348015610a1957600080fd5b50610a226141d4565b6040518082815260200191505060405180910390f35b348015610a4457600080fd5b50610a4d6141da565b6040518082815260200191505060405180910390f35b348015610a6f57600080fd5b50610b2960048036036020811015610a8657600080fd5b8101908080359060200190640100000000811115610aa357600080fd5b820183602082011115610ab557600080fd5b80359060200191846001830284011164010000000083111715610ad757600080fd5b91908080601f016020809104026020016040519081016040528093929190818152602001838380828437600081840152601f19601f8201169050808301925050505050505091929192905050506141e0565b005b348015610b3757600080fd5b50610b40614423565b6040518080602001828103825283818151815260200191508051906020019060200280838360005b83811015610b83578082015181840152602081019050610b68565b505050509050019250505060405180910390f35b348015610ba357600080fd5b50610bac6144b1565b005b348015610bba57600080fd5b50610bfd60048036036020811015610bd157600080fd5b81019080803573ffffffffffffffffffffffffffffffffffffffff1690602001909291905050506144ec565b6040518087815260200186815260200180602001851515151581526020018415151515815260200183151515158152602001828103825286818151815260200191508051906020019080838360005b83811015610c67578082015181840152602081019050610c4c565b50505050905090810190601f168015610c945780820380516001836020036101000a031916815260200191505b5097505050505050505060405180910390f35b60008060008060009050606085905060008090506000809050600080905060606040518060400160405280600181526020017f3000000000000000000000000000000000000000000000000000000000000000815250905060606040518060400160405280600181526020017f3900000000000000000000000000000000000000000000000000000000000000815250905060008090505b8651811015610f105782600081518110610d5557fe5b602001015160f81c60f81b7effffffffffffffffffffffffffffffffffffffffffffffffffffffffffffff1916878281518110610d8e57fe5b602001015160f81c60f81b7effffffffffffffffffffffffffffffffffffffffffffffffffffffffffffff191610158015610e3a575081600081518110610dd157fe5b602001015160f81c60f81b7effffffffffffffffffffffffffffffffffffffffffffffffffffffffffffff1916878281518110610e0a57fe5b602001015160f81c60f81b7effffffffffffffffffffffffffffffffffffffffffffffffffffffffffffff191611155b15610e7b578493506030878281518110610e5057fe5b602001015160f81c60f81b60f81c60ff1603600a860201945084841115610e7657600197505b610f03565b7f2c00000000000000000000000000000000000000000000000000000000000000878281518110610ea857fe5b602001015160f81c60f81b7effffffffffffffffffffffffffffffffffffffffffffffffffffffffffffff19161415610efd5760008614610eec5760019750610ef8565b84955060009450600093505b610f02565b600197505b5b8080600101915050610d3f565b50848488995099509950505050505050509193909250565b600a8181548110610f3557fe5b906000526020600020016000915054906101000a900473ffffffffffffffffffffffffffffffffffffffff1681565b60105481565b60128054600181600116156101000203166002900480601f0160208091040260200160405190810160405280929190818152602001828054600181600116156101000203166002900480156110005780601f10610fd557610100808354040283529160200191611000565b820191906000526020600020905b815481529060010190602001808311610fe357829003601f168201915b505050505081565b600d5481565b60058081111561101a57fe5b600160159054906101000a900460ff16600581111561103557fe5b14806110425750600f5442115b6110b4576040517f08c379a000000000000000000000000000000000000000000000000000000000815260040180806020018281038252601e8152602001807f426964646572206e6f7420616c6c6f77656420746f205769746864726177000081525060200191505060405180910390fd5b601360009054906101000a900473ffffffffffffffffffffffffffffffffffffffff1673ffffffffffffffffffffffffffffffffffffffff163373ffffffffffffffffffffffffffffffffffffffff161415611178576040517f08c379a00000000000000000000000000000000000000000000000000000000081526004018080602001828103825260168152602001807f57696e6e65722063616e6e6f742077697468647261770000000000000000000081525060200191505060405180910390fd5b60001515600960003373ffffffffffffffffffffffffffffffffffffffff1673ffffffffffffffffffffffffffffffffffffffff16815260200190815260200160002060030160019054906101000a900460ff16151514801561122e575060011515600960003373ffffffffffffffffffffffffffffffffffffffff1673ffffffffffffffffffffffffffffffffffffffff16815260200190815260200160002060030160029054906101000a900460ff161515145b611283576040517f08c379a000000000000000000000000000000000000000000000000000000000815260040180806020018281038252602681526020018061470d6026913960400191505060405180910390fd5b60001515600160149054906101000a900460ff1615151461130c576040517f08c379a000000000000000000000000000000000000000000000000000000000815260040180806020018281038252601c8152602001807f57697468647261772069732063757272656e746c79206c6f636b65640000000081525060200191505060405180910390fd5b60018060146101000a81548160ff0219169083151502179055503373ffffffffffffffffffffffffffffffffffffffff166108fc6011549081150290604051600060405180830381858888f1935050505015801561136e573d6000803e3d6000fd5b506001600960003373ffffffffffffffffffffffffffffffffffffffff1673ffffffffffffffffffffffffffffffffffffffff16815260200190815260200160002060030160016101000a81548160ff0219169083151502179055506000600160146101000a81548160ff021916908315150217905550565b600c60009054906101000a900473ffffffffffffffffffffffffffffffffffffffff1673ffffffffffffffffffffffffffffffffffffffff163373ffffffffffffffffffffffffffffffffffffffff161461148d576040517f08c379a000000000000000000000000000000000000000000000000000000000815260040180806020018281038252602a815260200180614791602a913960400191505060405180910390fd5b600e544211801561149f5750600f5442105b806114b65750600460009054906101000a900460ff165b61150b576040517f08c379a000000000000000000000000000000000000000000000000000000000815260040180806020018281038252602d815260200180614733602d913960400191505060405180910390fd5b6000600581111561151857fe5b600160159054906101000a900460ff16600581111561153357fe5b146115a6576040517f08c379a00000000000000000000000000000000000000000000000000000000081526004018080602001828103825260208152602001807f436c61696d57696e6e657220686173206265656e20646f6e65206265666f726581525060200191505060405180910390fd5b60011515600960008573ffffffffffffffffffffffffffffffffffffffff1673ffffffffffffffffffffffffffffffffffffffff16815260200190815260200160002060030160029054906101000a900460ff16151514611652576040517f08c379a00000000000000000000000000000000000000000000000000000000081526004018080602001828103825260318152602001806147606031913960400191505060405180910390fd5b60065482106116c9576040517f08c379a00000000000000000000000000000000000000000000000000000000081526004018080602001828103825260178152602001807f4269642065786365656473206d6178696d756d2062696400000000000000000081525060200191505060405180910390fd5b6000809054906101000a900473ffffffffffffffffffffffffffffffffffffffff1673ffffffffffffffffffffffffffffffffffffffff1663c30918d18383600960008873ffffffffffffffffffffffffffffffffffffffff1673ffffffffffffffffffffffffffffffffffffffff16815260200190815260200160002060000154600960008973ffffffffffffffffffffffffffffffffffffffff1673ffffffffffffffffffffffffffffffffffffffff168152602001908152602001600020600101546040518563ffffffff1660e01b815260040180858152602001848152602001838152602001828152602001945050505050602060405180830381600087803b1580156117d957600080fd5b505af11580156117ed573d6000803e3d6000fd5b505050506040513d602081101561180357600080fd5b8101908080519060200190929190505050611886576040517f08c379a000000000000000000000000000000000000000000000000000000000815260040180806020018281038252601c8152602001807f4f70656e2077696e6e657220636f6d6d6974206e6f742076616c69640000000081525060200191505060405180910390fd5b82601360006101000a81548173ffffffffffffffffffffffffffffffffffffffff021916908373ffffffffffffffffffffffffffffffffffffffff1602179055508160148190555060018060156101000a81548160ff021916908360058111156118ec57fe5b0217905550505050565b6003600581111561190357fe5b600160159054906101000a900460ff16600581111561191e57fe5b148061194f57506004600581111561193257fe5b600160159054906101000a900460ff16600581111561194d57fe5b145b6119c1576040517f08c379a000000000000000000000000000000000000000000000000000000000815260040180806020018281038252601f8152602001807f5374617465206e6f7420566572696679206f722056657269667944656c74610081525060200191505060405180910390fd5b600080905060006003544060001c90506001600b81905550600080905060008090506000805b8751841080156119fb575060078054905083105b15612344576000600b5486161415611df157600654600554896002870181518110611a2257fe5b60200260200101518a8781518110611a3657fe5b60200260200101510181611a4657fe5b0614611aba576040517f08c379a000000000000000000000000000000000000000000000000000000000815260040180806020018281038252600e8152602001807f57726f6e6720726573706f6e736500000000000000000000000000000000000081525060200191505060405180910390fd5b6000809054906101000a900473ffffffffffffffffffffffffffffffffffffffff1673ffffffffffffffffffffffffffffffffffffffff1663c30918d1898681518110611b0357fe5b60200260200101518a6001880181518110611b1a57fe5b602002602001015160078781548110611b2f57fe5b906000526020600020015460076001890181548110611b4a57fe5b90600052602060002001546040518563ffffffff1660e01b815260040180858152602001848152602001838152602001828152602001945050505050602060405180830381600087803b158015611ba057600080fd5b505af1158015611bb4573d6000803e3d6000fd5b505050506040513d6020811015611bca57600080fd5b8101908080519060200190929190505050611c4d576040517f08c379a000000000000000000000000000000000000000000000000000000000815260040180806020018281038252600e8152602001807f4e6f74207665726966696564203100000000000000000000000000000000000081525060200191505060405180910390fd5b6000809054906101000a900473ffffffffffffffffffffffffffffffffffffffff1673ffffffffffffffffffffffffffffffffffffffff1663c30918d1896002870181518110611c9957fe5b60200260200101518a6003880181518110611cb057fe5b602002602001015160076002880181548110611cc857fe5b906000526020600020015460076003890181548110611ce357fe5b90600052602060002001546040518563ffffffff1660e01b815260040180858152602001848152602001838152602001828152602001945050505050602060405180830381600087803b158015611d3957600080fd5b505af1158015611d4d573d6000803e3d6000fd5b505050506040513d6020811015611d6357600080fd5b8101908080519060200190929190505050611de6576040517f08c379a000000000000000000000000000000000000000000000000000000000815260040180806020018281038252600e8152602001807f4e6f74207665726966696564203200000000000000000000000000000000000081525060200191505060405180910390fd5b600484019350612324565b6001886002860181518110611e0257fe5b60200260200101511415611fe6576000809054906101000a900473ffffffffffffffffffffffffffffffffffffffff1673ffffffffffffffffffffffffffffffffffffffff1663cde6248360096000600260009054906101000a900473ffffffffffffffffffffffffffffffffffffffff1673ffffffffffffffffffffffffffffffffffffffff1673ffffffffffffffffffffffffffffffffffffffff1681526020019081526020016000206000015460096000600260009054906101000a900473ffffffffffffffffffffffffffffffffffffffff1673ffffffffffffffffffffffffffffffffffffffff1673ffffffffffffffffffffffffffffffffffffffff1681526020019081526020016000206001015460078781548110611f2457fe5b906000526020600020015460076001890181548110611f3f57fe5b90600052602060002001546040518563ffffffff1660e01b8152600401808581526020018481526020018381526020018281526020019450505050506040805180830381600087803b158015611f9457600080fd5b505af1158015611fa8573d6000803e3d6000fd5b505050506040513d6040811015611fbe57600080fd5b81019080805190602001909291908051906020019092919050505080925081935050506121bb565b6000809054906101000a900473ffffffffffffffffffffffffffffffffffffffff1673ffffffffffffffffffffffffffffffffffffffff1663cde6248360096000600260009054906101000a900473ffffffffffffffffffffffffffffffffffffffff1673ffffffffffffffffffffffffffffffffffffffff1673ffffffffffffffffffffffffffffffffffffffff1681526020019081526020016000206000015460096000600260009054906101000a900473ffffffffffffffffffffffffffffffffffffffff1673ffffffffffffffffffffffffffffffffffffffff1673ffffffffffffffffffffffffffffffffffffffff16815260200190815260200160002060010154600760028801815481106120fd57fe5b90600052602060002001546007600389018154811061211857fe5b90600052602060002001546040518563ffffffff1660e01b8152600401808581526020018481526020018381526020018281526020019450505050506040805180830381600087803b15801561216d57600080fd5b505af1158015612181573d6000803e3d6000fd5b505050506040513d604081101561219757600080fd5b81019080805190602001909291908051906020019092919050505080925081935050505b6000809054906101000a900473ffffffffffffffffffffffffffffffffffffffff1673ffffffffffffffffffffffffffffffffffffffff1663c30918d189868151811061220457fe5b60200260200101518a600188018151811061221b57fe5b602002602001015185856040518563ffffffff1660e01b815260040180858152602001848152602001838152602001828152602001945050505050602060405180830381600087803b15801561227057600080fd5b505af1158015612284573d6000803e3d6000fd5b505050506040513d602081101561229a57600080fd5b810190808051906020019092919050505061231d576040517f08c379a000000000000000000000000000000000000000000000000000000000815260040180806020018281038252600e8152602001807f4e6f74207665726966696564203300000000000000000000000000000000000081525060200191505060405180910390fd5b6003840193505b6004830192506001600b54901b600b8190555085806001019650506119e7565b600460019054906101000a900460ff1660ff168660ff16146123ce576040517f08c379a000000000000000000000000000000000000000000000000000000000815260040180806020018281038252600b8152602001807f77726f6e6720636f756e7400000000000000000000000000000000000000000081525060200191505060405180910390fd5b6000955060009350600092505b8651841080156123ef575060088054905083105b15612e10576000600b54861614156127e55760065460055488600287018151811061241657fe5b602002602001015189878151811061242a57fe5b6020026020010151018161243a57fe5b06146124ae576040517f08c379a00000000000000000000000000000000000000000000000000000000081526004018080602001828103825260138152602001807f77726f6e672064656c7461526573706f6e73650000000000000000000000000081525060200191505060405180910390fd5b6000809054906101000a900473ffffffffffffffffffffffffffffffffffffffff1673ffffffffffffffffffffffffffffffffffffffff1663c30918d18886815181106124f757fe5b602002602001015189600188018151811061250e57fe5b60200260200101516008878154811061252357fe5b90600052602060002001546008600189018154811061253e57fe5b90600052602060002001546040518563ffffffff1660e01b815260040180858152602001848152602001838152602001828152602001945050505050602060405180830381600087803b15801561259457600080fd5b505af11580156125a8573d6000803e3d6000fd5b505050506040513d60208110156125be57600080fd5b8101908080519060200190929190505050612641576040517f08c379a00000000000000000000000000000000000000000000000000000000081526004018080602001828103825260148152602001807f64656c7461206e6f74207665726966696564203100000000000000000000000081525060200191505060405180910390fd5b6000809054906101000a900473ffffffffffffffffffffffffffffffffffffffff1673ffffffffffffffffffffffffffffffffffffffff1663c30918d188600287018151811061268d57fe5b60200260200101518960038801815181106126a457fe5b6020026020010151600860028801815481106126bc57fe5b9060005260206000200154600860038901815481106126d757fe5b90600052602060002001546040518563ffffffff1660e01b815260040180858152602001848152602001838152602001828152602001945050505050602060405180830381600087803b15801561272d57600080fd5b505af1158015612741573d6000803e3d6000fd5b505050506040513d602081101561275757600080fd5b81019080805190602001909291905050506127da576040517f08c379a00000000000000000000000000000000000000000000000000000000081526004018080602001828103825260148152602001807f64656c7461206e6f74207665726966696564203200000000000000000000000081525060200191505060405180910390fd5b600484019350612df0565b6000809054906101000a900473ffffffffffffffffffffffffffffffffffffffff1673ffffffffffffffffffffffffffffffffffffffff1663882033d160096000601360009054906101000a900473ffffffffffffffffffffffffffffffffffffffff1673ffffffffffffffffffffffffffffffffffffffff1673ffffffffffffffffffffffffffffffffffffffff1681526020019081526020016000206000015460096000601360009054906101000a900473ffffffffffffffffffffffffffffffffffffffff1673ffffffffffffffffffffffffffffffffffffffff1673ffffffffffffffffffffffffffffffffffffffff1681526020019081526020016000206001015460096000600260009054906101000a900473ffffffffffffffffffffffffffffffffffffffff1673ffffffffffffffffffffffffffffffffffffffff1673ffffffffffffffffffffffffffffffffffffffff1681526020019081526020016000206000015460096000600260009054906101000a900473ffffffffffffffffffffffffffffffffffffffff1673ffffffffffffffffffffffffffffffffffffffff1673ffffffffffffffffffffffffffffffffffffffff168152602001908152602001600020600101546040518563ffffffff1660e01b8152600401808581526020018481526020018381526020018281526020019450505050506040805180830381600087803b158015612a0057600080fd5b505af1158015612a14573d6000803e3d6000fd5b505050506040513d6040811015612a2a57600080fd5b81019080805190602001909291908051906020019092919050505080925081935050506001876002860181518110612a5e57fe5b60200260200101511415612b7a576000809054906101000a900473ffffffffffffffffffffffffffffffffffffffff1673ffffffffffffffffffffffffffffffffffffffff1663cde62483838360088781548110612ab857fe5b906000526020600020015460086001890181548110612ad357fe5b90600052602060002001546040518563ffffffff1660e01b8152600401808581526020018481526020018381526020018281526020019450505050506040805180830381600087803b158015612b2857600080fd5b505af1158015612b3c573d6000803e3d6000fd5b505050506040513d6040811015612b5257600080fd5b8101908080519060200190929190805190602001909291905050508092508193505050612c87565b6000809054906101000a900473ffffffffffffffffffffffffffffffffffffffff1673ffffffffffffffffffffffffffffffffffffffff1663cde62483838360086002880181548110612bc957fe5b906000526020600020015460086003890181548110612be457fe5b90600052602060002001546040518563ffffffff1660e01b8152600401808581526020018481526020018381526020018281526020019450505050506040805180830381600087803b158015612c3957600080fd5b505af1158015612c4d573d6000803e3d6000fd5b505050506040513d6040811015612c6357600080fd5b81019080805190602001909291908051906020019092919050505080925081935050505b6000809054906101000a900473ffffffffffffffffffffffffffffffffffffffff1673ffffffffffffffffffffffffffffffffffffffff1663c30918d1888681518110612cd057fe5b6020026020010151896001880181518110612ce757fe5b602002602001015185856040518563ffffffff1660e01b815260040180858152602001848152602001838152602001828152602001945050505050602060405180830381600087803b158015612d3c57600080fd5b505af1158015612d50573d6000803e3d6000fd5b505050506040513d6020811015612d6657600080fd5b8101908080519060200190929190505050612de9576040517f08c379a00000000000000000000000000000000000000000000000000000000081526004018080602001828103825260148152602001807f64656c7461206e6f74207665726966696564203300000000000000000000000081525060200191505060405180910390fd5b6003840193505b6004830192506001600b54901b600b8190555085806001019650506123db565b600460019054906101000a900460ff1660ff168660ff1614612e9a576040517f08c379a000000000000000000000000000000000000000000000000000000000815260040180806020018281038252600b8152602001807f77726f6e6720636f756e7400000000000000000000000000000000000000000081525060200191505060405180910390fd5b600160096000600260009054906101000a900473ffffffffffffffffffffffffffffffffffffffff1673ffffffffffffffffffffffffffffffffffffffff1673ffffffffffffffffffffffffffffffffffffffff16815260200190815260200160002060030160006101000a81548160ff02191690831515021790555060018060156101000a81548160ff02191690836005811115612f3557fe5b02179055505050505050505050565b6000806000806000600d54600e54600f54601154600160159054906101000a900460ff16945094509450945094509091929394565b60065481565b600d5480421080612f9c5750600460009054906101000a900460ff165b61300e576040517f08c379a000000000000000000000000000000000000000000000000000000000815260040180806020018281038252600c8152602001807f4e6f742074696d6520796574000000000000000000000000000000000000000081525060200191505060405180910390fd5b601054600a805490501061308a576040517f08c379a00000000000000000000000000000000000000000000000000000000081526004018080602001828103825260108152602001807f546f6f206d616e7920626964646572730000000000000000000000000000000081525060200191505060405180910390fd5b601154341015613102576040517f08c379a000000000000000000000000000000000000000000000000000000000815260040180806020018281038252601b8152602001807f4665652073656e742062656c6f7720666169726e65737320666565000000000081525060200191505060405180910390fd5b60001515600960003373ffffffffffffffffffffffffffffffffffffffff1673ffffffffffffffffffffffffffffffffffffffff16815260200190815260200160002060030160029054906101000a900460ff161515146131cb576040517f08c379a00000000000000000000000000000000000000000000000000000000081526004018080602001828103825260158152602001807f4269646465722068617320626964206265666f7265000000000000000000000081525060200191505060405180910390fd5b6060600160009054906101000a900473ffffffffffffffffffffffffffffffffffffffff1673ffffffffffffffffffffffffffffffffffffffff1663c87b56dd846040518263ffffffff1660e01b81526004018082815260200191505060006040518083038186803b15801561324057600080fd5b505afa158015613254573d6000803e3d6000fd5b505050506040513d6000823e3d601f19601f82011682018060405250602081101561327e57600080fd5b81019080805164010000000081111561329657600080fd5b828101905060208101848111156132ac57600080fd5b81518560018202830111640100000000821117156132c957600080fd5b5050929190505050905060008060006132e184610ca7565b9250925092506000151581151514613361576040517f08c379a00000000000000000000000000000000000000000000000000000000081526004018080602001828103825260168152602001807f42696420636f6d6d69746d656e7420696e76616c69640000000000000000000081525060200191505060405180910390fd5b600160009054906101000a900473ffffffffffffffffffffffffffffffffffffffff1673ffffffffffffffffffffffffffffffffffffffff166342966c68876040518263ffffffff1660e01b815260040180828152602001915050600060405180830381600087803b1580156133d657600080fd5b505af11580156133ea573d6000803e3d6000fd5b505050506040518060c0016040528084815260200183815260200160405180602001604052806000815250815260200160001515815260200160001515815260200160011515815250600960003373ffffffffffffffffffffffffffffffffffffffff1673ffffffffffffffffffffffffffffffffffffffff168152602001908152602001600020600082015181600001556020820151816001015560408201518160020190805190602001906134a29291906145e7565b5060608201518160030160006101000a81548160ff02191690831515021790555060808201518160030160016101000a81548160ff02191690831515021790555060a08201518160030160026101000a81548160ff021916908315150217905550905050600a3390806001815401808255809150509060018203906000526020600020016000909192909190916101000a81548173ffffffffffffffffffffffffffffffffffffffff021916908373ffffffffffffffffffffffffffffffffffffffff16021790555050505050505050565b60115481565b600160159054906101000a900460ff1681565b600c60009054906101000a900473ffffffffffffffffffffffffffffffffffffffff1673ffffffffffffffffffffffffffffffffffffffff163373ffffffffffffffffffffffffffffffffffffffff1614613633576040517f08c379a000000000000000000000000000000000000000000000000000000000815260040180806020018281038252602a815260200180614791602a913960400191505060405180910390fd5b600e54421180156136455750600f5442105b8061365c5750600460009054906101000a900460ff165b6136b1576040517f08c379a000000000000000000000000000000000000000000000000000000000815260040180806020018281038252602d815260200180614733602d913960400191505060405180910390fd5b60008090505b600a8054905081101561389957601360009054906101000a900473ffffffffffffffffffffffffffffffffffffffff1673ffffffffffffffffffffffffffffffffffffffff16600a828154811061370a57fe5b9060005260206000200160009054906101000a900473ffffffffffffffffffffffffffffffffffffffff1673ffffffffffffffffffffffffffffffffffffffff161461388c5760096000600a838154811061376157fe5b9060005260206000200160009054906101000a900473ffffffffffffffffffffffffffffffffffffffff1673ffffffffffffffffffffffffffffffffffffffff1673ffffffffffffffffffffffffffffffffffffffff16815260200190815260200160002060030160009054906101000a900460ff1661388b576000601360006101000a81548173ffffffffffffffffffffffffffffffffffffffff021916908373ffffffffffffffffffffffffffffffffffffffff1602179055506040517f08c379a000000000000000000000000000000000000000000000000000000000815260040180806020018281038252600c8152602001807f6e6f74207665726966696564000000000000000000000000000000000000000081525060200191505060405180910390fd5b5b80806001019150506136b7565b506005600160156101000a81548160ff021916908360058111156138b957fe5b0217905550565b600e5481565b6000806000806000806000600960008973ffffffffffffffffffffffffffffffffffffffff1673ffffffffffffffffffffffffffffffffffffffff16815260200190815260200160002060030160029054906101000a900460ff1690506000600960008a73ffffffffffffffffffffffffffffffffffffffff1673ffffffffffffffffffffffffffffffffffffffff16815260200190815260200160002060030160019054906101000a900460ff1690506000601054600a80549050101590506000601360009054906101000a900473ffffffffffffffffffffffffffffffffffffffff1673ffffffffffffffffffffffffffffffffffffffff168b73ffffffffffffffffffffffffffffffffffffffff161490506000600960008d73ffffffffffffffffffffffffffffffffffffffff1673ffffffffffffffffffffffffffffffffffffffff1681526020019081526020016000206000015490506000600960008e73ffffffffffffffffffffffffffffffffffffffff1673ffffffffffffffffffffffffffffffffffffffff1681526020019081526020016000206001015490508584868585859b509b509b509b509b509b5050505050505091939550919395565b600580811115613a9657fe5b600160159054906101000a900460ff166005811115613ab157fe5b14613b24576040517f08c379a00000000000000000000000000000000000000000000000000000000081526004018080602001828103825260138152602001807f4e6f742074696d6520746f20706179207965740000000000000000000000000081525060200191505060405180910390fd5b601360009054906101000a900473ffffffffffffffffffffffffffffffffffffffff1673ffffffffffffffffffffffffffffffffffffffff163373ffffffffffffffffffffffffffffffffffffffff1614613be7576040517f08c379a00000000000000000000000000000000000000000000000000000000081526004018080602001828103825260188152602001807f426964646572206973206e6f74207468652077696e6e6572000000000000000081525060200191505060405180910390fd5b60115460145403341015613c63576040517f08c379a000000000000000000000000000000000000000000000000000000000815260040180806020018281038252601f8152602001807f56616c7565206973206c657373207468616e2070726f6d69736564206269640081525060200191505060405180910390fd5b565b600c60009054906101000a900473ffffffffffffffffffffffffffffffffffffffff1673ffffffffffffffffffffffffffffffffffffffff163373ffffffffffffffffffffffffffffffffffffffff1614613d0b576040517f08c379a000000000000000000000000000000000000000000000000000000000815260040180806020018281038252602a815260200180614791602a913960400191505060405180910390fd5b600e5442118015613d1d5750600f5442105b80613d345750600460009054906101000a900460ff165b613d89576040517f08c379a000000000000000000000000000000000000000000000000000000000815260040180806020018281038252602d815260200180614733602d913960400191505060405180910390fd5b60016005811115613d9657fe5b600160159054906101000a900460ff166005811115613db157fe5b1480613dc95750600460009054906101000a900460ff165b613e3b576040517f08c379a000000000000000000000000000000000000000000000000000000000815260040180806020018281038252601e8152602001807f41756374696f6e207374617465206973206e6f74204368616c6c656e6765000081525060200191505060405180910390fd5b60048060019054906101000a900460ff160260ff16825114613ec5576040517f08c379a00000000000000000000000000000000000000000000000000000000081526004018080602001828103825260178152602001807f436f6d6d697473206f662077726f6e67206c656e67746800000000000000000081525060200191505060405180910390fd5b8051825114613f3c576040517f08c379a000000000000000000000000000000000000000000000000000000000815260040180806020018281038252601c8152602001807f64656c7461436f6d6d697473206f662077726f6e67206c656e6774680000000081525060200191505060405180910390fd5b60011515600960008573ffffffffffffffffffffffffffffffffffffffff1673ffffffffffffffffffffffffffffffffffffffff16815260200190815260200160002060030160029054906101000a900460ff16151514614005576040517f08c379a00000000000000000000000000000000000000000000000000000000081526004018080602001828103825260158152602001807f42696464657220646f6573206e6f74206578697374000000000000000000000081525060200191505060405180910390fd5b82600260006101000a81548173ffffffffffffffffffffffffffffffffffffffff021916908373ffffffffffffffffffffffffffffffffffffffff1602179055504360038190555060008090505b8251811015614158578060078054905014156140ec57600783828151811061407757fe5b6020026020010151908060018154018082558091505090600182039060005260206000200160009091929091909150555060088282815181106140b657fe5b6020026020010151908060018154018082558091505090600182039060005260206000200160009091929091909150555061414b565b8281815181106140f857fe5b60200260200101516007828154811061410d57fe5b906000526020600020018190555081818151811061412757fe5b60200260200101516008828154811061413c57fe5b90600052602060002001819055505b8080600101915050614053565b506003600160156101000a81548160ff0219169083600581111561417857fe5b0217905550505050565b600c60009054906101000a900473ffffffffffffffffffffffffffffffffffffffff1681565b60145481565b601360009054906101000a900473ffffffffffffffffffffffffffffffffffffffff1681565b60055481565b600f5481565b600e54804210806141fd5750600460009054906101000a900460ff165b61426f576040517f08c379a000000000000000000000000000000000000000000000000000000000815260040180806020018281038252600c8152602001807f4e6f742074696d6520796574000000000000000000000000000000000000000081525060200191505060405180910390fd5b600d548042118061428c5750600460009054906101000a900460ff165b6142fe576040517f08c379a000000000000000000000000000000000000000000000000000000000815260040180806020018281038252600f8152602001807f54696d652068617320706173736564000000000000000000000000000000000081525060200191505060405180910390fd5b60011515600960003373ffffffffffffffffffffffffffffffffffffffff1673ffffffffffffffffffffffffffffffffffffffff16815260200190815260200160002060030160029054906101000a900460ff161515146143c7576040517f08c379a00000000000000000000000000000000000000000000000000000000081526004018080602001828103825260158152602001807f42696464657220646f6573206e6f74206578697374000000000000000000000081525060200191505060405180910390fd5b82600960003373ffffffffffffffffffffffffffffffffffffffff1673ffffffffffffffffffffffffffffffffffffffff168152602001908152602001600020600201908051906020019061441d929190614667565b50505050565b6060600a8054806020026020016040519081016040528092919081815260200182805480156144a757602002820191906000526020600020905b8160009054906101000a900473ffffffffffffffffffffffffffffffffffffffff1673ffffffffffffffffffffffffffffffffffffffff168152602001906001019080831161445d575b5050505050905090565b600c60009054906101000a900473ffffffffffffffffffffffffffffffffffffffff1673ffffffffffffffffffffffffffffffffffffffff16ff5b6009602052806000526040600020600091509050806000015490806001015490806002018054600181600116156101000203166002900480601f0160208091040260200160405190810160405280929190818152602001828054600181600116156101000203166002900480156145a45780601f10614579576101008083540402835291602001916145a4565b820191906000526020600020905b81548152906001019060200180831161458757829003601f168201915b5050505050908060030160009054906101000a900460ff16908060030160019054906101000a900460ff16908060030160029054906101000a900460ff16905086565b828054600181600116156101000203166002900490600052602060002090601f016020900481019282601f1061462857805160ff1916838001178555614656565b82800160010185558215614656579182015b8281111561465557825182559160200191906001019061463a565b5b50905061466391906146e7565b5090565b828054600181600116156101000203166002900490600052602060002090601f016020900481019282601f106146a857805160ff19168380011785556146d6565b828001600101855582156146d6579182015b828111156146d55782518255916020019190600101906146ba565b5b5090506146e391906146e7565b5090565b61470991905b808211156147055760008160009055506001016146ed565b5090565b9056fe426964646572206861732077697468647261776e206f7220646f6573206e6f742065786973744e6f77206973206e6f74207468652074696d6520746f20706572666f726d2074686973206f7065726174696f6e4269646465722074686174206973206465656d656420746f2062652077696e6e657220646f6573206e6f742065786973744f6e6c792061756374696f6e6565722063616e20706572666f726d2074686973206f7065726174696f6ea165627a7a723058206d801248e3f5bff8eb94679d4482b43070f327056e778a3b39a0c67667abc5be0029",
  "source": "pragma solidity >0.4.18;\nimport \"./Pedersen.sol\";\nimport \"nightfall/contracts/NFTokenMetadata.sol\";\nimport \"nightfall/contracts/NFTokenShield.sol\";\n\ncontract Auction {\n    enum VerificationStates {Init, Challenge,ChallengeDelta, Verify, VerifyDelta, ValidWinner}\n    struct Bidder {\n        uint commitX;\n        uint commitY;\n        string cipher;\n        bool validProofs;\n        bool paidBack;\n        bool existing;\n    }\n    Pedersen pedersen;\n    NFTokenMetadata nftoken;\n    bool withdrawLock;\n    VerificationStates public states;\n    address private challengedBidder;\n    uint private challengeBlockNumber;\n    bool private testing = true; //for fast testing without checking time intervals\n    uint8 private K = 10; //number of multiple rounds per ZKP\n    uint public Q = 21888242871839275222246405745257275088696311157297823662689037894645226208583;\n    uint public maxBid = 5472060717959818805561601436314318772174077789324455915672259473661306552145;\n    uint[] commits;\n    uint[] deltaCommits;\n    mapping(address => Bidder) public bidders;\n    address[] public indexs;\n    uint mask = 1;\n\n    //Auction Parameters\n    address payable public auctioneerAddress;\n    uint    public bidEndTime;\n    uint    public revealTime;\n    uint    public winnerPaymentTime;\n    uint    public maxBiddersCount;\n    uint    public fairnessFees;\n    string  public auctioneerRSAPublicKey;\n    //these values are set when the auctioneer determines the winner\n    address public winner;\n    uint public highestBid;\n\n    //Constructor = Setting all Parameters and auctioneerAddress as well\n    constructor(uint _bidEndTime, uint _revealTime, uint _winnerPaymentTime, uint _maxBiddersCount,\n     uint _fairnessFees, string memory _auctioneerRSAPublicKey, address pedersenAddress, address NFTokenAddress,\n     address payable _auctioneerAddress)\n     public {\n        auctioneerAddress = _auctioneerAddress;\n        bidEndTime = _bidEndTime;\n        revealTime = _revealTime;\n        winnerPaymentTime = _winnerPaymentTime;\n        maxBiddersCount = _maxBiddersCount;\n        fairnessFees = _fairnessFees;\n        auctioneerRSAPublicKey = _auctioneerRSAPublicKey;\n        pedersen = Pedersen(pedersenAddress);\n        nftoken = NFTokenMetadata(NFTokenAddress);\n        // K = k;\n        // testing = _testing;\n    }\n\n    function BidderData(address account) public view returns(bool, bool, bool, bool, uint, uint) {\n      bool hasBid = bidders[account].existing;\n      bool paidBack = bidders[account].paidBack;\n      bool bidderExceeds = indexs.length>=maxBiddersCount;\n      bool isWinner = account == winner;\n      uint cX = bidders[account].commitX;\n      uint cY = bidders[account].commitY;\n      return(hasBid, bidderExceeds, paidBack, isWinner, cX, cY);\n    }\n\n    function AuctionData() public view returns(uint, uint, uint, uint, VerificationStates){\n      return(bidEndTime, revealTime, winnerPaymentTime, fairnessFees, states);\n    }\n\n    function BiddersAddresses() public view returns(address[] memory){\n      return indexs;\n    }\n\n    // function Bid(uint cX, uint cY) public payable\n    // onlyBefore(bidEndTime)\n    // {\n    //     require(indexs.length < maxBiddersCount, \"Too many bidders\"); //available slot\n    //     require(msg.value >= fairnessFees, \"Fee sent below fairness fee\");  //paying fees\n    //     require(bidders[msg.sender].existing == false, \"Bidder has bid before\");\n    //     bidders[msg.sender] = Bidder(cX, cY,\"\", false, false,true);\n    //     indexs.push(msg.sender);\n    // }\n\n    function Bid(uint256 NFTokenId) public payable\n    onlyBefore(bidEndTime){\n        require(indexs.length < maxBiddersCount, \"Too many bidders\"); //available slot\n        require(msg.value >= fairnessFees, \"Fee sent below fairness fee\");  //paying fees\n        require(bidders[msg.sender].existing == false, \"Bidder has bid before\");\n        string memory tokenURI = nftoken.tokenURI(NFTokenId);\n        (uint commitX, uint commitY, bool hasError) = parseCommits(tokenURI);\n        require(hasError == false, \"Bid commitment invalid\");\n        nftoken.burn(NFTokenId);\n        bidders[msg.sender] = Bidder(commitX, commitY,\"\", false, false,true);\n        indexs.push(msg.sender);\n    }\n\n    function Reveal(string memory cipher) public\n    onlyBefore(revealTime)\n    onlyAfter(bidEndTime)\n    {\n        require(bidders[msg.sender].existing == true, \"Bidder does not exist\"); //existing bidder\n        bidders[msg.sender].cipher = cipher;\n    }\n\n    function ClaimWinner(address _winner, uint _bid, uint _r) public challengeByAuctioneer {\n        require(states == VerificationStates.Init, \"ClaimWinner has been done before\");\n        require(bidders[_winner].existing == true, \"Bidder that is deemed to be winner does not exist\"); //existing bidder\n        require(_bid < maxBid, \"Bid exceeds maximum bid\"); //valid bid\n        require(pedersen.Verify(_bid, _r, bidders[_winner].commitX, bidders[_winner].commitY),\n        \"Open winner commit not valid\"); //valid open of winner's commit\n        winner = _winner;\n        highestBid = _bid;\n        states = VerificationStates.Challenge;\n    }\n    function ZKPCommit(address y, uint[] memory _commits, uint[] memory _deltaCommits) public challengeByAuctioneer {\n        require(states == VerificationStates.Challenge || testing, \"Auction state is not Challenge\");\n        require(_commits.length == K*4, \"Commits of wrong length\");\n        require(_commits.length == _deltaCommits.length, \"deltaCommits of wrong length\");\n        require(bidders[y].existing == true, \"Bidder does not exist\"); //existing bidder\n        challengedBidder = y;\n        challengeBlockNumber = block.number;\n        for(uint i = 0; i < _commits.length; i++)\n            if(commits.length == i) {\n                commits.push(_commits[i]);\n                deltaCommits.push(_deltaCommits[i]);\n            } else {\n                commits[i] = _commits[i];\n                deltaCommits[i] = _deltaCommits[i];\n            }\n        states = VerificationStates.Verify;\n    }\n\n    function ZKPVerify(uint[] memory response, uint[] memory deltaResponses) public {\n        require(states == VerificationStates.Verify || states == VerificationStates.VerifyDelta,\n        \"State not Verify or VerifyDelta\");\n        uint8 count = 0;\n        uint hash = uint(blockhash(challengeBlockNumber));\n        mask = 1;\n        uint i = 0;\n        uint j = 0;\n        uint cX;\n        uint cY;\n        while(i<response.length && j<commits.length) {\n            if(hash&mask == 0) {\n                require((response[i] + response[i+2])%Q==maxBid, \"Wrong response\");\n                require(pedersen.Verify(response[i], response[i+1], commits[j], commits[j+1]), \"Not verified 1\");\n                require(pedersen.Verify(response[i+2], response[i+3], commits[j+2], commits[j+3]), \"Not verified 2\");\n                i += 4;\n            } else {\n                if(response[i+2] == 1) //z=1\n                    (cX, cY) = pedersen.ecAdd(bidders[challengedBidder].commitX, bidders[challengedBidder].commitY, commits[j], commits[j+1]);\n                else\n                    (cX, cY) = pedersen.ecAdd(bidders[challengedBidder].commitX, bidders[challengedBidder].commitY, commits[j+2], commits[j+3]);\n                require(pedersen.Verify(response[i], response[i+1], cX, cY), \"Not verified 3\");\n                i += 3;\n            }\n            j += 4;\n            mask = mask << 1;\n            count++;\n        }\n        require(count==K, \"wrong count\");\n        count = 0;\n        i = 0;\n        j = 0;\n        while(i<deltaResponses.length && j<deltaCommits.length) {\n            if(hash&mask == 0) {\n                require((deltaResponses[i] + deltaResponses[i+2])%Q==maxBid, \"wrong deltaResponse\");\n                require(pedersen.Verify(deltaResponses[i], deltaResponses[i+1], deltaCommits[j], deltaCommits[j+1]), \"delta not verified 1\");\n                require(pedersen.Verify(deltaResponses[i+2], deltaResponses[i+3], deltaCommits[j+2], deltaCommits[j+3]), \"delta not verified 2\");\n                i += 4;\n            } else {\n            (cX, cY) = pedersen.CommitDelta(bidders[winner].commitX, bidders[winner].commitY, bidders[challengedBidder].commitX, bidders[challengedBidder].commitY);\n            if(deltaResponses[i+2]==1)\n                (cX, cY) = pedersen.ecAdd(cX,cY, deltaCommits[j], deltaCommits[j+1]);\n            else\n                (cX, cY) = pedersen.ecAdd(cX,cY, deltaCommits[j+2], deltaCommits[j+3]);\n            require(pedersen.Verify(deltaResponses[i],deltaResponses[i+1],cX,cY), \"delta not verified 3\");\n            i += 3;\n            }\n            j += 4;\n            mask = mask << 1;\n            count++;\n        }\n        require(count==K, \"wrong count\");\n        bidders[challengedBidder].validProofs = true;\n        states = VerificationStates.Challenge;\n    }\n    function VerifyAll() public challengeByAuctioneer\n    {\n        for (uint i = 0; i<indexs.length; i++)\n                if(indexs[i] != winner)\n                    if(!bidders[indexs[i]].validProofs) {\n                        winner = address(0);\n                        revert(\"not verified\");\n                    }\n        states = VerificationStates.ValidWinner;\n    }\n    function Withdraw() public\n    {\n        require((states == VerificationStates.ValidWinner || now > winnerPaymentTime), \"Bidder not allowed to Withdraw\");\n        require(msg.sender != winner, \"Winner cannot withdraw\");\n        require(bidders[msg.sender].paidBack == false && bidders[msg.sender].existing == true, \"Bidder has withdrawn or does not exist\");\n        require(withdrawLock == false, \"Withdraw is currently locked\");\n        withdrawLock = true;\n        msg.sender.transfer(fairnessFees);\n        bidders[msg.sender].paidBack = true;\n        withdrawLock = false;\n    }\n    function WinnerPay() public payable {\n        require(states == VerificationStates.ValidWinner, \"Not time to pay yet\");\n        require(msg.sender == winner, \"Bidder is not the winner\");\n        require(msg.value >= highestBid - fairnessFees, \"Value is less than promised bid\");\n    }\n    function Destroy() public {\n        selfdestruct(auctioneerAddress);\n    }\n    modifier challengeByAuctioneer() {\n        require(msg.sender == auctioneerAddress, \"Only auctioneer can perform this operation\"); //by auctioneer only\n        require(now > revealTime && now < winnerPaymentTime || testing,\n        \"Now is not the time to perform this operation\"); //after reveal and before winner payment\n        _;\n    }\n\n    modifier onlyBefore(uint _time) {require(now < _time || testing, \"Not time yet\"); _;}\n    modifier onlyAfter(uint _time) {require(now > _time || testing, \"Time has passed\"); _;}\n\n function parseCommits(string memory s) public pure returns (uint, uint, bool) {\n        bool hasError = false;\n        bytes memory b = bytes(s);\n        uint firstNumber = 0;\n        uint result = 0;\n        uint oldResult = 0;\n        bytes memory _0 = bytes(\"0\");\n        bytes memory _9 = bytes(\"9\");\n        for (uint i = 0; i < b.length; i++) { // c = b[i] was not needed\n            if (b[i] >= _0[0] && b[i] <= _9[0]) {\n                // store old value so we can check for overflows\n                oldResult = result;\n                result = result * 10 + (uint(uint8(b[i])) - 48); // bytes and int are not compatible with the operator -.\n                // prevent overflows\n                if(oldResult > result ) {\n                    // we can only get here if the result overflowed and is smaller than last stored value\n                    hasError = true;\n                }\n            }\n            else if(b[i] == \",\"){\n                if(firstNumber != 0) {\n                    hasError = true;\n                }\n                else{\n                    firstNumber = result;\n                    result = 0;\n                    oldResult = 0;\n                }\n            } else {\n                hasError = true;\n            }\n        }\n      return (firstNumber, result, hasError);\n    }\n}",
  "sourcePath": "/Users/siska/Desktop/FYP/workspace/auction-truffle-box/contracts/BlindAuctionZKP.sol",
  "compiler": {
    "name": "solc",
    "version": "0.5.8+commit.23d335f2.Emscripten.clang"
  },
  "schemaVersion": "3.0.16",
  "updatedAt": "2019-11-13T08:35:35.465Z",
  "devdoc": {
    "methods": {}
  },
  "userdoc": {
    "methods": {}
  }
}