{
  "contractName": "AuctionFactory",
  "abi": [
    {
      "constant": true,
      "inputs": [
        {
          "name": "",
          "type": "uint256"
        }
      ],
      "name": "auctionsAddresses",
      "outputs": [
        {
          "name": "",
          "type": "address"
        }
      ],
      "payable": false,
      "stateMutability": "view",
      "type": "function"
    },
    {
      "constant": true,
      "inputs": [],
      "name": "pedersen",
      "outputs": [
        {
          "name": "",
          "type": "address"
        }
      ],
      "payable": false,
      "stateMutability": "view",
      "type": "function"
    },
    {
      "inputs": [],
      "payable": false,
      "stateMutability": "nonpayable",
      "type": "constructor"
    },
    {
      "anonymous": false,
      "inputs": [
        {
          "indexed": false,
          "name": "auctionContract",
          "type": "address"
        },
        {
          "indexed": false,
          "name": "owner",
          "type": "address"
        },
        {
          "indexed": false,
          "name": "numAuctions",
          "type": "uint256"
        },
        {
          "indexed": false,
          "name": "allAuctions",
          "type": "address[]"
        }
      ],
      "name": "AuctionCreated",
      "type": "event"
    },
    {
      "constant": false,
      "inputs": [
        {
          "name": "_name",
          "type": "string"
        },
        {
          "name": "_desc",
          "type": "string"
        },
        {
          "name": "_bidEndTime",
          "type": "uint256"
        },
        {
          "name": "_revealTime",
          "type": "uint256"
        },
        {
          "name": "_winnerPaymentTime",
          "type": "uint256"
        },
        {
          "name": "_maxBiddersCount",
          "type": "uint256"
        },
        {
          "name": "_fairnessFees",
          "type": "uint256"
        },
        {
          "name": "_auctioneerRSAPublicKey",
          "type": "string"
        },
        {
          "name": "k",
          "type": "uint8"
        },
        {
          "name": "_testing",
          "type": "bool"
        }
      ],
      "name": "createAuction",
      "outputs": [],
      "payable": true,
      "stateMutability": "payable",
      "type": "function"
    },
    {
      "constant": true,
      "inputs": [],
      "name": "allAuctions",
      "outputs": [
        {
          "name": "",
          "type": "address[]"
        }
      ],
      "payable": false,
      "stateMutability": "view",
      "type": "function"
    },
    {
      "constant": true,
      "inputs": [
        {
          "name": "_address",
          "type": "address"
        }
      ],
      "name": "getAuctionData",
      "outputs": [
        {
          "name": "",
          "type": "string"
        },
        {
          "name": "",
          "type": "string"
        }
      ],
      "payable": false,
      "stateMutability": "view",
      "type": "function"
    },
    {
      "constant": true,
      "inputs": [
        {
          "name": "_address",
          "type": "address"
        }
      ],
      "name": "getAuction",
      "outputs": [
        {
          "name": "",
          "type": "address"
        }
      ],
      "payable": false,
      "stateMutability": "pure",
      "type": "function"
    }
  ],
  "bytecode": "0x608060405234801561001057600080fd5b5060405161001d9061007f565b604051809103906000f080158015610039573d6000803e3d6000fd5b50600260006101000a81548173ffffffffffffffffffffffffffffffffffffffff021916908373ffffffffffffffffffffffffffffffffffffffff16021790555061008c565b6104ff8061402e83390190565b613f938061009b6000396000f3fe6080604052600436106200005c5760003560e01c80631295490414620000615780631bbcd4a514620000e05780633276d9ff146200015157806364bcbc3114620001ab57806379deae7b14620002eb578063d9cdd0bf1462000380575b600080fd5b3480156200006e57600080fd5b506200009e600480360360208110156200008757600080fd5b8101908080359060200190929190505050620005c1565b604051808273ffffffffffffffffffffffffffffffffffffffff1673ffffffffffffffffffffffffffffffffffffffff16815260200191505060405180910390f35b348015620000ed57600080fd5b50620000f8620005fe565b6040518080602001828103825283818151815260200191508051906020019060200280838360005b838110156200013d57808201518184015260208101905062000120565b505050509050019250505060405180910390f35b3480156200015e57600080fd5b50620001696200068e565b604051808273ffffffffffffffffffffffffffffffffffffffff1673ffffffffffffffffffffffffffffffffffffffff16815260200191505060405180910390f35b348015620001b857600080fd5b50620001fe60048036036020811015620001d157600080fd5b81019080803573ffffffffffffffffffffffffffffffffffffffff169060200190929190505050620006b4565b604051808060200180602001838103835285818151815260200191508051906020019080838360005b838110156200024457808201518184015260208101905062000227565b50505050905090810190601f168015620002725780820380516001836020036101000a031916815260200191505b50838103825284818151815260200191508051906020019080838360005b83811015620002ad57808201518184015260208101905062000290565b50505050905090810190601f168015620002db5780820380516001836020036101000a031916815260200191505b5094505050505060405180910390f35b348015620002f857600080fd5b506200033e600480360360208110156200031157600080fd5b81019080803573ffffffffffffffffffffffffffffffffffffffff16906020019092919050505062000884565b604051808273ffffffffffffffffffffffffffffffffffffffff1673ffffffffffffffffffffffffffffffffffffffff16815260200191505060405180910390f35b620005bf60048036036101408110156200039957600080fd5b8101908080359060200190640100000000811115620003b757600080fd5b820183602082011115620003ca57600080fd5b80359060200191846001830284011164010000000083111715620003ed57600080fd5b91908080601f016020809104026020016040519081016040528093929190818152602001838380828437600081840152601f19601f820116905080830192505050505050509192919290803590602001906401000000008111156200045157600080fd5b8201836020820111156200046457600080fd5b803590602001918460018302840111640100000000831117156200048757600080fd5b91908080601f016020809104026020016040519081016040528093929190818152602001838380828437600081840152601f19601f8201169050808301925050505050505091929192908035906020019092919080359060200190929190803590602001909291908035906020019092919080359060200190929190803590602001906401000000008111156200051d57600080fd5b8201836020820111156200053057600080fd5b803590602001918460018302840111640100000000831117156200055357600080fd5b91908080601f016020809104026020016040519081016040528093929190818152602001838380828437600081840152601f19601f820116905080830192505050505050509192919290803560ff1690602001909291908035151590602001909291905050506200088e565b005b60008181548110620005cf57fe5b906000526020600020016000915054906101000a900473ffffffffffffffffffffffffffffffffffffffff1681565b606060008054806020026020016040519081016040528092919081815260200182805480156200068457602002820191906000526020600020905b8160009054906101000a900473ffffffffffffffffffffffffffffffffffffffff1673ffffffffffffffffffffffffffffffffffffffff168152602001906001019080831162000639575b5050505050905090565b600260009054906101000a900473ffffffffffffffffffffffffffffffffffffffff1681565b606080600160008473ffffffffffffffffffffffffffffffffffffffff1673ffffffffffffffffffffffffffffffffffffffff168152602001908152602001600020600001600160008573ffffffffffffffffffffffffffffffffffffffff1673ffffffffffffffffffffffffffffffffffffffff168152602001908152602001600020600101818054600181600116156101000203166002900480601f016020809104026020016040519081016040528092919081815260200182805460018160011615610100020316600290048015620007d45780601f10620007a857610100808354040283529160200191620007d4565b820191906000526020600020905b815481529060010190602001808311620007b657829003601f168201915b50505050509150808054600181600116156101000203166002900480601f016020809104026020016040519081016040528092919081815260200182805460018160011615610100020316600290048015620008745780601f10620008485761010080835404028352916020019162000874565b820191906000526020600020905b8154815290600101906020018083116200085657829003601f168201915b5050505050905091509150915091565b6000819050919050565b6000888888888888600260009054906101000a900473ffffffffffffffffffffffffffffffffffffffff1689893334604051620008cb9062000c93565b808c81526020018b81526020018a8152602001898152602001888152602001806020018773ffffffffffffffffffffffffffffffffffffffff1673ffffffffffffffffffffffffffffffffffffffff1681526020018660ff1660ff168152602001851515151581526020018473ffffffffffffffffffffffffffffffffffffffff1673ffffffffffffffffffffffffffffffffffffffff168152602001838152602001828103825288818151815260200191508051906020019080838360005b83811015620009a85780820151818401526020810190506200098b565b50505050905090810190601f168015620009d65780820380516001836020036101000a031916815260200191505b509c50505050505050505050505050604051809103906000f08015801562000a02573d6000803e3d6000fd5b50905060008190806001815401808255809150509060018203906000526020600020016000909192909190916101000a81548173ffffffffffffffffffffffffffffffffffffffff021916908373ffffffffffffffffffffffffffffffffffffffff1602179055505060405180606001604052808c81526020018b81526020018273ffffffffffffffffffffffffffffffffffffffff16815250600160008373ffffffffffffffffffffffffffffffffffffffff1673ffffffffffffffffffffffffffffffffffffffff168152602001908152602001600020600082015181600001908051906020019062000af992919062000ca1565b50602082015181600101908051906020019062000b1892919062000ca1565b5060408201518160020160006101000a81548173ffffffffffffffffffffffffffffffffffffffff021916908373ffffffffffffffffffffffffffffffffffffffff1602179055509050507f0d314047f0d1e39dbbd521f0844c35332083a15926b906540faa68e1a4262b6881336000805490506000604051808573ffffffffffffffffffffffffffffffffffffffff1673ffffffffffffffffffffffffffffffffffffffff1681526020018473ffffffffffffffffffffffffffffffffffffffff1673ffffffffffffffffffffffffffffffffffffffff16815260200183815260200180602001828103825283818154815260200191508054801562000c7557602002820191906000526020600020905b8160009054906101000a900473ffffffffffffffffffffffffffffffffffffffff1673ffffffffffffffffffffffffffffffffffffffff168152602001906001019080831162000c2a575b50509550505050505060405180910390a15050505050505050505050565b6132178062000d5183390190565b828054600181600116156101000203166002900490600052602060002090601f016020900481019282601f1062000ce457805160ff191683800117855562000d15565b8280016001018555821562000d15579182015b8281111562000d1457825182559160200191906001019062000cf7565b5b50905062000d24919062000d28565b5090565b62000d4d91905b8082111562000d4957600081600090555060010162000d2f565b5090565b9056fe6080604052600a600360016101000a81548160ff021916908360ff1602179055507f30644e72e131a029b85045b68181585d97816a916871ca8d3c208c16d87cfd476004557f0c19139cb84c680a6e14116da060561765e05aa45a1c72a34f082305b61f3f516005556001600a553480156200007a57600080fd5b5060405162003217380380620032178339810180604052610160811015620000a157600080fd5b8101908080519060200190929190805190602001909291908051906020019092919080519060200190929190805190602001909291908051640100000000811115620000ec57600080fd5b828101905060208101848111156200010357600080fd5b81518560018202830111640100000000821117156200012157600080fd5b5050929190602001805190602001909291908051906020019092919080519060200190929190805190602001909291908051906020019092919050505086811015620001d5576040517f08c379a000000000000000000000000000000000000000000000000000000000815260040180806020018281038252600f8152602001807f4465706f73697420746f6f206c6f77000000000000000000000000000000000081525060200191505060405180910390fd5b81600b60006101000a81548173ffffffffffffffffffffffffffffffffffffffff021916908373ffffffffffffffffffffffffffffffffffffffff1602179055508a600c8190555089600d8190555088600e8190555087600f8190555086601081905550856011908051906020019062000251929190620002d8565b50846000806101000a81548173ffffffffffffffffffffffffffffffffffffffff021916908373ffffffffffffffffffffffffffffffffffffffff16021790555083600360016101000a81548160ff021916908360ff16021790555082600360006101000a81548160ff021916908315150217905550505050505050505050505062000387565b828054600181600116156101000203166002900490600052602060002090601f016020900481019282601f106200031b57805160ff19168380011785556200034c565b828001600101855582156200034c579182015b828111156200034b5782518255916020019190600101906200032e565b5b5090506200035b91906200035f565b5090565b6200038491905b808211156200038057600081600090555060010162000366565b5090565b90565b612e8080620003976000396000f3fe6080604052600436106101405760003560e01c806384ac26d4116100b6578063dddf915a1161006f578063dddf915a14610789578063dfbf53ae14610851578063e493ef8c146108a8578063eff08119146108d3578063f58fef8e146108fe578063fcc8f7931461091557610140565b806384ac26d414610542578063ba829d7114610559578063c84e113714610584578063c90a7e8d1461058e578063d13a15f314610707578063d57bde791461075e57610140565b80634ba9a927116101085780634ba9a927146102de57806357ea89b61461030957806364876f6e1461032057806369bd56091461038557806381806bb5146104de57806382482f7c1461050957610140565b8063101d457914610145578063205db2c1146101c05780632200b63e146101eb57806325aff27a1461021657806347a0375b146102a6575b600080fd5b34801561015157600080fd5b5061017e6004803603602081101561016857600080fd5b8101908080359060200190929190505050610a0e565b604051808273ffffffffffffffffffffffffffffffffffffffff1673ffffffffffffffffffffffffffffffffffffffff16815260200191505060405180910390f35b3480156101cc57600080fd5b506101d5610a4a565b6040518082815260200191505060405180910390f35b3480156101f757600080fd5b50610200610a50565b6040518082815260200191505060405180910390f35b34801561022257600080fd5b5061022b610a56565b6040518080602001828103825283818151815260200191508051906020019080838360005b8381101561026b578082015181840152602081019050610250565b50505050905090810190601f1680156102985780820380516001836020036101000a031916815260200191505b509250505060405180910390f35b6102dc600480360360408110156102bc57600080fd5b810190808035906020019092919080359060200190929190505050610af4565b005b3480156102ea57600080fd5b506102f3610d1f565b6040518082815260200191505060405180910390f35b34801561031557600080fd5b5061031e610d25565b005b34801561032c57600080fd5b506103836004803603606081101561034357600080fd5b81019080803573ffffffffffffffffffffffffffffffffffffffff1690602001909291908035906020019092919080359060200190929190505050610f77565b005b34801561039157600080fd5b506104dc600480360360408110156103a857600080fd5b81019080803590602001906401000000008111156103c557600080fd5b8201836020820111156103d757600080fd5b803590602001918460208302840111640100000000831117156103f957600080fd5b919080806020026020016040519081016040528093929190818152602001838360200280828437600081840152601f19601f8201169050808301925050505050505091929192908035906020019064010000000081111561045957600080fd5b82018360208201111561046b57600080fd5b8035906020019184602083028401116401000000008311171561048d57600080fd5b919080806020026020016040519081016040528093929190818152602001838360200280828437600081840152601f19601f820116905080830192505050505050509192919290505050611268565b005b3480156104ea57600080fd5b506104f36124c0565b6040518082815260200191505060405180910390f35b34801561051557600080fd5b5061051e6124c6565b6040518082600581111561052e57fe5b60ff16815260200191505060405180910390f35b34801561054e57600080fd5b506105576124d9565b005b34801561056557600080fd5b5061056e61270b565b6040518082815260200191505060405180910390f35b61058c612711565b005b34801561059a57600080fd5b50610705600480360360608110156105b157600080fd5b81019080803573ffffffffffffffffffffffffffffffffffffffff169060200190929190803590602001906401000000008111156105ee57600080fd5b82018360208201111561060057600080fd5b8035906020019184602083028401116401000000008311171561062257600080fd5b919080806020026020016040519081016040528093929190818152602001838360200280828437600081840152601f19601f8201169050808301925050505050505091929192908035906020019064010000000081111561068257600080fd5b82018360208201111561069457600080fd5b803590602001918460208302840111640100000000831117156106b657600080fd5b919080806020026020016040519081016040528093929190818152602001838360200280828437600081840152601f19601f8201169050808301925050505050505091929192905050506127b1565b005b34801561071357600080fd5b5061071c612a93565b604051808273ffffffffffffffffffffffffffffffffffffffff1673ffffffffffffffffffffffffffffffffffffffff16815260200191505060405180910390f35b34801561076a57600080fd5b50610773612ab9565b6040518082815260200191505060405180910390f35b34801561079557600080fd5b5061084f600480360360208110156107ac57600080fd5b81019080803590602001906401000000008111156107c957600080fd5b8201836020820111156107db57600080fd5b803590602001918460018302840111640100000000831117156107fd57600080fd5b91908080601f016020809104026020016040519081016040528093929190818152602001838380828437600081840152601f19601f820116905080830192505050505050509192919290505050612abf565b005b34801561085d57600080fd5b50610866612bc7565b604051808273ffffffffffffffffffffffffffffffffffffffff1673ffffffffffffffffffffffffffffffffffffffff16815260200191505060405180910390f35b3480156108b457600080fd5b506108bd612bed565b6040518082815260200191505060405180910390f35b3480156108df57600080fd5b506108e8612bf3565b6040518082815260200191505060405180910390f35b34801561090a57600080fd5b50610913612bf9565b005b34801561092157600080fd5b506109646004803603602081101561093857600080fd5b81019080803573ffffffffffffffffffffffffffffffffffffffff169060200190929190505050612c34565b6040518087815260200186815260200180602001851515151581526020018415151515815260200183151515158152602001828103825286818151815260200191508051906020019080838360005b838110156109ce5780820151818401526020810190506109b3565b50505050905090810190601f1680156109fb5780820380516001836020036101000a031916815260200191505b5097505050505050505060405180910390f35b60098181548110610a1b57fe5b906000526020600020016000915054906101000a900473ffffffffffffffffffffffffffffffffffffffff1681565b60055481565b600f5481565b60118054600181600116156101000203166002900480601f016020809104026020016040519081016040528092919081815260200182805460018160011615610100020316600290048015610aec5780601f10610ac157610100808354040283529160200191610aec565b820191906000526020600020905b815481529060010190602001808311610acf57829003601f168201915b505050505081565b600c5480421080610b115750600360009054906101000a900460ff165b610b1a57600080fd5b600f5460098054905010610b2d57600080fd5b601054341015610b3c57600080fd5b60001515600860003373ffffffffffffffffffffffffffffffffffffffff1673ffffffffffffffffffffffffffffffffffffffff16815260200190815260200160002060030160029054906101000a900460ff16151514610b9c57600080fd5b6040518060c0016040528084815260200183815260200160405180602001604052806000815250815260200160001515815260200160001515815260200160011515815250600860003373ffffffffffffffffffffffffffffffffffffffff1673ffffffffffffffffffffffffffffffffffffffff16815260200190815260200160002060008201518160000155602082015181600101556040820151816002019080519060200190610c50929190612d2f565b5060608201518160030160006101000a81548160ff02191690831515021790555060808201518160030160016101000a81548160ff02191690831515021790555060a08201518160030160026101000a81548160ff02191690831515021790555090505060093390806001815401808255809150509060018203906000526020600020016000909192909190916101000a81548173ffffffffffffffffffffffffffffffffffffffff021916908373ffffffffffffffffffffffffffffffffffffffff16021790555050505050565b600c5481565b600580811115610d3157fe5b600060159054906101000a900460ff166005811115610d4c57fe5b1480610d595750600e5442115b610d6257600080fd5b601260009054906101000a900473ffffffffffffffffffffffffffffffffffffffff1673ffffffffffffffffffffffffffffffffffffffff163373ffffffffffffffffffffffffffffffffffffffff161415610dbd57600080fd5b60001515600860003373ffffffffffffffffffffffffffffffffffffffff1673ffffffffffffffffffffffffffffffffffffffff16815260200190815260200160002060030160019054906101000a900460ff161515148015610e73575060011515600860003373ffffffffffffffffffffffffffffffffffffffff1673ffffffffffffffffffffffffffffffffffffffff16815260200190815260200160002060030160029054906101000a900460ff161515145b610e7c57600080fd5b60001515600060149054906101000a900460ff16151514610e9c57600080fd5b6001600060146101000a81548160ff0219169083151502179055503373ffffffffffffffffffffffffffffffffffffffff166108fc6010549081150290604051600060405180830381858888f19350505050158015610eff573d6000803e3d6000fd5b506001600860003373ffffffffffffffffffffffffffffffffffffffff1673ffffffffffffffffffffffffffffffffffffffff16815260200190815260200160002060030160016101000a81548160ff02191690831515021790555060008060146101000a81548160ff021916908315150217905550565b600b60009054906101000a900473ffffffffffffffffffffffffffffffffffffffff1673ffffffffffffffffffffffffffffffffffffffff163373ffffffffffffffffffffffffffffffffffffffff1614610fd157600080fd5b600d5442118015610fe35750600e5442105b80610ffa5750600360009054906101000a900460ff165b61100357600080fd5b6000600581111561101057fe5b600060159054906101000a900460ff16600581111561102b57fe5b1461103557600080fd5b60011515600860008573ffffffffffffffffffffffffffffffffffffffff1673ffffffffffffffffffffffffffffffffffffffff16815260200190815260200160002060030160029054906101000a900460ff1615151461109557600080fd5b60055482106110a357600080fd5b6000809054906101000a900473ffffffffffffffffffffffffffffffffffffffff1673ffffffffffffffffffffffffffffffffffffffff1663c30918d18383600860008873ffffffffffffffffffffffffffffffffffffffff1673ffffffffffffffffffffffffffffffffffffffff16815260200190815260200160002060000154600860008973ffffffffffffffffffffffffffffffffffffffff1673ffffffffffffffffffffffffffffffffffffffff168152602001908152602001600020600101546040518563ffffffff1660e01b815260040180858152602001848152602001838152602001828152602001945050505050602060405180830381600087803b1580156111b357600080fd5b505af11580156111c7573d6000803e3d6000fd5b505050506040513d60208110156111dd57600080fd5b81019080805190602001909291905050506111f757600080fd5b82601260006101000a81548173ffffffffffffffffffffffffffffffffffffffff021916908373ffffffffffffffffffffffffffffffffffffffff160217905550816013819055506001600060156101000a81548160ff0219169083600581111561125e57fe5b0217905550505050565b600b60009054906101000a900473ffffffffffffffffffffffffffffffffffffffff1673ffffffffffffffffffffffffffffffffffffffff163373ffffffffffffffffffffffffffffffffffffffff16146112c257600080fd5b600d54421180156112d45750600e5442105b806112eb5750600360009054906101000a900460ff165b6112f457600080fd5b6003600581111561130157fe5b600060159054906101000a900460ff16600581111561131c57fe5b148061134d57506004600581111561133057fe5b600060159054906101000a900460ff16600581111561134b57fe5b145b61135657600080fd5b600080905060006002544060001c90506001600a81905550600080905060008090506000805b875184108015611390575060068054905083105b15611b35576000600a548616141561164b576005546004548960028701815181106113b757fe5b60200260200101518a87815181106113cb57fe5b602002602001015101816113db57fe5b06146113e657600080fd5b6000809054906101000a900473ffffffffffffffffffffffffffffffffffffffff1673ffffffffffffffffffffffffffffffffffffffff1663c30918d189868151811061142f57fe5b60200260200101518a600188018151811061144657fe5b60200260200101516006878154811061145b57fe5b90600052602060002001546006600189018154811061147657fe5b90600052602060002001546040518563ffffffff1660e01b815260040180858152602001848152602001838152602001828152602001945050505050602060405180830381600087803b1580156114cc57600080fd5b505af11580156114e0573d6000803e3d6000fd5b505050506040513d60208110156114f657600080fd5b810190808051906020019092919050505061151057600080fd5b6000809054906101000a900473ffffffffffffffffffffffffffffffffffffffff1673ffffffffffffffffffffffffffffffffffffffff1663c30918d189600287018151811061155c57fe5b60200260200101518a600388018151811061157357fe5b60200260200101516006600288018154811061158b57fe5b9060005260206000200154600660038901815481106115a657fe5b90600052602060002001546040518563ffffffff1660e01b815260040180858152602001848152602001838152602001828152602001945050505050602060405180830381600087803b1580156115fc57600080fd5b505af1158015611610573d6000803e3d6000fd5b505050506040513d602081101561162657600080fd5b810190808051906020019092919050505061164057600080fd5b600484019350611b15565b600188600286018151811061165c57fe5b60200260200101511415611840576000809054906101000a900473ffffffffffffffffffffffffffffffffffffffff1673ffffffffffffffffffffffffffffffffffffffff1663cde6248360086000600160009054906101000a900473ffffffffffffffffffffffffffffffffffffffff1673ffffffffffffffffffffffffffffffffffffffff1673ffffffffffffffffffffffffffffffffffffffff1681526020019081526020016000206000015460086000600160009054906101000a900473ffffffffffffffffffffffffffffffffffffffff1673ffffffffffffffffffffffffffffffffffffffff1673ffffffffffffffffffffffffffffffffffffffff168152602001908152602001600020600101546006878154811061177e57fe5b90600052602060002001546006600189018154811061179957fe5b90600052602060002001546040518563ffffffff1660e01b8152600401808581526020018481526020018381526020018281526020019450505050506040805180830381600087803b1580156117ee57600080fd5b505af1158015611802573d6000803e3d6000fd5b505050506040513d604081101561181857600080fd5b8101908080519060200190929190805190602001909291905050508092508193505050611a15565b6000809054906101000a900473ffffffffffffffffffffffffffffffffffffffff1673ffffffffffffffffffffffffffffffffffffffff1663cde6248360086000600160009054906101000a900473ffffffffffffffffffffffffffffffffffffffff1673ffffffffffffffffffffffffffffffffffffffff1673ffffffffffffffffffffffffffffffffffffffff1681526020019081526020016000206000015460086000600160009054906101000a900473ffffffffffffffffffffffffffffffffffffffff1673ffffffffffffffffffffffffffffffffffffffff1673ffffffffffffffffffffffffffffffffffffffff168152602001908152602001600020600101546006600288018154811061195757fe5b90600052602060002001546006600389018154811061197257fe5b90600052602060002001546040518563ffffffff1660e01b8152600401808581526020018481526020018381526020018281526020019450505050506040805180830381600087803b1580156119c757600080fd5b505af11580156119db573d6000803e3d6000fd5b505050506040513d60408110156119f157600080fd5b81019080805190602001909291908051906020019092919050505080925081935050505b6000809054906101000a900473ffffffffffffffffffffffffffffffffffffffff1673ffffffffffffffffffffffffffffffffffffffff1663c30918d1898681518110611a5e57fe5b60200260200101518a6001880181518110611a7557fe5b602002602001015185856040518563ffffffff1660e01b815260040180858152602001848152602001838152602001828152602001945050505050602060405180830381600087803b158015611aca57600080fd5b505af1158015611ade573d6000803e3d6000fd5b505050506040513d6020811015611af457600080fd5b8101908080519060200190929190505050611b0e57600080fd5b6003840193505b6004830192506001600a54901b600a81905550858060010196505061137c565b600360019054906101000a900460ff1660ff168660ff1614611b5657600080fd5b6000955060009350600092505b865184108015611b77575060078054905083105b156123f4576000600a5486161415611e3257600554600454886002870181518110611b9e57fe5b6020026020010151898781518110611bb257fe5b60200260200101510181611bc257fe5b0614611bcd57600080fd5b6000809054906101000a900473ffffffffffffffffffffffffffffffffffffffff1673ffffffffffffffffffffffffffffffffffffffff1663c30918d1888681518110611c1657fe5b6020026020010151896001880181518110611c2d57fe5b602002602001015160078781548110611c4257fe5b906000526020600020015460076001890181548110611c5d57fe5b90600052602060002001546040518563ffffffff1660e01b815260040180858152602001848152602001838152602001828152602001945050505050602060405180830381600087803b158015611cb357600080fd5b505af1158015611cc7573d6000803e3d6000fd5b505050506040513d6020811015611cdd57600080fd5b8101908080519060200190929190505050611cf757600080fd5b6000809054906101000a900473ffffffffffffffffffffffffffffffffffffffff1673ffffffffffffffffffffffffffffffffffffffff1663c30918d1886002870181518110611d4357fe5b6020026020010151896003880181518110611d5a57fe5b602002602001015160076002880181548110611d7257fe5b906000526020600020015460076003890181548110611d8d57fe5b90600052602060002001546040518563ffffffff1660e01b815260040180858152602001848152602001838152602001828152602001945050505050602060405180830381600087803b158015611de357600080fd5b505af1158015611df7573d6000803e3d6000fd5b505050506040513d6020811015611e0d57600080fd5b8101908080519060200190929190505050611e2757600080fd5b6004840193506123d4565b6000809054906101000a900473ffffffffffffffffffffffffffffffffffffffff1673ffffffffffffffffffffffffffffffffffffffff1663882033d160086000601260009054906101000a900473ffffffffffffffffffffffffffffffffffffffff1673ffffffffffffffffffffffffffffffffffffffff1673ffffffffffffffffffffffffffffffffffffffff1681526020019081526020016000206000015460086000601260009054906101000a900473ffffffffffffffffffffffffffffffffffffffff1673ffffffffffffffffffffffffffffffffffffffff1673ffffffffffffffffffffffffffffffffffffffff1681526020019081526020016000206001015460086000600160009054906101000a900473ffffffffffffffffffffffffffffffffffffffff1673ffffffffffffffffffffffffffffffffffffffff1673ffffffffffffffffffffffffffffffffffffffff1681526020019081526020016000206000015460086000600160009054906101000a900473ffffffffffffffffffffffffffffffffffffffff1673ffffffffffffffffffffffffffffffffffffffff1673ffffffffffffffffffffffffffffffffffffffff168152602001908152602001600020600101546040518563ffffffff1660e01b8152600401808581526020018481526020018381526020018281526020019450505050506040805180830381600087803b15801561204d57600080fd5b505af1158015612061573d6000803e3d6000fd5b505050506040513d604081101561207757600080fd5b810190808051906020019092919080519060200190929190505050809250819350505060018760028601815181106120ab57fe5b602002602001015114156121c7576000809054906101000a900473ffffffffffffffffffffffffffffffffffffffff1673ffffffffffffffffffffffffffffffffffffffff1663cde6248383836007878154811061210557fe5b90600052602060002001546007600189018154811061212057fe5b90600052602060002001546040518563ffffffff1660e01b8152600401808581526020018481526020018381526020018281526020019450505050506040805180830381600087803b15801561217557600080fd5b505af1158015612189573d6000803e3d6000fd5b505050506040513d604081101561219f57600080fd5b81019080805190602001909291908051906020019092919050505080925081935050506122d4565b6000809054906101000a900473ffffffffffffffffffffffffffffffffffffffff1673ffffffffffffffffffffffffffffffffffffffff1663cde6248383836007600288018154811061221657fe5b90600052602060002001546007600389018154811061223157fe5b90600052602060002001546040518563ffffffff1660e01b8152600401808581526020018481526020018381526020018281526020019450505050506040805180830381600087803b15801561228657600080fd5b505af115801561229a573d6000803e3d6000fd5b505050506040513d60408110156122b057600080fd5b81019080805190602001909291908051906020019092919050505080925081935050505b6000809054906101000a900473ffffffffffffffffffffffffffffffffffffffff1673ffffffffffffffffffffffffffffffffffffffff1663c30918d188868151811061231d57fe5b602002602001015189600188018151811061233457fe5b602002602001015185856040518563ffffffff1660e01b815260040180858152602001848152602001838152602001828152602001945050505050602060405180830381600087803b15801561238957600080fd5b505af115801561239d573d6000803e3d6000fd5b505050506040513d60208110156123b357600080fd5b81019080805190602001909291905050506123cd57600080fd5b6003840193505b6004830192506001600a54901b600a819055508580600101965050611b63565b600360019054906101000a900460ff1660ff168660ff161461241557600080fd5b600160086000600160009054906101000a900473ffffffffffffffffffffffffffffffffffffffff1673ffffffffffffffffffffffffffffffffffffffff1673ffffffffffffffffffffffffffffffffffffffff16815260200190815260200160002060030160006101000a81548160ff0219169083151502179055506001600060156101000a81548160ff021916908360058111156124b157fe5b02179055505050505050505050565b60105481565b600060159054906101000a900460ff1681565b600b60009054906101000a900473ffffffffffffffffffffffffffffffffffffffff1673ffffffffffffffffffffffffffffffffffffffff163373ffffffffffffffffffffffffffffffffffffffff161461253357600080fd5b600d54421180156125455750600e5442105b8061255c5750600360009054906101000a900460ff165b61256557600080fd5b60008090505b6009805490508110156126e457601260009054906101000a900473ffffffffffffffffffffffffffffffffffffffff1673ffffffffffffffffffffffffffffffffffffffff16600982815481106125be57fe5b9060005260206000200160009054906101000a900473ffffffffffffffffffffffffffffffffffffffff1673ffffffffffffffffffffffffffffffffffffffff16146126d757600860006009838154811061261557fe5b9060005260206000200160009054906101000a900473ffffffffffffffffffffffffffffffffffffffff1673ffffffffffffffffffffffffffffffffffffffff1673ffffffffffffffffffffffffffffffffffffffff16815260200190815260200160002060030160009054906101000a900460ff166126d6576000601260006101000a81548173ffffffffffffffffffffffffffffffffffffffff021916908373ffffffffffffffffffffffffffffffffffffffff160217905550600080fd5b5b808060010191505061256b565b506005600060156101000a81548160ff0219169083600581111561270457fe5b0217905550565b600d5481565b60058081111561271d57fe5b600060159054906101000a900460ff16600581111561273857fe5b1461274257600080fd5b601260009054906101000a900473ffffffffffffffffffffffffffffffffffffffff1673ffffffffffffffffffffffffffffffffffffffff163373ffffffffffffffffffffffffffffffffffffffff161461279c57600080fd5b601054601354033410156127af57600080fd5b565b600b60009054906101000a900473ffffffffffffffffffffffffffffffffffffffff1673ffffffffffffffffffffffffffffffffffffffff163373ffffffffffffffffffffffffffffffffffffffff161461280b57600080fd5b600d544211801561281d5750600e5442105b806128345750600360009054906101000a900460ff165b61283d57600080fd5b6001600581111561284a57fe5b600060159054906101000a900460ff16600581111561286557fe5b148061287d5750600360009054906101000a900460ff165b61288657600080fd5b6004600360019054906101000a900460ff160260ff168251146128a857600080fd5b80518251146128b657600080fd5b60011515600860008573ffffffffffffffffffffffffffffffffffffffff1673ffffffffffffffffffffffffffffffffffffffff16815260200190815260200160002060030160029054906101000a900460ff1615151461291657600080fd5b82600160006101000a81548173ffffffffffffffffffffffffffffffffffffffff021916908373ffffffffffffffffffffffffffffffffffffffff1602179055504360028190555060008090505b8251811015612a69578060068054905014156129fd57600683828151811061298857fe5b6020026020010151908060018154018082558091505090600182039060005260206000200160009091929091909150555060078282815181106129c757fe5b60200260200101519080600181540180825580915050906001820390600052602060002001600090919290919091505550612a5c565b828181518110612a0957fe5b602002602001015160068281548110612a1e57fe5b9060005260206000200181905550818181518110612a3857fe5b602002602001015160078281548110612a4d57fe5b90600052602060002001819055505b8080600101915050612964565b506003600060156101000a81548160ff02191690836005811115612a8957fe5b0217905550505050565b600b60009054906101000a900473ffffffffffffffffffffffffffffffffffffffff1681565b60135481565b600d5480421080612adc5750600360009054906101000a900460ff165b612ae557600080fd5b600c5480421180612b025750600360009054906101000a900460ff165b612b0b57600080fd5b60011515600860003373ffffffffffffffffffffffffffffffffffffffff1673ffffffffffffffffffffffffffffffffffffffff16815260200190815260200160002060030160029054906101000a900460ff16151514612b6b57600080fd5b82600860003373ffffffffffffffffffffffffffffffffffffffff1673ffffffffffffffffffffffffffffffffffffffff1681526020019081526020016000206002019080519060200190612bc1929190612daf565b50505050565b601260009054906101000a900473ffffffffffffffffffffffffffffffffffffffff1681565b60045481565b600e5481565b600b60009054906101000a900473ffffffffffffffffffffffffffffffffffffffff1673ffffffffffffffffffffffffffffffffffffffff16ff5b6008602052806000526040600020600091509050806000015490806001015490806002018054600181600116156101000203166002900480601f016020809104026020016040519081016040528092919081815260200182805460018160011615610100020316600290048015612cec5780601f10612cc157610100808354040283529160200191612cec565b820191906000526020600020905b815481529060010190602001808311612ccf57829003601f168201915b5050505050908060030160009054906101000a900460ff16908060030160019054906101000a900460ff16908060030160029054906101000a900460ff16905086565b828054600181600116156101000203166002900490600052602060002090601f016020900481019282601f10612d7057805160ff1916838001178555612d9e565b82800160010185558215612d9e579182015b82811115612d9d578251825591602001919060010190612d82565b5b509050612dab9190612e2f565b5090565b828054600181600116156101000203166002900490600052602060002090601f016020900481019282601f10612df057805160ff1916838001178555612e1e565b82800160010185558215612e1e579182015b82811115612e1d578251825591602001919060010190612e02565b5b509050612e2b9190612e2f565b5090565b612e5191905b80821115612e4d576000816000905550600101612e35565b5090565b9056fea165627a7a72305820a94f0dc18064573609a12ed9728abd0af3865a80d37e11c7cbb61951cd4eab830029a165627a7a7230582087356b5a35a2c6342d6c1fe59ea4b917a2361ebccda3d70648573250d49cdf9d002960806040527f30644e72e131a029b85045b68181585d97816a916871ca8d3c208c16d87cfd476000557f2bd3e6d0f3b142924f5ca7b49ce5b9d54c4703d7ae5648e61d02268b1a0a9fb76001557f21611ce0a6af85915e2f1d70300909ce2e49dfad4a4619c8390cae66cefdb2046002557f070a8d6a982153cae4be29d434e8faef8a47b274a053f5a4ee2a6c9c13c31e5c6003557f031b8ce914eba3a9ffb989f9cdd5b0f01943074bf4f0f315690ec3cec6981afc6004553480156100c457600080fd5b5061042b806100d46000396000f3fe608060405234801561001057600080fd5b506004361061004c5760003560e01c8063882033d114610051578063acafc535146100b8578063c30918d11461010b578063cde624831461016f575b600080fd5b61009b6004803603608081101561006757600080fd5b81019080803590602001909291908035906020019092919080359060200190929190803590602001909291905050506101d6565b604051808381526020018281526020019250505060405180910390f35b6100ee600480360360408110156100ce57600080fd5b8101908080359060200190929190803590602001909291905050506101fa565b604051808381526020018281526020019250505060405180910390f35b6101556004803603608081101561012157600080fd5b8101908080359060200190929190803590602001909291908035906020019092919080359060200190929190505050610248565b604051808215151515815260200191505060405180910390f35b6101b96004803603608081101561018557600080fd5b8101908080359060200190929190803590602001909291908035906020019092919080359060200190929190505050610275565b604051808381526020018281526020019250505060405180910390f35b6000806101e98686868660005403610275565b809250819350505094509492505050565b60008060008061020f8660015460025461033e565b915091506000806102258760035460045461033e565b9150915061023584848484610275565b8096508197505050505050509250929050565b600080600061025787876101fa565b91509150818514801561026957508084145b92505050949350505050565b6000806000809050606060806040519080825280601f01601f1916602001820160405280156102b35781602001600182028038833980820191505090505b5090506060604080519080825280601f01601f1916602001820160405280156102eb5781602001600182028038833980820191505090505b509050886020830152876040830152866060830152856080830152604060208201608060208501600060065af1925060208101519450604081015193508261033257600080fd5b50505094509492505050565b60008060008090506060806040519080825280601f01601f19166020018201604052801561037b5781602001600182028038833980820191505090505b5090506060604080519080825280601f01601f1916602001820160405280156103b35781602001600182028038833980820191505090505b509050866020830152856040830152876060830152604060208201606060208501600060075af192506020810151945060408101519350826103f457600080fd5b50505093509391505056fea165627a7a7230582035050b0d63544b5d2a4faca02a098543f86fc3fbb9fdaff87fca930c2d50d0b70029",
  "source": "pragma solidity >0.4.18;\nimport {Auction} from \"./BlindAuctionZKP.sol\";\nimport {Pedersen} from \"./Pedersen.sol\";\n\ncontract AuctionFactory {\n    struct AuctionData {\n      string name;\n      string desc;\n      Auction auctionContract;\n    }\n    address[] public auctionsAddresses;\n    mapping (address => AuctionData) auctions;\n    address public pedersen;\n\n    event AuctionCreated(address auctionContract, address owner, uint numAuctions, address[] allAuctions);\n\n    constructor() public {\n      pedersen = address(new Pedersen());\n    }\n\n    function createAuction(string memory _name, string memory _desc, uint _bidEndTime, uint _revealTime,\n    uint _winnerPaymentTime, uint _maxBiddersCount, uint _fairnessFees, string memory _auctioneerRSAPublicKey,\n    uint8 k, bool _testing) public payable {\n        Auction newAuction = new Auction(_bidEndTime, _revealTime, _winnerPaymentTime, _maxBiddersCount,\n        _fairnessFees, _auctioneerRSAPublicKey, pedersen, k, _testing, msg.sender, msg.value);\n        auctionsAddresses.push(address(newAuction));\n        auctions[address(newAuction)] = AuctionData(_name, _desc, newAuction);\n\n        emit AuctionCreated(address(newAuction), msg.sender, auctionsAddresses.length, auctionsAddresses);\n    }\n\n    function allAuctions() public view returns (address[] memory) {\n        return auctionsAddresses;\n    }\n\n    function getAuctionData(address _address) public view returns (string memory, string memory){\n      return (auctions[_address].name, auctions[_address].desc);\n    }\n\n    function getAuction(address _address) public pure returns (Auction){\n      return Auction(_address);\n    }\n}\n",
  "sourcePath": "/Users/siska/Desktop/FYP/workspace/auction-truffle-box/contracts/AuctionFactory.sol",
  "compiler": {
    "name": "solc",
    "version": "0.5.8+commit.23d335f2.Emscripten.clang"
  },
  "schemaVersion": "3.0.16",
  "updatedAt": "2019-10-05T21:09:04.077Z",
  "devdoc": {
    "methods": {}
  },
  "userdoc": {
    "methods": {}
  }
}