{
  "contractName": "AuctionFactory",
  "abi": [
    {
      "constant": true,
      "inputs": [
        {
          "name": "",
          "type": "uint256"
        }
      ],
      "name": "auctionsAddresses",
      "outputs": [
        {
          "name": "",
          "type": "address"
        }
      ],
      "payable": false,
      "stateMutability": "view",
      "type": "function"
    },
    {
      "constant": true,
      "inputs": [],
      "name": "pedersen",
      "outputs": [
        {
          "name": "",
          "type": "address"
        }
      ],
      "payable": false,
      "stateMutability": "view",
      "type": "function"
    },
    {
      "inputs": [],
      "payable": false,
      "stateMutability": "nonpayable",
      "type": "constructor"
    },
    {
      "anonymous": false,
      "inputs": [
        {
          "indexed": false,
          "name": "auctionContract",
          "type": "address"
        },
        {
          "indexed": false,
          "name": "owner",
          "type": "address"
        },
        {
          "indexed": false,
          "name": "numAuctions",
          "type": "uint256"
        },
        {
          "indexed": false,
          "name": "allAuctions",
          "type": "address[]"
        }
      ],
      "name": "AuctionCreated",
      "type": "event"
    },
    {
      "constant": false,
      "inputs": [
        {
          "name": "_name",
          "type": "string"
        },
        {
          "name": "_desc",
          "type": "string"
        },
        {
          "name": "_bidEndTime",
          "type": "uint256"
        },
        {
          "name": "_revealTime",
          "type": "uint256"
        },
        {
          "name": "_winnerPaymentTime",
          "type": "uint256"
        },
        {
          "name": "_maxBiddersCount",
          "type": "uint256"
        },
        {
          "name": "_fairnessFees",
          "type": "uint256"
        },
        {
          "name": "_auctioneerRSAPublicKey",
          "type": "string"
        },
        {
          "name": "k",
          "type": "uint8"
        },
        {
          "name": "_testing",
          "type": "bool"
        }
      ],
      "name": "createAuction",
      "outputs": [
        {
          "name": "",
          "type": "address"
        }
      ],
      "payable": true,
      "stateMutability": "payable",
      "type": "function"
    },
    {
      "constant": true,
      "inputs": [],
      "name": "allAuctions",
      "outputs": [
        {
          "name": "",
          "type": "address[]"
        }
      ],
      "payable": false,
      "stateMutability": "view",
      "type": "function"
    },
    {
      "constant": true,
      "inputs": [
        {
          "name": "_address",
          "type": "address"
        }
      ],
      "name": "getAuctionData",
      "outputs": [
        {
          "name": "",
          "type": "string"
        },
        {
          "name": "",
          "type": "string"
        }
      ],
      "payable": false,
      "stateMutability": "view",
      "type": "function"
    }
  ],
  "bytecode": "0x608060405234801561001057600080fd5b5060405161001d9061007f565b604051809103906000f080158015610039573d6000803e3d6000fd5b50600260006101000a81548173ffffffffffffffffffffffffffffffffffffffff021916908373ffffffffffffffffffffffffffffffffffffffff16021790555061008c565b6104ff806152e083390190565b6152458061009b6000396000f3fe608060405260043610620000505760003560e01c80631295490414620000555780631bbcd4a514620000d45780633276d9ff146200014557806364bcbc31146200019f578063d9cdd0bf14620002df575b600080fd5b3480156200006257600080fd5b5062000092600480360360208110156200007b57600080fd5b810190808035906020019092919050505062000560565b604051808273ffffffffffffffffffffffffffffffffffffffff1673ffffffffffffffffffffffffffffffffffffffff16815260200191505060405180910390f35b348015620000e157600080fd5b50620000ec6200059d565b6040518080602001828103825283818151815260200191508051906020019060200280838360005b838110156200013157808201518184015260208101905062000114565b505050509050019250505060405180910390f35b3480156200015257600080fd5b506200015d6200062d565b604051808273ffffffffffffffffffffffffffffffffffffffff1673ffffffffffffffffffffffffffffffffffffffff16815260200191505060405180910390f35b348015620001ac57600080fd5b50620001f260048036036020811015620001c557600080fd5b81019080803573ffffffffffffffffffffffffffffffffffffffff16906020019092919050505062000653565b604051808060200180602001838103835285818151815260200191508051906020019080838360005b83811015620002385780820151818401526020810190506200021b565b50505050905090810190601f168015620002665780820380516001836020036101000a031916815260200191505b50838103825284818151815260200191508051906020019080838360005b83811015620002a157808201518184015260208101905062000284565b50505050905090810190601f168015620002cf5780820380516001836020036101000a031916815260200191505b5094505050505060405180910390f35b6200051e6004803603610140811015620002f857600080fd5b81019080803590602001906401000000008111156200031657600080fd5b8201836020820111156200032957600080fd5b803590602001918460018302840111640100000000831117156200034c57600080fd5b91908080601f016020809104026020016040519081016040528093929190818152602001838380828437600081840152601f19601f82011690508083019250505050505050919291929080359060200190640100000000811115620003b057600080fd5b820183602082011115620003c357600080fd5b80359060200191846001830284011164010000000083111715620003e657600080fd5b91908080601f016020809104026020016040519081016040528093929190818152602001838380828437600081840152601f19601f8201169050808301925050505050505091929192908035906020019092919080359060200190929190803590602001909291908035906020019092919080359060200190929190803590602001906401000000008111156200047c57600080fd5b8201836020820111156200048f57600080fd5b80359060200191846001830284011164010000000083111715620004b257600080fd5b91908080601f016020809104026020016040519081016040528093929190818152602001838380828437600081840152601f19601f820116905080830192505050505050509192919290803560ff16906020019092919080351515906020019092919050505062000823565b604051808273ffffffffffffffffffffffffffffffffffffffff1673ffffffffffffffffffffffffffffffffffffffff16815260200191505060405180910390f35b600081815481106200056e57fe5b906000526020600020016000915054906101000a900473ffffffffffffffffffffffffffffffffffffffff1681565b606060008054806020026020016040519081016040528092919081815260200182805480156200062357602002820191906000526020600020905b8160009054906101000a900473ffffffffffffffffffffffffffffffffffffffff1673ffffffffffffffffffffffffffffffffffffffff1681526020019060010190808311620005d8575b5050505050905090565b600260009054906101000a900473ffffffffffffffffffffffffffffffffffffffff1681565b606080600160008473ffffffffffffffffffffffffffffffffffffffff1673ffffffffffffffffffffffffffffffffffffffff168152602001908152602001600020600001600160008573ffffffffffffffffffffffffffffffffffffffff1673ffffffffffffffffffffffffffffffffffffffff168152602001908152602001600020600101818054600181600116156101000203166002900480601f016020809104026020016040519081016040528092919081815260200182805460018160011615610100020316600290048015620007735780601f10620007475761010080835404028352916020019162000773565b820191906000526020600020905b8154815290600101906020018083116200075557829003601f168201915b50505050509150808054600181600116156101000203166002900480601f016020809104026020016040519081016040528092919081815260200182805460018160011615610100020316600290048015620008135780601f10620007e75761010080835404028352916020019162000813565b820191906000526020600020905b815481529060010190602001808311620007f557829003601f168201915b5050505050905091509150915091565b600080898989898989600260009054906101000a900473ffffffffffffffffffffffffffffffffffffffff168a8a3334604051620008619062000c2b565b808c81526020018b81526020018a8152602001898152602001888152602001806020018773ffffffffffffffffffffffffffffffffffffffff1673ffffffffffffffffffffffffffffffffffffffff1681526020018660ff1660ff168152602001851515151581526020018473ffffffffffffffffffffffffffffffffffffffff1673ffffffffffffffffffffffffffffffffffffffff168152602001838152602001828103825288818151815260200191508051906020019080838360005b838110156200093e57808201518184015260208101905062000921565b50505050905090810190601f1680156200096c5780820380516001836020036101000a031916815260200191505b509c50505050505050505050505050604051809103906000f08015801562000998573d6000803e3d6000fd5b50905060008190806001815401808255809150509060018203906000526020600020016000909192909190916101000a81548173ffffffffffffffffffffffffffffffffffffffff021916908373ffffffffffffffffffffffffffffffffffffffff1602179055505060405180606001604052808d81526020018c81526020018273ffffffffffffffffffffffffffffffffffffffff16815250600160008373ffffffffffffffffffffffffffffffffffffffff1673ffffffffffffffffffffffffffffffffffffffff168152602001908152602001600020600082015181600001908051906020019062000a8f92919062000c39565b50602082015181600101908051906020019062000aae92919062000c39565b5060408201518160020160006101000a81548173ffffffffffffffffffffffffffffffffffffffff021916908373ffffffffffffffffffffffffffffffffffffffff1602179055509050507f0d314047f0d1e39dbbd521f0844c35332083a15926b906540faa68e1a4262b6881336000805490506000604051808573ffffffffffffffffffffffffffffffffffffffff1673ffffffffffffffffffffffffffffffffffffffff1681526020018473ffffffffffffffffffffffffffffffffffffffff1673ffffffffffffffffffffffffffffffffffffffff16815260200183815260200180602001828103825283818154815260200191508054801562000c0b57602002820191906000526020600020905b8160009054906101000a900473ffffffffffffffffffffffffffffffffffffffff1673ffffffffffffffffffffffffffffffffffffffff168152602001906001019080831162000bc0575b50509550505050505060405180910390a1509a9950505050505050505050565b6145318062000ce983390190565b828054600181600116156101000203166002900490600052602060002090601f016020900481019282601f1062000c7c57805160ff191683800117855562000cad565b8280016001018555821562000cad579182015b8281111562000cac57825182559160200191906001019062000c8f565b5b50905062000cbc919062000cc0565b5090565b62000ce591905b8082111562000ce157600081600090555060010162000cc7565b5090565b9056fe6080604052600a600360016101000a81548160ff021916908360ff1602179055507f30644e72e131a029b85045b68181585d97816a916871ca8d3c208c16d87cfd476004557f0c19139cb84c680a6e14116da060561765e05aa45a1c72a34f082305b61f3f516005556001600a553480156200007a57600080fd5b5060405162004531380380620045318339810180604052610160811015620000a157600080fd5b8101908080519060200190929190805190602001909291908051906020019092919080519060200190929190805190602001909291908051640100000000811115620000ec57600080fd5b828101905060208101848111156200010357600080fd5b81518560018202830111640100000000821117156200012157600080fd5b5050929190602001805190602001909291908051906020019092919080519060200190929190805190602001909291908051906020019092919050505086811015620001d5576040517f08c379a000000000000000000000000000000000000000000000000000000000815260040180806020018281038252600f8152602001807f4465706f73697420746f6f206c6f77000000000000000000000000000000000081525060200191505060405180910390fd5b81600b60006101000a81548173ffffffffffffffffffffffffffffffffffffffff021916908373ffffffffffffffffffffffffffffffffffffffff1602179055508a600c8190555089600d8190555088600e8190555087600f8190555086601081905550856011908051906020019062000251929190620002d8565b50846000806101000a81548173ffffffffffffffffffffffffffffffffffffffff021916908373ffffffffffffffffffffffffffffffffffffffff16021790555083600360016101000a81548160ff021916908360ff16021790555082600360006101000a81548160ff021916908315150217905550505050505050505050505062000387565b828054600181600116156101000203166002900490600052602060002090601f016020900481019282601f106200031b57805160ff19168380011785556200034c565b828001600101855582156200034c579182015b828111156200034b5782518255916020019190600101906200032e565b5b5090506200035b91906200035f565b5090565b6200038491905b808211156200038057600081600090555060010162000366565b5090565b90565b61419a80620003976000396000f3fe6080604052600436106101815760003560e01c8063ba829d71116100d1578063dfbf53ae1161008a578063f040279f11610064578063f040279f14610956578063f4fbfd6914610a1e578063f58fef8e14610a8a578063fcc8f79314610aa157610181565b8063dfbf53ae146108a9578063e493ef8c14610900578063eff081191461092b57610181565b8063ba829d71146105ef578063c6e1ec4e1461061a578063c84e1137146106a4578063c90a7e8d146106ae578063d13a15f314610827578063d57bde791461087e57610181565b806364876f6e1161013e57806374b11d8a1161011857806374b11d8a1461054957806381806bb51461057457806382482f7c1461059f57806384ac26d4146105d857610181565b806364876f6e1461033657806369bd56091461039b5780636bc6ecc9146104f457610181565b8063101d4579146101865780632200b63e1461020157806325aff27a1461022c57806347a0375b146102bc5780634ba9a927146102f457806357ea89b61461031f575b600080fd5b34801561019257600080fd5b506101bf600480360360208110156101a957600080fd5b8101908080359060200190929190505050610b9a565b604051808273ffffffffffffffffffffffffffffffffffffffff1673ffffffffffffffffffffffffffffffffffffffff16815260200191505060405180910390f35b34801561020d57600080fd5b50610216610bd6565b6040518082815260200191505060405180910390f35b34801561023857600080fd5b50610241610bdc565b6040518080602001828103825283818151815260200191508051906020019080838360005b83811015610281578082015181840152602081019050610266565b50505050905090810190601f1680156102ae5780820380516001836020036101000a031916815260200191505b509250505060405180910390f35b6102f2600480360360408110156102d257600080fd5b810190808035906020019092919080359060200190929190505050610c7a565b005b34801561030057600080fd5b50610309611049565b6040518082815260200191505060405180910390f35b34801561032b57600080fd5b5061033461104f565b005b34801561034257600080fd5b506103996004803603606081101561035957600080fd5b81019080803573ffffffffffffffffffffffffffffffffffffffff1690602001909291908035906020019092919080359060200190929190505050611428565b005b3480156103a757600080fd5b506104f2600480360360408110156103be57600080fd5b81019080803590602001906401000000008111156103db57600080fd5b8201836020820111156103ed57600080fd5b8035906020019184602083028401116401000000008311171561040f57600080fd5b919080806020026020016040519081016040528093929190818152602001838360200280828437600081840152601f19601f8201169050808301925050505050505091929192908035906020019064010000000081111561046f57600080fd5b82018360208201111561048157600080fd5b803590602001918460208302840111640100000000831117156104a357600080fd5b919080806020026020016040519081016040528093929190818152602001838360200280828437600081840152601f19601f820116905080830192505050505050509192919290505050611938565b005b34801561050057600080fd5b50610509612f87565b6040518086815260200185815260200184815260200183815260200182600581111561053157fe5b60ff1681526020019550505050505060405180910390f35b34801561055557600080fd5b5061055e612fbc565b6040518082815260200191505060405180910390f35b34801561058057600080fd5b50610589612fc2565b6040518082815260200191505060405180910390f35b3480156105ab57600080fd5b506105b4612fc8565b604051808260058111156105c457fe5b60ff16815260200191505060405180910390f35b3480156105e457600080fd5b506105ed612fdb565b005b3480156105fb57600080fd5b5061060461330e565b6040518082815260200191505060405180910390f35b34801561062657600080fd5b506106696004803603602081101561063d57600080fd5b81019080803573ffffffffffffffffffffffffffffffffffffffff169060200190929190505050613314565b604051808515151515815260200184151515158152602001831515151581526020018215151515815260200194505050505060405180910390f35b6106ac61343d565b005b3480156106ba57600080fd5b50610825600480360360608110156106d157600080fd5b81019080803573ffffffffffffffffffffffffffffffffffffffff1690602001909291908035906020019064010000000081111561070e57600080fd5b82018360208201111561072057600080fd5b8035906020019184602083028401116401000000008311171561074257600080fd5b919080806020026020016040519081016040528093929190818152602001838360200280828437600081840152601f19601f820116905080830192505050505050509192919290803590602001906401000000008111156107a257600080fd5b8201836020820111156107b457600080fd5b803590602001918460208302840111640100000000831117156107d657600080fd5b919080806020026020016040519081016040528093929190818152602001838360200280828437600081840152601f19601f820116905080830192505050505050509192919290505050613618565b005b34801561083357600080fd5b5061083c613b36565b604051808273ffffffffffffffffffffffffffffffffffffffff1673ffffffffffffffffffffffffffffffffffffffff16815260200191505060405180910390f35b34801561088a57600080fd5b50610893613b5c565b6040518082815260200191505060405180910390f35b3480156108b557600080fd5b506108be613b62565b604051808273ffffffffffffffffffffffffffffffffffffffff1673ffffffffffffffffffffffffffffffffffffffff16815260200191505060405180910390f35b34801561090c57600080fd5b50610915613b88565b6040518082815260200191505060405180910390f35b34801561093757600080fd5b50610940613b8e565b6040518082815260200191505060405180910390f35b34801561096257600080fd5b50610a1c6004803603602081101561097957600080fd5b810190808035906020019064010000000081111561099657600080fd5b8201836020820111156109a857600080fd5b803590602001918460018302840111640100000000831117156109ca57600080fd5b91908080601f016020809104026020016040519081016040528093929190818152602001838380828437600081840152601f19601f820116905080830192505050505050509192919290505050613b94565b005b348015610a2a57600080fd5b50610a33613dd7565b6040518080602001828103825283818151815260200191508051906020019060200280838360005b83811015610a76578082015181840152602081019050610a5b565b505050509050019250505060405180910390f35b348015610a9657600080fd5b50610a9f613e65565b005b348015610aad57600080fd5b50610af060048036036020811015610ac457600080fd5b81019080803573ffffffffffffffffffffffffffffffffffffffff169060200190929190505050613ea0565b6040518087815260200186815260200180602001851515151581526020018415151515815260200183151515158152602001828103825286818151815260200191508051906020019080838360005b83811015610b5a578082015181840152602081019050610b3f565b50505050905090810190601f168015610b875780820380516001836020036101000a031916815260200191505b5097505050505050505060405180910390f35b60098181548110610ba757fe5b906000526020600020016000915054906101000a900473ffffffffffffffffffffffffffffffffffffffff1681565b600f5481565b60118054600181600116156101000203166002900480601f016020809104026020016040519081016040528092919081815260200182805460018160011615610100020316600290048015610c725780601f10610c4757610100808354040283529160200191610c72565b820191906000526020600020905b815481529060010190602001808311610c5557829003601f168201915b505050505081565b600c5480421080610c975750600360009054906101000a900460ff165b610d09576040517f08c379a000000000000000000000000000000000000000000000000000000000815260040180806020018281038252600c8152602001807f4e6f742074696d6520796574000000000000000000000000000000000000000081525060200191505060405180910390fd5b600f5460098054905010610d85576040517f08c379a00000000000000000000000000000000000000000000000000000000081526004018080602001828103825260108152602001807f546f6f206d616e7920626964646572730000000000000000000000000000000081525060200191505060405180910390fd5b601054341015610dfd576040517f08c379a000000000000000000000000000000000000000000000000000000000815260040180806020018281038252601b8152602001807f4665652073656e742062656c6f7720666169726e65737320666565000000000081525060200191505060405180910390fd5b60001515600860003373ffffffffffffffffffffffffffffffffffffffff1673ffffffffffffffffffffffffffffffffffffffff16815260200190815260200160002060030160029054906101000a900460ff16151514610ec6576040517f08c379a00000000000000000000000000000000000000000000000000000000081526004018080602001828103825260158152602001807f4269646465722068617320626964206265666f7265000000000000000000000081525060200191505060405180910390fd5b6040518060c0016040528084815260200183815260200160405180602001604052806000815250815260200160001515815260200160001515815260200160011515815250600860003373ffffffffffffffffffffffffffffffffffffffff1673ffffffffffffffffffffffffffffffffffffffff16815260200190815260200160002060008201518160000155602082015181600101556040820151816002019080519060200190610f7a929190613f9b565b5060608201518160030160006101000a81548160ff02191690831515021790555060808201518160030160016101000a81548160ff02191690831515021790555060a08201518160030160026101000a81548160ff02191690831515021790555090505060093390806001815401808255809150509060018203906000526020600020016000909192909190916101000a81548173ffffffffffffffffffffffffffffffffffffffff021916908373ffffffffffffffffffffffffffffffffffffffff16021790555050505050565b600c5481565b60058081111561105b57fe5b600060159054906101000a900460ff16600581111561107657fe5b14806110835750600e5442115b6110f5576040517f08c379a000000000000000000000000000000000000000000000000000000000815260040180806020018281038252601e8152602001807f426964646572206e6f7420616c6c6f77656420746f205769746864726177000081525060200191505060405180910390fd5b601260009054906101000a900473ffffffffffffffffffffffffffffffffffffffff1673ffffffffffffffffffffffffffffffffffffffff163373ffffffffffffffffffffffffffffffffffffffff1614156111b9576040517f08c379a00000000000000000000000000000000000000000000000000000000081526004018080602001828103825260168152602001807f57696e6e65722063616e6e6f742077697468647261770000000000000000000081525060200191505060405180910390fd5b60001515600860003373ffffffffffffffffffffffffffffffffffffffff1673ffffffffffffffffffffffffffffffffffffffff16815260200190815260200160002060030160019054906101000a900460ff16151514801561126f575060011515600860003373ffffffffffffffffffffffffffffffffffffffff1673ffffffffffffffffffffffffffffffffffffffff16815260200190815260200160002060030160029054906101000a900460ff161515145b6112c4576040517f08c379a00000000000000000000000000000000000000000000000000000000081526004018080602001828103825260268152602001806140c16026913960400191505060405180910390fd5b60001515600060149054906101000a900460ff1615151461134d576040517f08c379a000000000000000000000000000000000000000000000000000000000815260040180806020018281038252601c8152602001807f57697468647261772069732063757272656e746c79206c6f636b65640000000081525060200191505060405180910390fd5b6001600060146101000a81548160ff0219169083151502179055503373ffffffffffffffffffffffffffffffffffffffff166108fc6010549081150290604051600060405180830381858888f193505050501580156113b0573d6000803e3d6000fd5b506001600860003373ffffffffffffffffffffffffffffffffffffffff1673ffffffffffffffffffffffffffffffffffffffff16815260200190815260200160002060030160016101000a81548160ff02191690831515021790555060008060146101000a81548160ff021916908315150217905550565b600b60009054906101000a900473ffffffffffffffffffffffffffffffffffffffff1673ffffffffffffffffffffffffffffffffffffffff163373ffffffffffffffffffffffffffffffffffffffff16146114ce576040517f08c379a000000000000000000000000000000000000000000000000000000000815260040180806020018281038252602a815260200180614145602a913960400191505060405180910390fd5b600d54421180156114e05750600e5442105b806114f75750600360009054906101000a900460ff165b61154c576040517f08c379a000000000000000000000000000000000000000000000000000000000815260040180806020018281038252602d8152602001806140e7602d913960400191505060405180910390fd5b6000600581111561155957fe5b600060159054906101000a900460ff16600581111561157457fe5b146115e7576040517f08c379a00000000000000000000000000000000000000000000000000000000081526004018080602001828103825260208152602001807f436c61696d57696e6e657220686173206265656e20646f6e65206265666f726581525060200191505060405180910390fd5b60011515600860008573ffffffffffffffffffffffffffffffffffffffff1673ffffffffffffffffffffffffffffffffffffffff16815260200190815260200160002060030160029054906101000a900460ff16151514611693576040517f08c379a00000000000000000000000000000000000000000000000000000000081526004018080602001828103825260318152602001806141146031913960400191505060405180910390fd5b600554821061170a576040517f08c379a00000000000000000000000000000000000000000000000000000000081526004018080602001828103825260178152602001807f4269642065786365656473206d6178696d756d2062696400000000000000000081525060200191505060405180910390fd5b6000809054906101000a900473ffffffffffffffffffffffffffffffffffffffff1673ffffffffffffffffffffffffffffffffffffffff1663c30918d18383600860008873ffffffffffffffffffffffffffffffffffffffff1673ffffffffffffffffffffffffffffffffffffffff16815260200190815260200160002060000154600860008973ffffffffffffffffffffffffffffffffffffffff1673ffffffffffffffffffffffffffffffffffffffff168152602001908152602001600020600101546040518563ffffffff1660e01b815260040180858152602001848152602001838152602001828152602001945050505050602060405180830381600087803b15801561181a57600080fd5b505af115801561182e573d6000803e3d6000fd5b505050506040513d602081101561184457600080fd5b81019080805190602001909291905050506118c7576040517f08c379a000000000000000000000000000000000000000000000000000000000815260040180806020018281038252601c8152602001807f4f70656e2077696e6e657220636f6d6d6974206e6f742076616c69640000000081525060200191505060405180910390fd5b82601260006101000a81548173ffffffffffffffffffffffffffffffffffffffff021916908373ffffffffffffffffffffffffffffffffffffffff160217905550816013819055506001600060156101000a81548160ff0219169083600581111561192e57fe5b0217905550505050565b6003600581111561194557fe5b600060159054906101000a900460ff16600581111561196057fe5b148061199157506004600581111561197457fe5b600060159054906101000a900460ff16600581111561198f57fe5b145b611a03576040517f08c379a000000000000000000000000000000000000000000000000000000000815260040180806020018281038252601f8152602001807f5374617465206e6f7420566572696679206f722056657269667944656c74610081525060200191505060405180910390fd5b600080905060006002544060001c90506001600a81905550600080905060008090506000805b875184108015611a3d575060068054905083105b15612386576000600a5486161415611e3357600554600454896002870181518110611a6457fe5b60200260200101518a8781518110611a7857fe5b60200260200101510181611a8857fe5b0614611afc576040517f08c379a000000000000000000000000000000000000000000000000000000000815260040180806020018281038252600e8152602001807f57726f6e6720726573706f6e736500000000000000000000000000000000000081525060200191505060405180910390fd5b6000809054906101000a900473ffffffffffffffffffffffffffffffffffffffff1673ffffffffffffffffffffffffffffffffffffffff1663c30918d1898681518110611b4557fe5b60200260200101518a6001880181518110611b5c57fe5b602002602001015160068781548110611b7157fe5b906000526020600020015460066001890181548110611b8c57fe5b90600052602060002001546040518563ffffffff1660e01b815260040180858152602001848152602001838152602001828152602001945050505050602060405180830381600087803b158015611be257600080fd5b505af1158015611bf6573d6000803e3d6000fd5b505050506040513d6020811015611c0c57600080fd5b8101908080519060200190929190505050611c8f576040517f08c379a000000000000000000000000000000000000000000000000000000000815260040180806020018281038252600e8152602001807f4e6f74207665726966696564203100000000000000000000000000000000000081525060200191505060405180910390fd5b6000809054906101000a900473ffffffffffffffffffffffffffffffffffffffff1673ffffffffffffffffffffffffffffffffffffffff1663c30918d1896002870181518110611cdb57fe5b60200260200101518a6003880181518110611cf257fe5b602002602001015160066002880181548110611d0a57fe5b906000526020600020015460066003890181548110611d2557fe5b90600052602060002001546040518563ffffffff1660e01b815260040180858152602001848152602001838152602001828152602001945050505050602060405180830381600087803b158015611d7b57600080fd5b505af1158015611d8f573d6000803e3d6000fd5b505050506040513d6020811015611da557600080fd5b8101908080519060200190929190505050611e28576040517f08c379a000000000000000000000000000000000000000000000000000000000815260040180806020018281038252600e8152602001807f4e6f74207665726966696564203200000000000000000000000000000000000081525060200191505060405180910390fd5b600484019350612366565b6001886002860181518110611e4457fe5b60200260200101511415612028576000809054906101000a900473ffffffffffffffffffffffffffffffffffffffff1673ffffffffffffffffffffffffffffffffffffffff1663cde6248360086000600160009054906101000a900473ffffffffffffffffffffffffffffffffffffffff1673ffffffffffffffffffffffffffffffffffffffff1673ffffffffffffffffffffffffffffffffffffffff1681526020019081526020016000206000015460086000600160009054906101000a900473ffffffffffffffffffffffffffffffffffffffff1673ffffffffffffffffffffffffffffffffffffffff1673ffffffffffffffffffffffffffffffffffffffff1681526020019081526020016000206001015460068781548110611f6657fe5b906000526020600020015460066001890181548110611f8157fe5b90600052602060002001546040518563ffffffff1660e01b8152600401808581526020018481526020018381526020018281526020019450505050506040805180830381600087803b158015611fd657600080fd5b505af1158015611fea573d6000803e3d6000fd5b505050506040513d604081101561200057600080fd5b81019080805190602001909291908051906020019092919050505080925081935050506121fd565b6000809054906101000a900473ffffffffffffffffffffffffffffffffffffffff1673ffffffffffffffffffffffffffffffffffffffff1663cde6248360086000600160009054906101000a900473ffffffffffffffffffffffffffffffffffffffff1673ffffffffffffffffffffffffffffffffffffffff1673ffffffffffffffffffffffffffffffffffffffff1681526020019081526020016000206000015460086000600160009054906101000a900473ffffffffffffffffffffffffffffffffffffffff1673ffffffffffffffffffffffffffffffffffffffff1673ffffffffffffffffffffffffffffffffffffffff168152602001908152602001600020600101546006600288018154811061213f57fe5b90600052602060002001546006600389018154811061215a57fe5b90600052602060002001546040518563ffffffff1660e01b8152600401808581526020018481526020018381526020018281526020019450505050506040805180830381600087803b1580156121af57600080fd5b505af11580156121c3573d6000803e3d6000fd5b505050506040513d60408110156121d957600080fd5b81019080805190602001909291908051906020019092919050505080925081935050505b6000809054906101000a900473ffffffffffffffffffffffffffffffffffffffff1673ffffffffffffffffffffffffffffffffffffffff1663c30918d189868151811061224657fe5b60200260200101518a600188018151811061225d57fe5b602002602001015185856040518563ffffffff1660e01b815260040180858152602001848152602001838152602001828152602001945050505050602060405180830381600087803b1580156122b257600080fd5b505af11580156122c6573d6000803e3d6000fd5b505050506040513d60208110156122dc57600080fd5b810190808051906020019092919050505061235f576040517f08c379a000000000000000000000000000000000000000000000000000000000815260040180806020018281038252600e8152602001807f4e6f74207665726966696564203300000000000000000000000000000000000081525060200191505060405180910390fd5b6003840193505b6004830192506001600a54901b600a819055508580600101965050611a29565b600360019054906101000a900460ff1660ff168660ff1614612410576040517f08c379a000000000000000000000000000000000000000000000000000000000815260040180806020018281038252600b8152602001807f77726f6e6720636f756e7400000000000000000000000000000000000000000081525060200191505060405180910390fd5b6000955060009350600092505b865184108015612431575060078054905083105b15612e52576000600a54861614156128275760055460045488600287018151811061245857fe5b602002602001015189878151811061246c57fe5b6020026020010151018161247c57fe5b06146124f0576040517f08c379a00000000000000000000000000000000000000000000000000000000081526004018080602001828103825260138152602001807f77726f6e672064656c7461526573706f6e73650000000000000000000000000081525060200191505060405180910390fd5b6000809054906101000a900473ffffffffffffffffffffffffffffffffffffffff1673ffffffffffffffffffffffffffffffffffffffff1663c30918d188868151811061253957fe5b602002602001015189600188018151811061255057fe5b60200260200101516007878154811061256557fe5b90600052602060002001546007600189018154811061258057fe5b90600052602060002001546040518563ffffffff1660e01b815260040180858152602001848152602001838152602001828152602001945050505050602060405180830381600087803b1580156125d657600080fd5b505af11580156125ea573d6000803e3d6000fd5b505050506040513d602081101561260057600080fd5b8101908080519060200190929190505050612683576040517f08c379a00000000000000000000000000000000000000000000000000000000081526004018080602001828103825260148152602001807f64656c7461206e6f74207665726966696564203100000000000000000000000081525060200191505060405180910390fd5b6000809054906101000a900473ffffffffffffffffffffffffffffffffffffffff1673ffffffffffffffffffffffffffffffffffffffff1663c30918d18860028701815181106126cf57fe5b60200260200101518960038801815181106126e657fe5b6020026020010151600760028801815481106126fe57fe5b90600052602060002001546007600389018154811061271957fe5b90600052602060002001546040518563ffffffff1660e01b815260040180858152602001848152602001838152602001828152602001945050505050602060405180830381600087803b15801561276f57600080fd5b505af1158015612783573d6000803e3d6000fd5b505050506040513d602081101561279957600080fd5b810190808051906020019092919050505061281c576040517f08c379a00000000000000000000000000000000000000000000000000000000081526004018080602001828103825260148152602001807f64656c7461206e6f74207665726966696564203200000000000000000000000081525060200191505060405180910390fd5b600484019350612e32565b6000809054906101000a900473ffffffffffffffffffffffffffffffffffffffff1673ffffffffffffffffffffffffffffffffffffffff1663882033d160086000601260009054906101000a900473ffffffffffffffffffffffffffffffffffffffff1673ffffffffffffffffffffffffffffffffffffffff1673ffffffffffffffffffffffffffffffffffffffff1681526020019081526020016000206000015460086000601260009054906101000a900473ffffffffffffffffffffffffffffffffffffffff1673ffffffffffffffffffffffffffffffffffffffff1673ffffffffffffffffffffffffffffffffffffffff1681526020019081526020016000206001015460086000600160009054906101000a900473ffffffffffffffffffffffffffffffffffffffff1673ffffffffffffffffffffffffffffffffffffffff1673ffffffffffffffffffffffffffffffffffffffff1681526020019081526020016000206000015460086000600160009054906101000a900473ffffffffffffffffffffffffffffffffffffffff1673ffffffffffffffffffffffffffffffffffffffff1673ffffffffffffffffffffffffffffffffffffffff168152602001908152602001600020600101546040518563ffffffff1660e01b8152600401808581526020018481526020018381526020018281526020019450505050506040805180830381600087803b158015612a4257600080fd5b505af1158015612a56573d6000803e3d6000fd5b505050506040513d6040811015612a6c57600080fd5b81019080805190602001909291908051906020019092919050505080925081935050506001876002860181518110612aa057fe5b60200260200101511415612bbc576000809054906101000a900473ffffffffffffffffffffffffffffffffffffffff1673ffffffffffffffffffffffffffffffffffffffff1663cde62483838360078781548110612afa57fe5b906000526020600020015460076001890181548110612b1557fe5b90600052602060002001546040518563ffffffff1660e01b8152600401808581526020018481526020018381526020018281526020019450505050506040805180830381600087803b158015612b6a57600080fd5b505af1158015612b7e573d6000803e3d6000fd5b505050506040513d6040811015612b9457600080fd5b8101908080519060200190929190805190602001909291905050508092508193505050612cc9565b6000809054906101000a900473ffffffffffffffffffffffffffffffffffffffff1673ffffffffffffffffffffffffffffffffffffffff1663cde62483838360076002880181548110612c0b57fe5b906000526020600020015460076003890181548110612c2657fe5b90600052602060002001546040518563ffffffff1660e01b8152600401808581526020018481526020018381526020018281526020019450505050506040805180830381600087803b158015612c7b57600080fd5b505af1158015612c8f573d6000803e3d6000fd5b505050506040513d6040811015612ca557600080fd5b81019080805190602001909291908051906020019092919050505080925081935050505b6000809054906101000a900473ffffffffffffffffffffffffffffffffffffffff1673ffffffffffffffffffffffffffffffffffffffff1663c30918d1888681518110612d1257fe5b6020026020010151896001880181518110612d2957fe5b602002602001015185856040518563ffffffff1660e01b815260040180858152602001848152602001838152602001828152602001945050505050602060405180830381600087803b158015612d7e57600080fd5b505af1158015612d92573d6000803e3d6000fd5b505050506040513d6020811015612da857600080fd5b8101908080519060200190929190505050612e2b576040517f08c379a00000000000000000000000000000000000000000000000000000000081526004018080602001828103825260148152602001807f64656c7461206e6f74207665726966696564203300000000000000000000000081525060200191505060405180910390fd5b6003840193505b6004830192506001600a54901b600a81905550858060010196505061241d565b600360019054906101000a900460ff1660ff168660ff1614612edc576040517f08c379a000000000000000000000000000000000000000000000000000000000815260040180806020018281038252600b8152602001807f77726f6e6720636f756e7400000000000000000000000000000000000000000081525060200191505060405180910390fd5b600160086000600160009054906101000a900473ffffffffffffffffffffffffffffffffffffffff1673ffffffffffffffffffffffffffffffffffffffff1673ffffffffffffffffffffffffffffffffffffffff16815260200190815260200160002060030160006101000a81548160ff0219169083151502179055506001600060156101000a81548160ff02191690836005811115612f7857fe5b02179055505050505050505050565b6000806000806000600c54600d54600e54601054600060159054906101000a900460ff16945094509450945094509091929394565b60055481565b60105481565b600060159054906101000a900460ff1681565b600b60009054906101000a900473ffffffffffffffffffffffffffffffffffffffff1673ffffffffffffffffffffffffffffffffffffffff163373ffffffffffffffffffffffffffffffffffffffff1614613081576040517f08c379a000000000000000000000000000000000000000000000000000000000815260040180806020018281038252602a815260200180614145602a913960400191505060405180910390fd5b600d54421180156130935750600e5442105b806130aa5750600360009054906101000a900460ff165b6130ff576040517f08c379a000000000000000000000000000000000000000000000000000000000815260040180806020018281038252602d8152602001806140e7602d913960400191505060405180910390fd5b60008090505b6009805490508110156132e757601260009054906101000a900473ffffffffffffffffffffffffffffffffffffffff1673ffffffffffffffffffffffffffffffffffffffff166009828154811061315857fe5b9060005260206000200160009054906101000a900473ffffffffffffffffffffffffffffffffffffffff1673ffffffffffffffffffffffffffffffffffffffff16146132da5760086000600983815481106131af57fe5b9060005260206000200160009054906101000a900473ffffffffffffffffffffffffffffffffffffffff1673ffffffffffffffffffffffffffffffffffffffff1673ffffffffffffffffffffffffffffffffffffffff16815260200190815260200160002060030160009054906101000a900460ff166132d9576000601260006101000a81548173ffffffffffffffffffffffffffffffffffffffff021916908373ffffffffffffffffffffffffffffffffffffffff1602179055506040517f08c379a000000000000000000000000000000000000000000000000000000000815260040180806020018281038252600c8152602001807f6e6f74207665726966696564000000000000000000000000000000000000000081525060200191505060405180910390fd5b5b8080600101915050613105565b506005600060156101000a81548160ff0219169083600581111561330757fe5b0217905550565b600d5481565b6000806000806000600860008773ffffffffffffffffffffffffffffffffffffffff1673ffffffffffffffffffffffffffffffffffffffff16815260200190815260200160002060030160029054906101000a900460ff1690506000600860008873ffffffffffffffffffffffffffffffffffffffff1673ffffffffffffffffffffffffffffffffffffffff16815260200190815260200160002060030160019054906101000a900460ff1690506000600f54600980549050101590506000601260009054906101000a900473ffffffffffffffffffffffffffffffffffffffff1673ffffffffffffffffffffffffffffffffffffffff168973ffffffffffffffffffffffffffffffffffffffff16149050838284839750975097509750505050509193509193565b60058081111561344957fe5b600060159054906101000a900460ff16600581111561346457fe5b146134d7576040517f08c379a00000000000000000000000000000000000000000000000000000000081526004018080602001828103825260138152602001807f4e6f742074696d6520746f20706179207965740000000000000000000000000081525060200191505060405180910390fd5b601260009054906101000a900473ffffffffffffffffffffffffffffffffffffffff1673ffffffffffffffffffffffffffffffffffffffff163373ffffffffffffffffffffffffffffffffffffffff161461359a576040517f08c379a00000000000000000000000000000000000000000000000000000000081526004018080602001828103825260188152602001807f426964646572206973206e6f74207468652077696e6e6572000000000000000081525060200191505060405180910390fd5b60105460135403341015613616576040517f08c379a000000000000000000000000000000000000000000000000000000000815260040180806020018281038252601f8152602001807f56616c7565206973206c657373207468616e2070726f6d69736564206269640081525060200191505060405180910390fd5b565b600b60009054906101000a900473ffffffffffffffffffffffffffffffffffffffff1673ffffffffffffffffffffffffffffffffffffffff163373ffffffffffffffffffffffffffffffffffffffff16146136be576040517f08c379a000000000000000000000000000000000000000000000000000000000815260040180806020018281038252602a815260200180614145602a913960400191505060405180910390fd5b600d54421180156136d05750600e5442105b806136e75750600360009054906101000a900460ff165b61373c576040517f08c379a000000000000000000000000000000000000000000000000000000000815260040180806020018281038252602d8152602001806140e7602d913960400191505060405180910390fd5b6001600581111561374957fe5b600060159054906101000a900460ff16600581111561376457fe5b148061377c5750600360009054906101000a900460ff165b6137ee576040517f08c379a000000000000000000000000000000000000000000000000000000000815260040180806020018281038252601e8152602001807f41756374696f6e207374617465206973206e6f74204368616c6c656e6765000081525060200191505060405180910390fd5b6004600360019054906101000a900460ff160260ff16825114613879576040517f08c379a00000000000000000000000000000000000000000000000000000000081526004018080602001828103825260178152602001807f436f6d6d697473206f662077726f6e67206c656e67746800000000000000000081525060200191505060405180910390fd5b80518251146138f0576040517f08c379a000000000000000000000000000000000000000000000000000000000815260040180806020018281038252601c8152602001807f64656c7461436f6d6d697473206f662077726f6e67206c656e6774680000000081525060200191505060405180910390fd5b60011515600860008573ffffffffffffffffffffffffffffffffffffffff1673ffffffffffffffffffffffffffffffffffffffff16815260200190815260200160002060030160029054906101000a900460ff161515146139b9576040517f08c379a00000000000000000000000000000000000000000000000000000000081526004018080602001828103825260158152602001807f42696464657220646f6573206e6f74206578697374000000000000000000000081525060200191505060405180910390fd5b82600160006101000a81548173ffffffffffffffffffffffffffffffffffffffff021916908373ffffffffffffffffffffffffffffffffffffffff1602179055504360028190555060008090505b8251811015613b0c57806006805490501415613aa0576006838281518110613a2b57fe5b602002602001015190806001815401808255809150509060018203906000526020600020016000909192909190915055506007828281518110613a6a57fe5b60200260200101519080600181540180825580915050906001820390600052602060002001600090919290919091505550613aff565b828181518110613aac57fe5b602002602001015160068281548110613ac157fe5b9060005260206000200181905550818181518110613adb57fe5b602002602001015160078281548110613af057fe5b90600052602060002001819055505b8080600101915050613a07565b506003600060156101000a81548160ff02191690836005811115613b2c57fe5b0217905550505050565b600b60009054906101000a900473ffffffffffffffffffffffffffffffffffffffff1681565b60135481565b601260009054906101000a900473ffffffffffffffffffffffffffffffffffffffff1681565b60045481565b600e5481565b600d5480421080613bb15750600360009054906101000a900460ff165b613c23576040517f08c379a000000000000000000000000000000000000000000000000000000000815260040180806020018281038252600c8152602001807f4e6f742074696d6520796574000000000000000000000000000000000000000081525060200191505060405180910390fd5b600c5480421180613c405750600360009054906101000a900460ff165b613cb2576040517f08c379a000000000000000000000000000000000000000000000000000000000815260040180806020018281038252600f8152602001807f54696d652068617320706173736564000000000000000000000000000000000081525060200191505060405180910390fd5b60011515600860003373ffffffffffffffffffffffffffffffffffffffff1673ffffffffffffffffffffffffffffffffffffffff16815260200190815260200160002060030160029054906101000a900460ff16151514613d7b576040517f08c379a00000000000000000000000000000000000000000000000000000000081526004018080602001828103825260158152602001807f42696464657220646f6573206e6f74206578697374000000000000000000000081525060200191505060405180910390fd5b82600860003373ffffffffffffffffffffffffffffffffffffffff1673ffffffffffffffffffffffffffffffffffffffff1681526020019081526020016000206002019080519060200190613dd192919061401b565b50505050565b60606009805480602002602001604051908101604052809291908181526020018280548015613e5b57602002820191906000526020600020905b8160009054906101000a900473ffffffffffffffffffffffffffffffffffffffff1673ffffffffffffffffffffffffffffffffffffffff1681526020019060010190808311613e11575b5050505050905090565b600b60009054906101000a900473ffffffffffffffffffffffffffffffffffffffff1673ffffffffffffffffffffffffffffffffffffffff16ff5b6008602052806000526040600020600091509050806000015490806001015490806002018054600181600116156101000203166002900480601f016020809104026020016040519081016040528092919081815260200182805460018160011615610100020316600290048015613f585780601f10613f2d57610100808354040283529160200191613f58565b820191906000526020600020905b815481529060010190602001808311613f3b57829003601f168201915b5050505050908060030160009054906101000a900460ff16908060030160019054906101000a900460ff16908060030160029054906101000a900460ff16905086565b828054600181600116156101000203166002900490600052602060002090601f016020900481019282601f10613fdc57805160ff191683800117855561400a565b8280016001018555821561400a579182015b82811115614009578251825591602001919060010190613fee565b5b509050614017919061409b565b5090565b828054600181600116156101000203166002900490600052602060002090601f016020900481019282601f1061405c57805160ff191683800117855561408a565b8280016001018555821561408a579182015b8281111561408957825182559160200191906001019061406e565b5b509050614097919061409b565b5090565b6140bd91905b808211156140b95760008160009055506001016140a1565b5090565b9056fe426964646572206861732077697468647261776e206f7220646f6573206e6f742065786973744e6f77206973206e6f74207468652074696d6520746f20706572666f726d2074686973206f7065726174696f6e4269646465722074686174206973206465656d656420746f2062652077696e6e657220646f6573206e6f742065786973744f6e6c792061756374696f6e6565722063616e20706572666f726d2074686973206f7065726174696f6ea165627a7a723058208455d46b7a99e9f8464b997db421c7d5dce6d7381de6e683acb629680404dee70029a165627a7a72305820ba47ba48f12ce4c8508ea10f333c0d1bb263a65ab03b538dfb5a3bcda18b0568002960806040527f30644e72e131a029b85045b68181585d97816a916871ca8d3c208c16d87cfd476000557f2bd3e6d0f3b142924f5ca7b49ce5b9d54c4703d7ae5648e61d02268b1a0a9fb76001557f21611ce0a6af85915e2f1d70300909ce2e49dfad4a4619c8390cae66cefdb2046002557f070a8d6a982153cae4be29d434e8faef8a47b274a053f5a4ee2a6c9c13c31e5c6003557f031b8ce914eba3a9ffb989f9cdd5b0f01943074bf4f0f315690ec3cec6981afc6004553480156100c457600080fd5b5061042b806100d46000396000f3fe608060405234801561001057600080fd5b506004361061004c5760003560e01c8063882033d114610051578063acafc535146100b8578063c30918d11461010b578063cde624831461016f575b600080fd5b61009b6004803603608081101561006757600080fd5b81019080803590602001909291908035906020019092919080359060200190929190803590602001909291905050506101d6565b604051808381526020018281526020019250505060405180910390f35b6100ee600480360360408110156100ce57600080fd5b8101908080359060200190929190803590602001909291905050506101fa565b604051808381526020018281526020019250505060405180910390f35b6101556004803603608081101561012157600080fd5b8101908080359060200190929190803590602001909291908035906020019092919080359060200190929190505050610248565b604051808215151515815260200191505060405180910390f35b6101b96004803603608081101561018557600080fd5b8101908080359060200190929190803590602001909291908035906020019092919080359060200190929190505050610275565b604051808381526020018281526020019250505060405180910390f35b6000806101e98686868660005403610275565b809250819350505094509492505050565b60008060008061020f8660015460025461033e565b915091506000806102258760035460045461033e565b9150915061023584848484610275565b8096508197505050505050509250929050565b600080600061025787876101fa565b91509150818514801561026957508084145b92505050949350505050565b6000806000809050606060806040519080825280601f01601f1916602001820160405280156102b35781602001600182028038833980820191505090505b5090506060604080519080825280601f01601f1916602001820160405280156102eb5781602001600182028038833980820191505090505b509050886020830152876040830152866060830152856080830152604060208201608060208501600060065af1925060208101519450604081015193508261033257600080fd5b50505094509492505050565b60008060008090506060806040519080825280601f01601f19166020018201604052801561037b5781602001600182028038833980820191505090505b5090506060604080519080825280601f01601f1916602001820160405280156103b35781602001600182028038833980820191505090505b509050866020830152856040830152876060830152604060208201606060208501600060075af192506020810151945060408101519350826103f457600080fd5b50505093509391505056fea165627a7a7230582035050b0d63544b5d2a4faca02a098543f86fc3fbb9fdaff87fca930c2d50d0b70029",
  "source": "pragma solidity >0.4.18;\nimport {Auction} from \"./BlindAuctionZKP.sol\";\nimport {Pedersen} from \"./Pedersen.sol\";\n\ncontract AuctionFactory {\n    struct AuctionData {\n      string name;\n      string desc;\n      Auction auctionContract;\n    }\n    address[] public auctionsAddresses;\n    mapping (address => AuctionData) auctions;\n    address public pedersen;\n\n    event AuctionCreated(address auctionContract, address owner, uint numAuctions, address[] allAuctions);\n\n    constructor() public {\n      pedersen = address(new Pedersen());\n    }\n\n    function createAuction(string memory _name, string memory _desc, uint _bidEndTime, uint _revealTime,\n    uint _winnerPaymentTime, uint _maxBiddersCount, uint _fairnessFees, string memory _auctioneerRSAPublicKey,\n    uint8 k, bool _testing) public payable returns(address) {\n      Auction newAuction = new Auction(_bidEndTime, _revealTime, _winnerPaymentTime, _maxBiddersCount,\n      _fairnessFees, _auctioneerRSAPublicKey, pedersen, k, _testing, msg.sender, msg.value);\n      auctionsAddresses.push(address(newAuction));\n      auctions[address(newAuction)] = AuctionData(_name, _desc, newAuction);\n\n      emit AuctionCreated(address(newAuction), msg.sender, auctionsAddresses.length, auctionsAddresses);\n    }\n\n    function allAuctions() public view returns (address[] memory) {\n        return auctionsAddresses;\n    }\n\n    function getAuctionData(address _address) public view returns (string memory, string memory){\n      return (auctions[_address].name, auctions[_address].desc);\n    }\n}",
  "sourcePath": "/Users/siska/Desktop/FYP/workspace/auction-truffle-box/contracts/AuctionFactory.sol",
  "compiler": {
    "name": "solc",
    "version": "0.5.8+commit.23d335f2.Emscripten.clang"
  },
  "schemaVersion": "3.0.16",
  "updatedAt": "2019-10-11T06:20:21.598Z",
  "devdoc": {
    "methods": {}
  },
  "userdoc": {
    "methods": {}
  }
}