{
  "contractName": "AuctionFactory",
  "abi": [
    {
      "constant": true,
      "inputs": [
        {
          "name": "",
          "type": "uint256"
        }
      ],
      "name": "auctionsAddresses",
      "outputs": [
        {
          "name": "",
          "type": "address"
        }
      ],
      "payable": false,
      "stateMutability": "view",
      "type": "function"
    },
    {
      "constant": true,
      "inputs": [],
      "name": "pedersen",
      "outputs": [
        {
          "name": "",
          "type": "address"
        }
      ],
      "payable": false,
      "stateMutability": "view",
      "type": "function"
    },
    {
      "inputs": [],
      "payable": false,
      "stateMutability": "nonpayable",
      "type": "constructor"
    },
    {
      "anonymous": false,
      "inputs": [
        {
          "indexed": false,
          "name": "auctionContract",
          "type": "address"
        },
        {
          "indexed": false,
          "name": "owner",
          "type": "address"
        },
        {
          "indexed": false,
          "name": "numAuctions",
          "type": "uint256"
        },
        {
          "indexed": false,
          "name": "allAuctions",
          "type": "address[]"
        }
      ],
      "name": "AuctionCreated",
      "type": "event"
    },
    {
      "constant": false,
      "inputs": [
        {
          "name": "_name",
          "type": "string"
        },
        {
          "name": "_desc",
          "type": "string"
        },
        {
          "name": "_bidEndTime",
          "type": "uint256"
        },
        {
          "name": "_revealTime",
          "type": "uint256"
        },
        {
          "name": "_winnerPaymentTime",
          "type": "uint256"
        },
        {
          "name": "_maxBiddersCount",
          "type": "uint256"
        },
        {
          "name": "_fairnessFees",
          "type": "uint256"
        },
        {
          "name": "_auctioneerRSAPublicKey",
          "type": "string"
        },
        {
          "name": "k",
          "type": "uint8"
        },
        {
          "name": "_testing",
          "type": "bool"
        }
      ],
      "name": "createAuction",
      "outputs": [],
      "payable": true,
      "stateMutability": "payable",
      "type": "function"
    },
    {
      "constant": true,
      "inputs": [],
      "name": "allAuctions",
      "outputs": [
        {
          "name": "",
          "type": "address[]"
        }
      ],
      "payable": false,
      "stateMutability": "view",
      "type": "function"
    },
    {
      "constant": true,
      "inputs": [
        {
          "name": "_address",
          "type": "address"
        }
      ],
      "name": "getAuctionData",
      "outputs": [
        {
          "name": "",
          "type": "string"
        },
        {
          "name": "",
          "type": "string"
        }
      ],
      "payable": false,
      "stateMutability": "view",
      "type": "function"
    }
  ],
  "bytecode": "0x608060405234801561001057600080fd5b5060405161001d9061007f565b604051809103906000f080158015610039573d6000803e3d6000fd5b50600260006101000a81548173ffffffffffffffffffffffffffffffffffffffff021916908373ffffffffffffffffffffffffffffffffffffffff16021790555061008c565b6104ff806143e983390190565b61434e8061009b6000396000f3fe608060405260043610620000505760003560e01c80631295490414620000555780631bbcd4a514620000d45780633276d9ff146200014557806364bcbc31146200019f578063d9cdd0bf14620002df575b600080fd5b3480156200006257600080fd5b5062000092600480360360208110156200007b57600080fd5b810190808035906020019092919050505062000520565b604051808273ffffffffffffffffffffffffffffffffffffffff1673ffffffffffffffffffffffffffffffffffffffff16815260200191505060405180910390f35b348015620000e157600080fd5b50620000ec6200055d565b6040518080602001828103825283818151815260200191508051906020019060200280838360005b838110156200013157808201518184015260208101905062000114565b505050509050019250505060405180910390f35b3480156200015257600080fd5b506200015d620005ed565b604051808273ffffffffffffffffffffffffffffffffffffffff1673ffffffffffffffffffffffffffffffffffffffff16815260200191505060405180910390f35b348015620001ac57600080fd5b50620001f260048036036020811015620001c557600080fd5b81019080803573ffffffffffffffffffffffffffffffffffffffff16906020019092919050505062000613565b604051808060200180602001838103835285818151815260200191508051906020019080838360005b83811015620002385780820151818401526020810190506200021b565b50505050905090810190601f168015620002665780820380516001836020036101000a031916815260200191505b50838103825284818151815260200191508051906020019080838360005b83811015620002a157808201518184015260208101905062000284565b50505050905090810190601f168015620002cf5780820380516001836020036101000a031916815260200191505b5094505050505060405180910390f35b6200051e6004803603610140811015620002f857600080fd5b81019080803590602001906401000000008111156200031657600080fd5b8201836020820111156200032957600080fd5b803590602001918460018302840111640100000000831117156200034c57600080fd5b91908080601f016020809104026020016040519081016040528093929190818152602001838380828437600081840152601f19601f82011690508083019250505050505050919291929080359060200190640100000000811115620003b057600080fd5b820183602082011115620003c357600080fd5b80359060200191846001830284011164010000000083111715620003e657600080fd5b91908080601f016020809104026020016040519081016040528093929190818152602001838380828437600081840152601f19601f8201169050808301925050505050505091929192908035906020019092919080359060200190929190803590602001909291908035906020019092919080359060200190929190803590602001906401000000008111156200047c57600080fd5b8201836020820111156200048f57600080fd5b80359060200191846001830284011164010000000083111715620004b257600080fd5b91908080601f016020809104026020016040519081016040528093929190818152602001838380828437600081840152601f19601f820116905080830192505050505050509192919290803560ff169060200190929190803515159060200190929190505050620007e3565b005b600081815481106200052e57fe5b906000526020600020016000915054906101000a900473ffffffffffffffffffffffffffffffffffffffff1681565b60606000805480602002602001604051908101604052809291908181526020018280548015620005e357602002820191906000526020600020905b8160009054906101000a900473ffffffffffffffffffffffffffffffffffffffff1673ffffffffffffffffffffffffffffffffffffffff168152602001906001019080831162000598575b5050505050905090565b600260009054906101000a900473ffffffffffffffffffffffffffffffffffffffff1681565b606080600160008473ffffffffffffffffffffffffffffffffffffffff1673ffffffffffffffffffffffffffffffffffffffff168152602001908152602001600020600001600160008573ffffffffffffffffffffffffffffffffffffffff1673ffffffffffffffffffffffffffffffffffffffff168152602001908152602001600020600101818054600181600116156101000203166002900480601f016020809104026020016040519081016040528092919081815260200182805460018160011615610100020316600290048015620007335780601f10620007075761010080835404028352916020019162000733565b820191906000526020600020905b8154815290600101906020018083116200071557829003601f168201915b50505050509150808054600181600116156101000203166002900480601f016020809104026020016040519081016040528092919081815260200182805460018160011615610100020316600290048015620007d35780601f10620007a757610100808354040283529160200191620007d3565b820191906000526020600020905b815481529060010190602001808311620007b557829003601f168201915b5050505050905091509150915091565b6000888888888888600260009054906101000a900473ffffffffffffffffffffffffffffffffffffffff1689893334604051620008209062000be8565b808c81526020018b81526020018a8152602001898152602001888152602001806020018773ffffffffffffffffffffffffffffffffffffffff1673ffffffffffffffffffffffffffffffffffffffff1681526020018660ff1660ff168152602001851515151581526020018473ffffffffffffffffffffffffffffffffffffffff1673ffffffffffffffffffffffffffffffffffffffff168152602001838152602001828103825288818151815260200191508051906020019080838360005b83811015620008fd578082015181840152602081019050620008e0565b50505050905090810190601f1680156200092b5780820380516001836020036101000a031916815260200191505b509c50505050505050505050505050604051809103906000f08015801562000957573d6000803e3d6000fd5b50905060008190806001815401808255809150509060018203906000526020600020016000909192909190916101000a81548173ffffffffffffffffffffffffffffffffffffffff021916908373ffffffffffffffffffffffffffffffffffffffff1602179055505060405180606001604052808c81526020018b81526020018273ffffffffffffffffffffffffffffffffffffffff16815250600160008373ffffffffffffffffffffffffffffffffffffffff1673ffffffffffffffffffffffffffffffffffffffff168152602001908152602001600020600082015181600001908051906020019062000a4e92919062000bf6565b50602082015181600101908051906020019062000a6d92919062000bf6565b5060408201518160020160006101000a81548173ffffffffffffffffffffffffffffffffffffffff021916908373ffffffffffffffffffffffffffffffffffffffff1602179055509050507f0d314047f0d1e39dbbd521f0844c35332083a15926b906540faa68e1a4262b6881336000805490506000604051808573ffffffffffffffffffffffffffffffffffffffff1673ffffffffffffffffffffffffffffffffffffffff1681526020018473ffffffffffffffffffffffffffffffffffffffff1673ffffffffffffffffffffffffffffffffffffffff16815260200183815260200180602001828103825283818154815260200191508054801562000bca57602002820191906000526020600020905b8160009054906101000a900473ffffffffffffffffffffffffffffffffffffffff1673ffffffffffffffffffffffffffffffffffffffff168152602001906001019080831162000b7f575b50509550505050505060405180910390a15050505050505050505050565b61367d8062000ca683390190565b828054600181600116156101000203166002900490600052602060002090601f016020900481019282601f1062000c3957805160ff191683800117855562000c6a565b8280016001018555821562000c6a579182015b8281111562000c6957825182559160200191906001019062000c4c565b5b50905062000c79919062000c7d565b5090565b62000ca291905b8082111562000c9e57600081600090555060010162000c84565b5090565b9056fe6080604052600a600360016101000a81548160ff021916908360ff1602179055507f30644e72e131a029b85045b68181585d97816a916871ca8d3c208c16d87cfd476004557f0c19139cb84c680a6e14116da060561765e05aa45a1c72a34f082305b61f3f516005556001600a553480156200007a57600080fd5b506040516200367d3803806200367d8339810180604052610160811015620000a157600080fd5b8101908080519060200190929190805190602001909291908051906020019092919080519060200190929190805190602001909291908051640100000000811115620000ec57600080fd5b828101905060208101848111156200010357600080fd5b81518560018202830111640100000000821117156200012157600080fd5b5050929190602001805190602001909291908051906020019092919080519060200190929190805190602001909291908051906020019092919050505086811015620001d5576040517f08c379a000000000000000000000000000000000000000000000000000000000815260040180806020018281038252600f8152602001807f4465706f73697420746f6f206c6f77000000000000000000000000000000000081525060200191505060405180910390fd5b81600b60006101000a81548173ffffffffffffffffffffffffffffffffffffffff021916908373ffffffffffffffffffffffffffffffffffffffff1602179055508a600c8190555089600d8190555088600e8190555087600f8190555086601081905550856011908051906020019062000251929190620002d8565b50846000806101000a81548173ffffffffffffffffffffffffffffffffffffffff021916908373ffffffffffffffffffffffffffffffffffffffff16021790555083600360016101000a81548160ff021916908360ff16021790555082600360006101000a81548160ff021916908315150217905550505050505050505050505062000387565b828054600181600116156101000203166002900490600052602060002090601f016020900481019282601f106200031b57805160ff19168380011785556200034c565b828001600101855582156200034c579182015b828111156200034b5782518255916020019190600101906200032e565b5b5090506200035b91906200035f565b5090565b6200038491905b808211156200038057600081600090555060010162000366565b5090565b90565b6132e680620003976000396000f3fe6080604052600436106101815760003560e01c8063ba829d71116100d1578063dfbf53ae1161008a578063f040279f11610064578063f040279f14610941578063f4fbfd6914610a09578063f58fef8e14610a75578063fcc8f79314610a8c57610181565b8063dfbf53ae14610894578063e493ef8c146108eb578063eff081191461091657610181565b8063ba829d71146105da578063c6e1ec4e14610605578063c84e11371461068f578063c90a7e8d14610699578063d13a15f314610812578063d57bde791461086957610181565b806357ea89b61161013e5780636bc6ecc9116101185780636bc6ecc91461051f57806381806bb51461055f57806382482f7c1461058a57806384ac26d4146105c357610181565b806357ea89b61461034a57806364876f6e1461036157806369bd5609146103c657610181565b8063101d457914610186578063205db2c1146102015780632200b63e1461022c57806325aff27a1461025757806347a0375b146102e75780634ba9a9271461031f575b600080fd5b34801561019257600080fd5b506101bf600480360360208110156101a957600080fd5b8101908080359060200190929190505050610b85565b604051808273ffffffffffffffffffffffffffffffffffffffff1673ffffffffffffffffffffffffffffffffffffffff16815260200191505060405180910390f35b34801561020d57600080fd5b50610216610bc1565b6040518082815260200191505060405180910390f35b34801561023857600080fd5b50610241610bc7565b6040518082815260200191505060405180910390f35b34801561026357600080fd5b5061026c610bcd565b6040518080602001828103825283818151815260200191508051906020019080838360005b838110156102ac578082015181840152602081019050610291565b50505050905090810190601f1680156102d95780820380516001836020036101000a031916815260200191505b509250505060405180910390f35b61031d600480360360408110156102fd57600080fd5b810190808035906020019092919080359060200190929190505050610c6b565b005b34801561032b57600080fd5b50610334610eff565b6040518082815260200191505060405180910390f35b34801561035657600080fd5b5061035f610f05565b005b34801561036d57600080fd5b506103c46004803603606081101561038457600080fd5b81019080803573ffffffffffffffffffffffffffffffffffffffff1690602001909291908035906020019092919080359060200190929190505050611157565b005b3480156103d257600080fd5b5061051d600480360360408110156103e957600080fd5b810190808035906020019064010000000081111561040657600080fd5b82018360208201111561041857600080fd5b8035906020019184602083028401116401000000008311171561043a57600080fd5b919080806020026020016040519081016040528093929190818152602001838360200280828437600081840152601f19601f8201169050808301925050505050505091929192908035906020019064010000000081111561049a57600080fd5b8201836020820111156104ac57600080fd5b803590602001918460208302840111640100000000831117156104ce57600080fd5b919080806020026020016040519081016040528093929190818152602001838360200280828437600081840152601f19601f820116905080830192505050505050509192919290505050611448565b005b34801561052b57600080fd5b50610534612614565b6040518085815260200184815260200183815260200182815260200194505050505060405180910390f35b34801561056b57600080fd5b50610574612634565b6040518082815260200191505060405180910390f35b34801561059657600080fd5b5061059f61263a565b604051808260058111156105af57fe5b60ff16815260200191505060405180910390f35b3480156105cf57600080fd5b506105d861264d565b005b3480156105e657600080fd5b506105ef61287f565b6040518082815260200191505060405180910390f35b34801561061157600080fd5b506106546004803603602081101561062857600080fd5b81019080803573ffffffffffffffffffffffffffffffffffffffff169060200190929190505050612885565b604051808515151515815260200184151515158152602001831515151581526020018215151515815260200194505050505060405180910390f35b6106976129ae565b005b3480156106a557600080fd5b50610810600480360360608110156106bc57600080fd5b81019080803573ffffffffffffffffffffffffffffffffffffffff169060200190929190803590602001906401000000008111156106f957600080fd5b82018360208201111561070b57600080fd5b8035906020019184602083028401116401000000008311171561072d57600080fd5b919080806020026020016040519081016040528093929190818152602001838360200280828437600081840152601f19601f8201169050808301925050505050505091929192908035906020019064010000000081111561078d57600080fd5b82018360208201111561079f57600080fd5b803590602001918460208302840111640100000000831117156107c157600080fd5b919080806020026020016040519081016040528093929190818152602001838360200280828437600081840152601f19601f820116905080830192505050505050509192919290505050612a4e565b005b34801561081e57600080fd5b50610827612d30565b604051808273ffffffffffffffffffffffffffffffffffffffff1673ffffffffffffffffffffffffffffffffffffffff16815260200191505060405180910390f35b34801561087557600080fd5b5061087e612d56565b6040518082815260200191505060405180910390f35b3480156108a057600080fd5b506108a9612d5c565b604051808273ffffffffffffffffffffffffffffffffffffffff1673ffffffffffffffffffffffffffffffffffffffff16815260200191505060405180910390f35b3480156108f757600080fd5b50610900612d82565b6040518082815260200191505060405180910390f35b34801561092257600080fd5b5061092b612d88565b6040518082815260200191505060405180910390f35b34801561094d57600080fd5b50610a076004803603602081101561096457600080fd5b810190808035906020019064010000000081111561098157600080fd5b82018360208201111561099357600080fd5b803590602001918460018302840111640100000000831117156109b557600080fd5b91908080601f016020809104026020016040519081016040528093929190818152602001838380828437600081840152601f19601f820116905080830192505050505050509192919290505050612d8e565b005b348015610a1557600080fd5b50610a1e612fd1565b6040518080602001828103825283818151815260200191508051906020019060200280838360005b83811015610a61578082015181840152602081019050610a46565b505050509050019250505060405180910390f35b348015610a8157600080fd5b50610a8a61305f565b005b348015610a9857600080fd5b50610adb60048036036020811015610aaf57600080fd5b81019080803573ffffffffffffffffffffffffffffffffffffffff16906020019092919050505061309a565b6040518087815260200186815260200180602001851515151581526020018415151515815260200183151515158152602001828103825286818151815260200191508051906020019080838360005b83811015610b45578082015181840152602081019050610b2a565b50505050905090810190601f168015610b725780820380516001836020036101000a031916815260200191505b5097505050505050505060405180910390f35b60098181548110610b9257fe5b906000526020600020016000915054906101000a900473ffffffffffffffffffffffffffffffffffffffff1681565b60055481565b600f5481565b60118054600181600116156101000203166002900480601f016020809104026020016040519081016040528092919081815260200182805460018160011615610100020316600290048015610c635780601f10610c3857610100808354040283529160200191610c63565b820191906000526020600020905b815481529060010190602001808311610c4657829003601f168201915b505050505081565b600c5480421080610c885750600360009054906101000a900460ff165b610cfa576040517f08c379a000000000000000000000000000000000000000000000000000000000815260040180806020018281038252600c8152602001807f4e6f742074696d6520796574000000000000000000000000000000000000000081525060200191505060405180910390fd5b600f5460098054905010610d0d57600080fd5b601054341015610d1c57600080fd5b60001515600860003373ffffffffffffffffffffffffffffffffffffffff1673ffffffffffffffffffffffffffffffffffffffff16815260200190815260200160002060030160029054906101000a900460ff16151514610d7c57600080fd5b6040518060c0016040528084815260200183815260200160405180602001604052806000815250815260200160001515815260200160001515815260200160011515815250600860003373ffffffffffffffffffffffffffffffffffffffff1673ffffffffffffffffffffffffffffffffffffffff16815260200190815260200160002060008201518160000155602082015181600101556040820151816002019080519060200190610e30929190613195565b5060608201518160030160006101000a81548160ff02191690831515021790555060808201518160030160016101000a81548160ff02191690831515021790555060a08201518160030160026101000a81548160ff02191690831515021790555090505060093390806001815401808255809150509060018203906000526020600020016000909192909190916101000a81548173ffffffffffffffffffffffffffffffffffffffff021916908373ffffffffffffffffffffffffffffffffffffffff16021790555050505050565b600c5481565b600580811115610f1157fe5b600060159054906101000a900460ff166005811115610f2c57fe5b1480610f395750600e5442115b610f4257600080fd5b601260009054906101000a900473ffffffffffffffffffffffffffffffffffffffff1673ffffffffffffffffffffffffffffffffffffffff163373ffffffffffffffffffffffffffffffffffffffff161415610f9d57600080fd5b60001515600860003373ffffffffffffffffffffffffffffffffffffffff1673ffffffffffffffffffffffffffffffffffffffff16815260200190815260200160002060030160019054906101000a900460ff161515148015611053575060011515600860003373ffffffffffffffffffffffffffffffffffffffff1673ffffffffffffffffffffffffffffffffffffffff16815260200190815260200160002060030160029054906101000a900460ff161515145b61105c57600080fd5b60001515600060149054906101000a900460ff1615151461107c57600080fd5b6001600060146101000a81548160ff0219169083151502179055503373ffffffffffffffffffffffffffffffffffffffff166108fc6010549081150290604051600060405180830381858888f193505050501580156110df573d6000803e3d6000fd5b506001600860003373ffffffffffffffffffffffffffffffffffffffff1673ffffffffffffffffffffffffffffffffffffffff16815260200190815260200160002060030160016101000a81548160ff02191690831515021790555060008060146101000a81548160ff021916908315150217905550565b600b60009054906101000a900473ffffffffffffffffffffffffffffffffffffffff1673ffffffffffffffffffffffffffffffffffffffff163373ffffffffffffffffffffffffffffffffffffffff16146111b157600080fd5b600d54421180156111c35750600e5442105b806111da5750600360009054906101000a900460ff165b6111e357600080fd5b600060058111156111f057fe5b600060159054906101000a900460ff16600581111561120b57fe5b1461121557600080fd5b60011515600860008573ffffffffffffffffffffffffffffffffffffffff1673ffffffffffffffffffffffffffffffffffffffff16815260200190815260200160002060030160029054906101000a900460ff1615151461127557600080fd5b600554821061128357600080fd5b6000809054906101000a900473ffffffffffffffffffffffffffffffffffffffff1673ffffffffffffffffffffffffffffffffffffffff1663c30918d18383600860008873ffffffffffffffffffffffffffffffffffffffff1673ffffffffffffffffffffffffffffffffffffffff16815260200190815260200160002060000154600860008973ffffffffffffffffffffffffffffffffffffffff1673ffffffffffffffffffffffffffffffffffffffff168152602001908152602001600020600101546040518563ffffffff1660e01b815260040180858152602001848152602001838152602001828152602001945050505050602060405180830381600087803b15801561139357600080fd5b505af11580156113a7573d6000803e3d6000fd5b505050506040513d60208110156113bd57600080fd5b81019080805190602001909291905050506113d757600080fd5b82601260006101000a81548173ffffffffffffffffffffffffffffffffffffffff021916908373ffffffffffffffffffffffffffffffffffffffff160217905550816013819055506001600060156101000a81548160ff0219169083600581111561143e57fe5b0217905550505050565b6003600581111561145557fe5b600060159054906101000a900460ff16600581111561147057fe5b14806114a157506004600581111561148457fe5b600060159054906101000a900460ff16600581111561149f57fe5b145b6114aa57600080fd5b600080905060006002544060001c90506001600a81905550600080905060008090506000805b8751841080156114e4575060068054905083105b15611c89576000600a548616141561179f5760055460045489600287018151811061150b57fe5b60200260200101518a878151811061151f57fe5b6020026020010151018161152f57fe5b061461153a57600080fd5b6000809054906101000a900473ffffffffffffffffffffffffffffffffffffffff1673ffffffffffffffffffffffffffffffffffffffff1663c30918d189868151811061158357fe5b60200260200101518a600188018151811061159a57fe5b6020026020010151600687815481106115af57fe5b9060005260206000200154600660018901815481106115ca57fe5b90600052602060002001546040518563ffffffff1660e01b815260040180858152602001848152602001838152602001828152602001945050505050602060405180830381600087803b15801561162057600080fd5b505af1158015611634573d6000803e3d6000fd5b505050506040513d602081101561164a57600080fd5b810190808051906020019092919050505061166457600080fd5b6000809054906101000a900473ffffffffffffffffffffffffffffffffffffffff1673ffffffffffffffffffffffffffffffffffffffff1663c30918d18960028701815181106116b057fe5b60200260200101518a60038801815181106116c757fe5b6020026020010151600660028801815481106116df57fe5b9060005260206000200154600660038901815481106116fa57fe5b90600052602060002001546040518563ffffffff1660e01b815260040180858152602001848152602001838152602001828152602001945050505050602060405180830381600087803b15801561175057600080fd5b505af1158015611764573d6000803e3d6000fd5b505050506040513d602081101561177a57600080fd5b810190808051906020019092919050505061179457600080fd5b600484019350611c69565b60018860028601815181106117b057fe5b60200260200101511415611994576000809054906101000a900473ffffffffffffffffffffffffffffffffffffffff1673ffffffffffffffffffffffffffffffffffffffff1663cde6248360086000600160009054906101000a900473ffffffffffffffffffffffffffffffffffffffff1673ffffffffffffffffffffffffffffffffffffffff1673ffffffffffffffffffffffffffffffffffffffff1681526020019081526020016000206000015460086000600160009054906101000a900473ffffffffffffffffffffffffffffffffffffffff1673ffffffffffffffffffffffffffffffffffffffff1673ffffffffffffffffffffffffffffffffffffffff16815260200190815260200160002060010154600687815481106118d257fe5b9060005260206000200154600660018901815481106118ed57fe5b90600052602060002001546040518563ffffffff1660e01b8152600401808581526020018481526020018381526020018281526020019450505050506040805180830381600087803b15801561194257600080fd5b505af1158015611956573d6000803e3d6000fd5b505050506040513d604081101561196c57600080fd5b8101908080519060200190929190805190602001909291905050508092508193505050611b69565b6000809054906101000a900473ffffffffffffffffffffffffffffffffffffffff1673ffffffffffffffffffffffffffffffffffffffff1663cde6248360086000600160009054906101000a900473ffffffffffffffffffffffffffffffffffffffff1673ffffffffffffffffffffffffffffffffffffffff1673ffffffffffffffffffffffffffffffffffffffff1681526020019081526020016000206000015460086000600160009054906101000a900473ffffffffffffffffffffffffffffffffffffffff1673ffffffffffffffffffffffffffffffffffffffff1673ffffffffffffffffffffffffffffffffffffffff1681526020019081526020016000206001015460066002880181548110611aab57fe5b906000526020600020015460066003890181548110611ac657fe5b90600052602060002001546040518563ffffffff1660e01b8152600401808581526020018481526020018381526020018281526020019450505050506040805180830381600087803b158015611b1b57600080fd5b505af1158015611b2f573d6000803e3d6000fd5b505050506040513d6040811015611b4557600080fd5b81019080805190602001909291908051906020019092919050505080925081935050505b6000809054906101000a900473ffffffffffffffffffffffffffffffffffffffff1673ffffffffffffffffffffffffffffffffffffffff1663c30918d1898681518110611bb257fe5b60200260200101518a6001880181518110611bc957fe5b602002602001015185856040518563ffffffff1660e01b815260040180858152602001848152602001838152602001828152602001945050505050602060405180830381600087803b158015611c1e57600080fd5b505af1158015611c32573d6000803e3d6000fd5b505050506040513d6020811015611c4857600080fd5b8101908080519060200190929190505050611c6257600080fd5b6003840193505b6004830192506001600a54901b600a8190555085806001019650506114d0565b600360019054906101000a900460ff1660ff168660ff1614611caa57600080fd5b6000955060009350600092505b865184108015611ccb575060078054905083105b15612548576000600a5486161415611f8657600554600454886002870181518110611cf257fe5b6020026020010151898781518110611d0657fe5b60200260200101510181611d1657fe5b0614611d2157600080fd5b6000809054906101000a900473ffffffffffffffffffffffffffffffffffffffff1673ffffffffffffffffffffffffffffffffffffffff1663c30918d1888681518110611d6a57fe5b6020026020010151896001880181518110611d8157fe5b602002602001015160078781548110611d9657fe5b906000526020600020015460076001890181548110611db157fe5b90600052602060002001546040518563ffffffff1660e01b815260040180858152602001848152602001838152602001828152602001945050505050602060405180830381600087803b158015611e0757600080fd5b505af1158015611e1b573d6000803e3d6000fd5b505050506040513d6020811015611e3157600080fd5b8101908080519060200190929190505050611e4b57600080fd5b6000809054906101000a900473ffffffffffffffffffffffffffffffffffffffff1673ffffffffffffffffffffffffffffffffffffffff1663c30918d1886002870181518110611e9757fe5b6020026020010151896003880181518110611eae57fe5b602002602001015160076002880181548110611ec657fe5b906000526020600020015460076003890181548110611ee157fe5b90600052602060002001546040518563ffffffff1660e01b815260040180858152602001848152602001838152602001828152602001945050505050602060405180830381600087803b158015611f3757600080fd5b505af1158015611f4b573d6000803e3d6000fd5b505050506040513d6020811015611f6157600080fd5b8101908080519060200190929190505050611f7b57600080fd5b600484019350612528565b6000809054906101000a900473ffffffffffffffffffffffffffffffffffffffff1673ffffffffffffffffffffffffffffffffffffffff1663882033d160086000601260009054906101000a900473ffffffffffffffffffffffffffffffffffffffff1673ffffffffffffffffffffffffffffffffffffffff1673ffffffffffffffffffffffffffffffffffffffff1681526020019081526020016000206000015460086000601260009054906101000a900473ffffffffffffffffffffffffffffffffffffffff1673ffffffffffffffffffffffffffffffffffffffff1673ffffffffffffffffffffffffffffffffffffffff1681526020019081526020016000206001015460086000600160009054906101000a900473ffffffffffffffffffffffffffffffffffffffff1673ffffffffffffffffffffffffffffffffffffffff1673ffffffffffffffffffffffffffffffffffffffff1681526020019081526020016000206000015460086000600160009054906101000a900473ffffffffffffffffffffffffffffffffffffffff1673ffffffffffffffffffffffffffffffffffffffff1673ffffffffffffffffffffffffffffffffffffffff168152602001908152602001600020600101546040518563ffffffff1660e01b8152600401808581526020018481526020018381526020018281526020019450505050506040805180830381600087803b1580156121a157600080fd5b505af11580156121b5573d6000803e3d6000fd5b505050506040513d60408110156121cb57600080fd5b810190808051906020019092919080519060200190929190505050809250819350505060018760028601815181106121ff57fe5b6020026020010151141561231b576000809054906101000a900473ffffffffffffffffffffffffffffffffffffffff1673ffffffffffffffffffffffffffffffffffffffff1663cde6248383836007878154811061225957fe5b90600052602060002001546007600189018154811061227457fe5b90600052602060002001546040518563ffffffff1660e01b8152600401808581526020018481526020018381526020018281526020019450505050506040805180830381600087803b1580156122c957600080fd5b505af11580156122dd573d6000803e3d6000fd5b505050506040513d60408110156122f357600080fd5b8101908080519060200190929190805190602001909291905050508092508193505050612428565b6000809054906101000a900473ffffffffffffffffffffffffffffffffffffffff1673ffffffffffffffffffffffffffffffffffffffff1663cde6248383836007600288018154811061236a57fe5b90600052602060002001546007600389018154811061238557fe5b90600052602060002001546040518563ffffffff1660e01b8152600401808581526020018481526020018381526020018281526020019450505050506040805180830381600087803b1580156123da57600080fd5b505af11580156123ee573d6000803e3d6000fd5b505050506040513d604081101561240457600080fd5b81019080805190602001909291908051906020019092919050505080925081935050505b6000809054906101000a900473ffffffffffffffffffffffffffffffffffffffff1673ffffffffffffffffffffffffffffffffffffffff1663c30918d188868151811061247157fe5b602002602001015189600188018151811061248857fe5b602002602001015185856040518563ffffffff1660e01b815260040180858152602001848152602001838152602001828152602001945050505050602060405180830381600087803b1580156124dd57600080fd5b505af11580156124f1573d6000803e3d6000fd5b505050506040513d602081101561250757600080fd5b810190808051906020019092919050505061252157600080fd5b6003840193505b6004830192506001600a54901b600a819055508580600101965050611cb7565b600360019054906101000a900460ff1660ff168660ff161461256957600080fd5b600160086000600160009054906101000a900473ffffffffffffffffffffffffffffffffffffffff1673ffffffffffffffffffffffffffffffffffffffff1673ffffffffffffffffffffffffffffffffffffffff16815260200190815260200160002060030160006101000a81548160ff0219169083151502179055506001600060156101000a81548160ff0219169083600581111561260557fe5b02179055505050505050505050565b600080600080600c54600d54600e54601054935093509350935090919293565b60105481565b600060159054906101000a900460ff1681565b600b60009054906101000a900473ffffffffffffffffffffffffffffffffffffffff1673ffffffffffffffffffffffffffffffffffffffff163373ffffffffffffffffffffffffffffffffffffffff16146126a757600080fd5b600d54421180156126b95750600e5442105b806126d05750600360009054906101000a900460ff165b6126d957600080fd5b60008090505b60098054905081101561285857601260009054906101000a900473ffffffffffffffffffffffffffffffffffffffff1673ffffffffffffffffffffffffffffffffffffffff166009828154811061273257fe5b9060005260206000200160009054906101000a900473ffffffffffffffffffffffffffffffffffffffff1673ffffffffffffffffffffffffffffffffffffffff161461284b57600860006009838154811061278957fe5b9060005260206000200160009054906101000a900473ffffffffffffffffffffffffffffffffffffffff1673ffffffffffffffffffffffffffffffffffffffff1673ffffffffffffffffffffffffffffffffffffffff16815260200190815260200160002060030160009054906101000a900460ff1661284a576000601260006101000a81548173ffffffffffffffffffffffffffffffffffffffff021916908373ffffffffffffffffffffffffffffffffffffffff160217905550600080fd5b5b80806001019150506126df565b506005600060156101000a81548160ff0219169083600581111561287857fe5b0217905550565b600d5481565b6000806000806000600860008773ffffffffffffffffffffffffffffffffffffffff1673ffffffffffffffffffffffffffffffffffffffff16815260200190815260200160002060030160029054906101000a900460ff1690506000600860008873ffffffffffffffffffffffffffffffffffffffff1673ffffffffffffffffffffffffffffffffffffffff16815260200190815260200160002060030160019054906101000a900460ff1690506000600f54600980549050101590506000601260009054906101000a900473ffffffffffffffffffffffffffffffffffffffff1673ffffffffffffffffffffffffffffffffffffffff168973ffffffffffffffffffffffffffffffffffffffff16149050838284839750975097509750505050509193509193565b6005808111156129ba57fe5b600060159054906101000a900460ff1660058111156129d557fe5b146129df57600080fd5b601260009054906101000a900473ffffffffffffffffffffffffffffffffffffffff1673ffffffffffffffffffffffffffffffffffffffff163373ffffffffffffffffffffffffffffffffffffffff1614612a3957600080fd5b60105460135403341015612a4c57600080fd5b565b600b60009054906101000a900473ffffffffffffffffffffffffffffffffffffffff1673ffffffffffffffffffffffffffffffffffffffff163373ffffffffffffffffffffffffffffffffffffffff1614612aa857600080fd5b600d5442118015612aba5750600e5442105b80612ad15750600360009054906101000a900460ff165b612ada57600080fd5b60016005811115612ae757fe5b600060159054906101000a900460ff166005811115612b0257fe5b1480612b1a5750600360009054906101000a900460ff165b612b2357600080fd5b6004600360019054906101000a900460ff160260ff16825114612b4557600080fd5b8051825114612b5357600080fd5b60011515600860008573ffffffffffffffffffffffffffffffffffffffff1673ffffffffffffffffffffffffffffffffffffffff16815260200190815260200160002060030160029054906101000a900460ff16151514612bb357600080fd5b82600160006101000a81548173ffffffffffffffffffffffffffffffffffffffff021916908373ffffffffffffffffffffffffffffffffffffffff1602179055504360028190555060008090505b8251811015612d0657806006805490501415612c9a576006838281518110612c2557fe5b602002602001015190806001815401808255809150509060018203906000526020600020016000909192909190915055506007828281518110612c6457fe5b60200260200101519080600181540180825580915050906001820390600052602060002001600090919290919091505550612cf9565b828181518110612ca657fe5b602002602001015160068281548110612cbb57fe5b9060005260206000200181905550818181518110612cd557fe5b602002602001015160078281548110612cea57fe5b90600052602060002001819055505b8080600101915050612c01565b506003600060156101000a81548160ff02191690836005811115612d2657fe5b0217905550505050565b600b60009054906101000a900473ffffffffffffffffffffffffffffffffffffffff1681565b60135481565b601260009054906101000a900473ffffffffffffffffffffffffffffffffffffffff1681565b60045481565b600e5481565b600d5480421080612dab5750600360009054906101000a900460ff165b612e1d576040517f08c379a000000000000000000000000000000000000000000000000000000000815260040180806020018281038252600c8152602001807f4e6f742074696d6520796574000000000000000000000000000000000000000081525060200191505060405180910390fd5b600c5480421180612e3a5750600360009054906101000a900460ff165b612eac576040517f08c379a000000000000000000000000000000000000000000000000000000000815260040180806020018281038252600f8152602001807f54696d652068617320706173736564000000000000000000000000000000000081525060200191505060405180910390fd5b60011515600860003373ffffffffffffffffffffffffffffffffffffffff1673ffffffffffffffffffffffffffffffffffffffff16815260200190815260200160002060030160029054906101000a900460ff16151514612f75576040517f08c379a00000000000000000000000000000000000000000000000000000000081526004018080602001828103825260158152602001807f42696464657220646f6573206e6f74206578697374000000000000000000000081525060200191505060405180910390fd5b82600860003373ffffffffffffffffffffffffffffffffffffffff1673ffffffffffffffffffffffffffffffffffffffff1681526020019081526020016000206002019080519060200190612fcb929190613215565b50505050565b6060600980548060200260200160405190810160405280929190818152602001828054801561305557602002820191906000526020600020905b8160009054906101000a900473ffffffffffffffffffffffffffffffffffffffff1673ffffffffffffffffffffffffffffffffffffffff168152602001906001019080831161300b575b5050505050905090565b600b60009054906101000a900473ffffffffffffffffffffffffffffffffffffffff1673ffffffffffffffffffffffffffffffffffffffff16ff5b6008602052806000526040600020600091509050806000015490806001015490806002018054600181600116156101000203166002900480601f0160208091040260200160405190810160405280929190818152602001828054600181600116156101000203166002900480156131525780601f1061312757610100808354040283529160200191613152565b820191906000526020600020905b81548152906001019060200180831161313557829003601f168201915b5050505050908060030160009054906101000a900460ff16908060030160019054906101000a900460ff16908060030160029054906101000a900460ff16905086565b828054600181600116156101000203166002900490600052602060002090601f016020900481019282601f106131d657805160ff1916838001178555613204565b82800160010185558215613204579182015b828111156132035782518255916020019190600101906131e8565b5b5090506132119190613295565b5090565b828054600181600116156101000203166002900490600052602060002090601f016020900481019282601f1061325657805160ff1916838001178555613284565b82800160010185558215613284579182015b82811115613283578251825591602001919060010190613268565b5b5090506132919190613295565b5090565b6132b791905b808211156132b357600081600090555060010161329b565b5090565b9056fea165627a7a723058203d92f4df6229c691a461b246a40f2bbfda5986a7f9af3379f0a5f81b14f7fcf40029a165627a7a723058206edf7b7adef47655860881b7a615605252032f53fd5ddd932af8e47b0ad25819002960806040527f30644e72e131a029b85045b68181585d97816a916871ca8d3c208c16d87cfd476000557f2bd3e6d0f3b142924f5ca7b49ce5b9d54c4703d7ae5648e61d02268b1a0a9fb76001557f21611ce0a6af85915e2f1d70300909ce2e49dfad4a4619c8390cae66cefdb2046002557f070a8d6a982153cae4be29d434e8faef8a47b274a053f5a4ee2a6c9c13c31e5c6003557f031b8ce914eba3a9ffb989f9cdd5b0f01943074bf4f0f315690ec3cec6981afc6004553480156100c457600080fd5b5061042b806100d46000396000f3fe608060405234801561001057600080fd5b506004361061004c5760003560e01c8063882033d114610051578063acafc535146100b8578063c30918d11461010b578063cde624831461016f575b600080fd5b61009b6004803603608081101561006757600080fd5b81019080803590602001909291908035906020019092919080359060200190929190803590602001909291905050506101d6565b604051808381526020018281526020019250505060405180910390f35b6100ee600480360360408110156100ce57600080fd5b8101908080359060200190929190803590602001909291905050506101fa565b604051808381526020018281526020019250505060405180910390f35b6101556004803603608081101561012157600080fd5b8101908080359060200190929190803590602001909291908035906020019092919080359060200190929190505050610248565b604051808215151515815260200191505060405180910390f35b6101b96004803603608081101561018557600080fd5b8101908080359060200190929190803590602001909291908035906020019092919080359060200190929190505050610275565b604051808381526020018281526020019250505060405180910390f35b6000806101e98686868660005403610275565b809250819350505094509492505050565b60008060008061020f8660015460025461033e565b915091506000806102258760035460045461033e565b9150915061023584848484610275565b8096508197505050505050509250929050565b600080600061025787876101fa565b91509150818514801561026957508084145b92505050949350505050565b6000806000809050606060806040519080825280601f01601f1916602001820160405280156102b35781602001600182028038833980820191505090505b5090506060604080519080825280601f01601f1916602001820160405280156102eb5781602001600182028038833980820191505090505b509050886020830152876040830152866060830152856080830152604060208201608060208501600060065af1925060208101519450604081015193508261033257600080fd5b50505094509492505050565b60008060008090506060806040519080825280601f01601f19166020018201604052801561037b5781602001600182028038833980820191505090505b5090506060604080519080825280601f01601f1916602001820160405280156103b35781602001600182028038833980820191505090505b509050866020830152856040830152876060830152604060208201606060208501600060075af192506020810151945060408101519350826103f457600080fd5b50505093509391505056fea165627a7a7230582035050b0d63544b5d2a4faca02a098543f86fc3fbb9fdaff87fca930c2d50d0b70029",
  "source": "pragma solidity >0.4.18;\nimport {Auction} from \"./BlindAuctionZKP.sol\";\nimport {Pedersen} from \"./Pedersen.sol\";\n\ncontract AuctionFactory {\n    struct AuctionData {\n      string name;\n      string desc;\n      Auction auctionContract;\n    }\n    address[] public auctionsAddresses;\n    mapping (address => AuctionData) auctions;\n    address public pedersen;\n\n    event AuctionCreated(address auctionContract, address owner, uint numAuctions, address[] allAuctions);\n\n    constructor() public {\n      pedersen = address(new Pedersen());\n    }\n\n    function createAuction(string memory _name, string memory _desc, uint _bidEndTime, uint _revealTime,\n    uint _winnerPaymentTime, uint _maxBiddersCount, uint _fairnessFees, string memory _auctioneerRSAPublicKey,\n    uint8 k, bool _testing) public payable {\n        Auction newAuction = new Auction(_bidEndTime, _revealTime, _winnerPaymentTime, _maxBiddersCount,\n        _fairnessFees, _auctioneerRSAPublicKey, pedersen, k, _testing, msg.sender, msg.value);\n        auctionsAddresses.push(address(newAuction));\n        auctions[address(newAuction)] = AuctionData(_name, _desc, newAuction);\n\n        emit AuctionCreated(address(newAuction), msg.sender, auctionsAddresses.length, auctionsAddresses);\n    }\n\n    function allAuctions() public view returns (address[] memory) {\n        return auctionsAddresses;\n    }\n\n    function getAuctionData(address _address) public view returns (string memory, string memory){\n      return (auctions[_address].name, auctions[_address].desc);\n    }\n}",
  "sourcePath": "/Users/siska/Desktop/FYP/workspace/auction-truffle-box/contracts/AuctionFactory.sol",
  "compiler": {
    "name": "solc",
    "version": "0.5.8+commit.23d335f2.Emscripten.clang"
  },
  "schemaVersion": "3.0.16",
  "updatedAt": "2019-10-08T00:16:13.780Z",
  "devdoc": {
    "methods": {}
  },
  "userdoc": {
    "methods": {}
  }
}