{
  "contractName": "Pedersen",
  "abi": [
    {
      "constant": false,
      "inputs": [
        {
          "name": "b",
          "type": "uint256"
        },
        {
          "name": "r",
          "type": "uint256"
        }
      ],
      "name": "Commit",
      "outputs": [
        {
          "name": "cX",
          "type": "uint256"
        },
        {
          "name": "cY",
          "type": "uint256"
        }
      ],
      "payable": false,
      "stateMutability": "nonpayable",
      "type": "function"
    },
    {
      "constant": false,
      "inputs": [
        {
          "name": "b",
          "type": "uint256"
        },
        {
          "name": "r",
          "type": "uint256"
        },
        {
          "name": "cX",
          "type": "uint256"
        },
        {
          "name": "cY",
          "type": "uint256"
        }
      ],
      "name": "Verify",
      "outputs": [
        {
          "name": "",
          "type": "bool"
        }
      ],
      "payable": false,
      "stateMutability": "nonpayable",
      "type": "function"
    },
    {
      "constant": false,
      "inputs": [
        {
          "name": "cX1",
          "type": "uint256"
        },
        {
          "name": "cY1",
          "type": "uint256"
        },
        {
          "name": "cX2",
          "type": "uint256"
        },
        {
          "name": "cY2",
          "type": "uint256"
        }
      ],
      "name": "CommitDelta",
      "outputs": [
        {
          "name": "cX",
          "type": "uint256"
        },
        {
          "name": "cY",
          "type": "uint256"
        }
      ],
      "payable": false,
      "stateMutability": "nonpayable",
      "type": "function"
    },
    {
      "constant": false,
      "inputs": [
        {
          "name": "cX1",
          "type": "uint256"
        },
        {
          "name": "cY1",
          "type": "uint256"
        },
        {
          "name": "cX2",
          "type": "uint256"
        },
        {
          "name": "cY2",
          "type": "uint256"
        }
      ],
      "name": "ecAdd",
      "outputs": [
        {
          "name": "cX3",
          "type": "uint256"
        },
        {
          "name": "cY3",
          "type": "uint256"
        }
      ],
      "payable": false,
      "stateMutability": "nonpayable",
      "type": "function"
    }
  ],
  "bytecode": "0x60806040527f30644e72e131a029b85045b68181585d97816a916871ca8d3c208c16d87cfd476000557f2bd3e6d0f3b142924f5ca7b49ce5b9d54c4703d7ae5648e61d02268b1a0a9fb76001557f21611ce0a6af85915e2f1d70300909ce2e49dfad4a4619c8390cae66cefdb2046002557f070a8d6a982153cae4be29d434e8faef8a47b274a053f5a4ee2a6c9c13c31e5c6003557f031b8ce914eba3a9ffb989f9cdd5b0f01943074bf4f0f315690ec3cec6981afc6004553480156100c457600080fd5b5061042b806100d46000396000f3fe608060405234801561001057600080fd5b506004361061004c5760003560e01c8063882033d114610051578063acafc535146100b8578063c30918d11461010b578063cde624831461016f575b600080fd5b61009b6004803603608081101561006757600080fd5b81019080803590602001909291908035906020019092919080359060200190929190803590602001909291905050506101d6565b604051808381526020018281526020019250505060405180910390f35b6100ee600480360360408110156100ce57600080fd5b8101908080359060200190929190803590602001909291905050506101fa565b604051808381526020018281526020019250505060405180910390f35b6101556004803603608081101561012157600080fd5b8101908080359060200190929190803590602001909291908035906020019092919080359060200190929190505050610248565b604051808215151515815260200191505060405180910390f35b6101b96004803603608081101561018557600080fd5b8101908080359060200190929190803590602001909291908035906020019092919080359060200190929190505050610275565b604051808381526020018281526020019250505060405180910390f35b6000806101e98686868660005403610275565b809250819350505094509492505050565b60008060008061020f8660015460025461033e565b915091506000806102258760035460045461033e565b9150915061023584848484610275565b8096508197505050505050509250929050565b600080600061025787876101fa565b91509150818514801561026957508084145b92505050949350505050565b6000806000809050606060806040519080825280601f01601f1916602001820160405280156102b35781602001600182028038833980820191505090505b5090506060604080519080825280601f01601f1916602001820160405280156102eb5781602001600182028038833980820191505090505b509050886020830152876040830152866060830152856080830152604060208201608060208501600060065af1925060208101519450604081015193508261033257600080fd5b50505094509492505050565b60008060008090506060806040519080825280601f01601f19166020018201604052801561037b5781602001600182028038833980820191505090505b5090506060604080519080825280601f01601f1916602001820160405280156103b35781602001600182028038833980820191505090505b509050866020830152856040830152876060830152604060208201606060208501600060075af192506020810151945060408101519350826103f457600080fd5b50505093509391505056fea165627a7a7230582035050b0d63544b5d2a4faca02a098543f86fc3fbb9fdaff87fca930c2d50d0b70029",
  "source": "pragma solidity >0.4.18;\n\ncontract Pedersen {\n    //uint public q =  21888242871839275222246405745257275088548364400416034343698204186575808495617;\n    uint private q = 21888242871839275222246405745257275088696311157297823662689037894645226208583;\n    uint private gX = 19823850254741169819033785099293761935467223354323761392354670518001715552183;\n    uint private gY = 15097907474011103550430959168661954736283086276546887690628027914974507414020;\n    uint private hX = 3184834430741071145030522771540763108892281233703148152311693391954704539228;\n    uint private hY = 1405615944858121891163559530323310827496899969303520166098610312148921359100;\n    function Commit(uint b, uint r) public returns (uint cX, uint cY) {\n        (uint256 cX1, uint256 cY1) = ecMul(b, gX, gY);\n        (uint256 cX2, uint256 cY2) = ecMul(r, hX, hY);\n        (cX, cY) = ecAdd(cX1, cY1, cX2, cY2);\n    }\n    function Verify(uint b, uint r, uint cX, uint cY) public returns (bool) {\n        (uint256 cX2, uint256 cY2) = Commit(b,r);\n        return cX == cX2 && cY == cY2;\n    }\n    function CommitDelta(uint cX1, uint cY1, uint cX2, uint cY2) public returns (uint cX, uint cY) {\n        (cX, cY) = ecAdd(cX1, cY1, cX2, q-cY2);\n    }\n    function ecMul(uint b, uint cX1, uint cY1) private returns (uint cX2, uint cY2) {\n        bool success = false;\n        bytes memory input = new bytes(96);\n        bytes memory output = new bytes(64);\n        assembly {\n            mstore(add(input, 32), cX1)\n            mstore(add(input, 64), cY1)\n            mstore(add(input, 96), b)\n            success := call(gas(), 7, 0, add(input, 32), 96, add(output, 32), 64)\n            cX2 := mload(add(output, 32))\n            cY2 := mload(add(output, 64))\n        }\n        require(success);\n    }\n    function ecAdd(uint cX1, uint cY1, uint cX2, uint cY2) public returns (uint cX3, uint cY3) {\n        bool success = false;\n        bytes memory input = new bytes(128);\n        bytes memory output = new bytes(64);\n        assembly {\n            mstore(add(input, 32), cX1)\n            mstore(add(input, 64), cY1)\n            mstore(add(input, 96), cX2)\n            mstore(add(input, 128), cY2)\n            success := call(gas(), 6, 0, add(input, 32), 128, add(output, 32), 64)\n            cX3 := mload(add(output, 32))\n            cY3 := mload(add(output, 64))\n        }\n        require(success);\n    }\n}",
  "sourcePath": "/Users/siska/Desktop/FYP/workspace/auction-truffle-box/contracts/Pedersen.sol",
  "compiler": {
    "name": "solc",
    "version": "0.5.8+commit.23d335f2.Emscripten.clang"
  },
  "schemaVersion": "3.0.16",
  "updatedAt": "2019-11-13T08:35:35.481Z",
  "devdoc": {
    "methods": {}
  },
  "userdoc": {
    "methods": {}
  }
}